{
  "contractName": "ContratoPayable",
  "abi": [
    {
      "inputs": [],
      "stateMutability": "nonpayable",
      "type": "constructor"
    },
    {
      "inputs": [],
      "name": "enderecoAnterior",
      "outputs": [
        {
          "internalType": "address",
          "name": "",
          "type": "address"
        }
      ],
      "stateMutability": "view",
      "type": "function",
      "constant": true
    },
    {
      "inputs": [],
      "name": "recebeDinheiro",
      "outputs": [],
      "stateMutability": "payable",
      "type": "function",
      "payable": true
    }
  ],
  "bytecode": "0x608060405234801561001057600080fd5b50336000806101000a81548173ffffffffffffffffffffffffffffffffffffffff021916908373ffffffffffffffffffffffffffffffffffffffff1602179055506101c2806100606000396000f3fe6080604052600436106100295760003560e01c8063e793e3ec1461002e578063fce3c23814610059575b600080fd5b34801561003a57600080fd5b50610043610063565b6040516100509190610171565b60405180910390f35b610061610087565b005b60008054906101000a900473ffffffffffffffffffffffffffffffffffffffff1681565b60008054906101000a900473ffffffffffffffffffffffffffffffffffffffff1673ffffffffffffffffffffffffffffffffffffffff166108fc349081150290604051600060405180830381858888f193505050501580156100ed573d6000803e3d6000fd5b50336000806101000a81548173ffffffffffffffffffffffffffffffffffffffff021916908373ffffffffffffffffffffffffffffffffffffffff160217905550565b600073ffffffffffffffffffffffffffffffffffffffff82169050919050565b600061015b82610130565b9050919050565b61016b81610150565b82525050565b60006020820190506101866000830184610162565b9291505056fea26469706673582212208988cd29a497dbd51f046d930fe302381759f39603c27890d2ff10acd06a51c664736f6c634300080d0033",
  "immutableReferences": {},
  "source": "// SPDX-License-Identifier: MIT\r\npragma solidity^0.8.7;\r\n\r\ncontract ContratoPayable {\r\n\r\n    address public enderecoAnterior;\r\n\r\n    constructor() {\r\n        enderecoAnterior = msg.sender;\r\n    }\r\n\r\n    function recebeDinheiro() public payable {\r\n        \r\n        payable(enderecoAnterior).transfer(msg.value);\r\n        enderecoAnterior = msg.sender;\r\n    }\r\n}",
  "sourcePath": "C:\\Users\\TorWe\\OneDrive\\Documentos\\GitHub\\cpm-22-bugs\\Projeto - Etheroom\\Web3.js e Truffle - Estudo\\src\\contracts\\ContratoPayable.sol",
  "compiler": {
    "name": "solc",
    "version": "0.8.13+commit.abaa5c0e.Emscripten.clang"
  },
  "schemaVersion": "3.4.16",
  "updatedAt": "2024-06-14T21:01:19.578Z",
  "networkType": "ethereum",
  "devdoc": {
    "kind": "dev",
    "methods": {},
    "version": 1
  },
  "userdoc": {
    "kind": "user",
    "methods": {},
    "version": 1
  }
}