{
  "contractName": "Criador",
  "abi": [
    {
      "inputs": [],
      "name": "endereco",
      "outputs": [
        {
          "internalType": "address",
          "name": "",
          "type": "address"
        }
      ],
      "stateMutability": "view",
      "type": "function",
      "constant": true
    },
    {
      "inputs": [],
      "name": "CriaPadrao",
      "outputs": [],
      "stateMutability": "nonpayable",
      "type": "function"
    }
  ],
  "bytecode": "0x608060405234801561001057600080fd5b50610659806100206000396000f3fe608060405234801561001057600080fd5b50600436106100365760003560e01c80634f33db441461003b578063f38b274314610045575b600080fd5b610043610063565b005b61004d6100d3565b60405161005a9190610145565b60405180910390f35b6000604051610071906100f7565b604051809103906000f08015801561008d573d6000803e3d6000fd5b509050806000806101000a81548173ffffffffffffffffffffffffffffffffffffffff021916908373ffffffffffffffffffffffffffffffffffffffff16021790555050565b60008054906101000a900473ffffffffffffffffffffffffffffffffffffffff1681565b6104c38061016183390190565b600073ffffffffffffffffffffffffffffffffffffffff82169050919050565b600061012f82610104565b9050919050565b61013f81610124565b82525050565b600060208201905061015a6000830184610136565b9291505056fe608060405234801561001057600080fd5b506104a3806100206000396000f3fe608060405234801561001057600080fd5b50600436106100365760003560e01c806306fdde031461003b578063e5e1bf8f14610059575b600080fd5b610043610075565b6040516100509190610259565b60405180910390f35b610073600480360381019061006e91906103c4565b610103565b005b600080546100829061043c565b80601f01602080910402602001604051908101604052809291908181526020018280546100ae9061043c565b80156100fb5780601f106100d0576101008083540402835291602001916100fb565b820191906000526020600020905b8154815290600101906020018083116100de57829003601f168201915b505050505081565b806000908051906020019061011992919061011d565b5050565b8280546101299061043c565b90600052602060002090601f01602090048101928261014b5760008555610192565b82601f1061016457805160ff1916838001178555610192565b82800160010185558215610192579182015b82811115610191578251825591602001919060010190610176565b5b50905061019f91906101a3565b5090565b5b808211156101bc5760008160009055506001016101a4565b5090565b600081519050919050565b600082825260208201905092915050565b60005b838110156101fa5780820151818401526020810190506101df565b83811115610209576000848401525b50505050565b6000601f19601f8301169050919050565b600061022b826101c0565b61023581856101cb565b93506102458185602086016101dc565b61024e8161020f565b840191505092915050565b600060208201905081810360008301526102738184610220565b905092915050565b6000604051905090565b600080fd5b600080fd5b600080fd5b600080fd5b7f4e487b7100000000000000000000000000000000000000000000000000000000600052604160045260246000fd5b6102d18261020f565b810181811067ffffffffffffffff821117156102f0576102ef610299565b5b80604052505050565b600061030361027b565b905061030f82826102c8565b919050565b600067ffffffffffffffff82111561032f5761032e610299565b5b6103388261020f565b9050602081019050919050565b82818337600083830152505050565b600061036761036284610314565b6102f9565b90508281526020810184848401111561038357610382610294565b5b61038e848285610345565b509392505050565b600082601f8301126103ab576103aa61028f565b5b81356103bb848260208601610354565b91505092915050565b6000602082840312156103da576103d9610285565b5b600082013567ffffffffffffffff8111156103f8576103f761028a565b5b61040484828501610396565b91505092915050565b7f4e487b7100000000000000000000000000000000000000000000000000000000600052602260045260246000fd5b6000600282049050600182168061045457607f821691505b6020821081036104675761046661040d565b5b5091905056fea2646970667358221220e80be3c62a3bef74e10340c8aacf7d269c9e5ef1dc35032275bf1d0b2e65dccd64736f6c634300080d0033a26469706673582212206970303bc550e8005ff42f44e4db3a12d374ba0bf30e3bbdafdd749db110d87664736f6c634300080d0033",
  "immutableReferences": {},
  "source": "pragma solidity^0.8.7;\n\nimport \"./Simples.sol\";\n\ncontract Criador {\n\n    address public endereco;\n\n    function CriaPadrao() public {\n\n        Simples novoSimples = new Simples();\n        endereco = address(novoSimples);\n\n    }\n}\n\n// Contrato para criar instâncias do outro contrato Simples.sol, capaz de retornar o endereço de cada instância\n// \"let instanceCriador = await Criador.deployed()\" cria uma instância deste contrato\n// \"await instanceCriador.CriaPadrao()\" gera um novo contrado Simples.sol\n// \"let endereco = await instanceCriador.endereco()\" e depois \"endereco\" obtemos o endereço onde foi criado o novo Simples.sol\n\n\n// mas como pegar uma instância de um contrato tendo o endereço dele usando o truffle?\n// \"let instance2 = await Simples.at('endereço')\", ex:'0x936d229802475482Ec4D810Dc9Db557c48E72BD0'\n// \"nome2 = await instance2.name()\" para verificar o nome nesse contrato referenciado\n// \"await instance2.mudaNome(\"Serjão\")\"para mudar o valor do nome nesse contrato",
  "sourcePath": "C:\\Users\\Usuario\\Documents\\GitHub\\Estudo Blockchain\\contracts\\Criador.sol",
  "compiler": {
    "name": "solc",
    "version": "0.8.13+commit.abaa5c0e.Emscripten.clang"
  },
  "schemaVersion": "3.4.16",
  "updatedAt": "2024-05-03T19:25:01.882Z",
  "networkType": "ethereum",
  "devdoc": {
    "kind": "dev",
    "methods": {},
    "version": 1
  },
  "userdoc": {
    "kind": "user",
    "methods": {},
    "version": 1
  }
}