{
  "contractName": "HelloWorld",
  "abi": [
    {
      "inputs": [],
      "name": "meuNumero",
      "outputs": [
        {
          "internalType": "uint256",
          "name": "",
          "type": "uint256"
        }
      ],
      "stateMutability": "view",
      "type": "function",
      "constant": true
    },
    {
      "inputs": [
        {
          "internalType": "uint256",
          "name": "_novoNumero",
          "type": "uint256"
        }
      ],
      "name": "setInt",
      "outputs": [],
      "stateMutability": "nonpayable",
      "type": "function"
    }
  ],
  "bytecode": "0x60806040526000805534801561001457600080fd5b50610133806100246000396000f3fe6080604052348015600f57600080fd5b506004361060325760003560e01c806344420311146037578063e7dda5ad14604f575b600080fd5b604d60048036038101906049919060af565b6069565b005b60556073565b6040516060919060e4565b60405180910390f35b8060008190555050565b60005481565b600080fd5b6000819050919050565b608f81607e565b8114609957600080fd5b50565b60008135905060a9816088565b92915050565b60006020828403121560c25760c16079565b5b600060ce84828501609c565b91505092915050565b60de81607e565b82525050565b600060208201905060f7600083018460d7565b9291505056fea26469706673582212209960eb4c53999464e034a25325dfdcbb723d00d8a0518eda7d45eb816ecf54ae64736f6c634300080d0033",
  "immutableReferences": {},
  "source": "// SPDX-License-Identifier: MIT\npragma solidity^0.8.7;\n\ncontract HelloWorld {\n\n    uint public meuNumero = 0;\n\n    function setInt(uint _novoNumero) public {\n        meuNumero = _novoNumero;\n    }\n}\n\n// ao executar \"truffle compile\" no console, será criada uma pasta \"build\" com um JSON para cada contrato\n// neste JSON, podemos encontrar a ABI do contrato, através dessa ABI, o dApp conseguirá interagir com os métodos do contrato na Blockchain\n// no JSON também encontramos o bytecode, um código hexadecimal que será implementado na blockchain\n\n// ao executar \"truffle migrate\", será feito o deploy de cada contrato para, nesse caso, a rede local definida no truffle-config.js, o Ganache\n// para interagir com o contrato, podemos escrever um programa em JS ou usar o \"truffle console\"\n// neste caso, podemos usar diretivas do próprio truffle ou da web3.js\n\n// para gerar uma instância do contrato no truffle console, usamos \"let instance = await NomeDoContrato.deployed()\" e depois \"instance\"\n// a partir desse ponto, podemos interagir com os métodos do contrato\n\n// transação: interagir com alguma conta, seja conta de contato ou conta externa (carteira), alterando alguma variável de estado\n// obter informações não conta como transação, pois não alteramos nada na Blockchain",
  "sourcePath": "C:\\Users\\Usuario\\Documents\\GitHub\\cpm-22-bugs\\Projeto - Etheroom\\Web3.js e Truffle - Estudo\\src\\contracts\\HelloWorld.sol",
  "compiler": {
    "name": "solc",
    "version": "0.8.13+commit.abaa5c0e.Emscripten.clang"
  },
  "schemaVersion": "3.4.16",
  "updatedAt": "2024-05-30T23:49:42.943Z",
  "networkType": "ethereum",
  "devdoc": {
    "kind": "dev",
    "methods": {},
    "version": 1
  },
  "userdoc": {
    "kind": "user",
    "methods": {},
    "version": 1
  }
}