{
  "contractName": "HotelBookingManager",
  "abi": [
    {
      "inputs": [],
      "stateMutability": "nonpayable",
      "type": "constructor"
    },
    {
      "anonymous": false,
      "inputs": [
        {
          "indexed": true,
          "internalType": "uint256",
          "name": "bookingId",
          "type": "uint256"
        },
        {
          "indexed": true,
          "internalType": "address",
          "name": "guest",
          "type": "address"
        }
      ],
      "name": "BookingCancelled",
      "type": "event"
    },
    {
      "anonymous": false,
      "inputs": [
        {
          "indexed": true,
          "internalType": "uint256",
          "name": "bookingId",
          "type": "uint256"
        },
        {
          "indexed": false,
          "internalType": "address",
          "name": "bookingContract",
          "type": "address"
        },
        {
          "indexed": true,
          "internalType": "address",
          "name": "guest",
          "type": "address"
        },
        {
          "indexed": false,
          "internalType": "string",
          "name": "hotel",
          "type": "string"
        },
        {
          "indexed": false,
          "internalType": "uint256",
          "name": "amount",
          "type": "uint256"
        }
      ],
      "name": "BookingCreated",
      "type": "event"
    },
    {
      "inputs": [
        {
          "internalType": "uint256",
          "name": "",
          "type": "uint256"
        }
      ],
      "name": "bookingContracts",
      "outputs": [
        {
          "internalType": "address",
          "name": "",
          "type": "address"
        }
      ],
      "stateMutability": "view",
      "type": "function",
      "constant": true
    },
    {
      "inputs": [],
      "name": "bookingCount",
      "outputs": [
        {
          "internalType": "uint256",
          "name": "",
          "type": "uint256"
        }
      ],
      "stateMutability": "view",
      "type": "function",
      "constant": true
    },
    {
      "inputs": [
        {
          "internalType": "uint256",
          "name": "",
          "type": "uint256"
        }
      ],
      "name": "bookings",
      "outputs": [
        {
          "internalType": "address",
          "name": "bookingContract",
          "type": "address"
        },
        {
          "internalType": "address",
          "name": "guest",
          "type": "address"
        },
        {
          "internalType": "string",
          "name": "hotel",
          "type": "string"
        },
        {
          "internalType": "uint256",
          "name": "amount",
          "type": "uint256"
        },
        {
          "internalType": "bool",
          "name": "isActive",
          "type": "bool"
        }
      ],
      "stateMutability": "view",
      "type": "function",
      "constant": true
    },
    {
      "inputs": [],
      "name": "owner",
      "outputs": [
        {
          "internalType": "address",
          "name": "",
          "type": "address"
        }
      ],
      "stateMutability": "view",
      "type": "function",
      "constant": true
    },
    {
      "inputs": [
        {
          "internalType": "string",
          "name": "_hotel",
          "type": "string"
        },
        {
          "internalType": "uint256",
          "name": "_amount",
          "type": "uint256"
        },
        {
          "internalType": "uint256",
          "name": "_checkInDate",
          "type": "uint256"
        },
        {
          "internalType": "uint256",
          "name": "_checkOutDate",
          "type": "uint256"
        }
      ],
      "name": "createBooking",
      "outputs": [],
      "stateMutability": "payable",
      "type": "function",
      "payable": true
    },
    {
      "inputs": [
        {
          "internalType": "uint256",
          "name": "_bookingId",
          "type": "uint256"
        }
      ],
      "name": "cancelBooking",
      "outputs": [],
      "stateMutability": "nonpayable",
      "type": "function"
    },
    {
      "inputs": [
        {
          "internalType": "uint256",
          "name": "_bookingId",
          "type": "uint256"
        }
      ],
      "name": "getBooking",
      "outputs": [
        {
          "components": [
            {
              "internalType": "address",
              "name": "bookingContract",
              "type": "address"
            },
            {
              "internalType": "address",
              "name": "guest",
              "type": "address"
            },
            {
              "internalType": "string",
              "name": "hotel",
              "type": "string"
            },
            {
              "internalType": "uint256",
              "name": "amount",
              "type": "uint256"
            },
            {
              "internalType": "bool",
              "name": "isActive",
              "type": "bool"
            }
          ],
          "internalType": "struct HotelBookingManager.BookingInfo",
          "name": "",
          "type": "tuple"
        }
      ],
      "stateMutability": "view",
      "type": "function",
      "constant": true
    },
    {
      "inputs": [],
      "name": "getBookingContracts",
      "outputs": [
        {
          "internalType": "address[]",
          "name": "",
          "type": "address[]"
        }
      ],
      "stateMutability": "view",
      "type": "function",
      "constant": true
    }
  ],
  "bytecode": "0x6080604052600060015534801561001557600080fd5b50336000806101000a81548173ffffffffffffffffffffffffffffffffffffffff021916908373ffffffffffffffffffffffffffffffffffffffff1602179055506122a1806100656000396000f3fe608060405260043610620000865760003560e01c8063765ccc9c1162000055578063765ccc9c14620001755780637c31854c14620001b9578063881e71b914620001d95780638da5cb5b14620002095762000086565b80630dca825e146200008b5780631dab301e14620000b95780636a5c841a14620001015780636d7591721462000145575b600080fd5b3480156200009857600080fd5b50620000b76004803603810190620000b1919062000c43565b62000239565b005b348015620000c657600080fd5b50620000e56004803603810190620000df919062000c43565b62000488565b604051620000f895949392919062000d8c565b60405180910390f35b3480156200010e57600080fd5b506200012d600480360381019062000127919062000c43565b6200059b565b6040516200013c919062000ef5565b60405180910390f35b3480156200015257600080fd5b506200015d62000735565b6040516200016c919062000f19565b60405180910390f35b3480156200018257600080fd5b50620001a160048036038101906200019b919062000c43565b6200073b565b604051620001b0919062000f36565b60405180910390f35b620001d76004803603810190620001d19190620010a4565b6200077b565b005b348015620001e657600080fd5b50620001f162000a25565b604051620002009190620011f2565b60405180910390f35b3480156200021657600080fd5b506200022162000ab5565b60405162000230919062000f36565b60405180910390f35b60006003600083815260200190815260200160002090508060040160009054906101000a900460ff16620002a4576040517f08c379a00000000000000000000000000000000000000000000000000000000081526004016200029b9062001266565b60405180910390fd5b8060010160009054906101000a900473ffffffffffffffffffffffffffffffffffffffff1673ffffffffffffffffffffffffffffffffffffffff163373ffffffffffffffffffffffffffffffffffffffff1614806200034e575060008054906101000a900473ffffffffffffffffffffffffffffffffffffffff1673ffffffffffffffffffffffffffffffffffffffff163373ffffffffffffffffffffffffffffffffffffffff16145b62000390576040517f08c379a00000000000000000000000000000000000000000000000000000000081526004016200038790620012d8565b60405180910390fd5b8060000160009054906101000a900473ffffffffffffffffffffffffffffffffffffffff1673ffffffffffffffffffffffffffffffffffffffff166382394694336040518263ffffffff1660e01b8152600401620003ef919062000f36565b600060405180830381600087803b1580156200040a57600080fd5b505af11580156200041f573d6000803e3d6000fd5b5050505060008160040160006101000a81548160ff0219169083151502179055503373ffffffffffffffffffffffffffffffffffffffff16827f405ffc42ca8bb68e3a98a64aa11cec9f085da8d5fab0e36c73abff99bad8cdc960405160405180910390a35050565b60036020528060005260406000206000915090508060000160009054906101000a900473ffffffffffffffffffffffffffffffffffffffff16908060010160009054906101000a900473ffffffffffffffffffffffffffffffffffffffff1690806002018054620004f99062001329565b80601f0160208091040260200160405190810160405280929190818152602001828054620005279062001329565b8015620005785780601f106200054c5761010080835404028352916020019162000578565b820191906000526020600020905b8154815290600101906020018083116200055a57829003601f168201915b5050505050908060030154908060040160009054906101000a900460ff16905085565b620005a562000ad9565b600360008381526020019081526020016000206040518060a00160405290816000820160009054906101000a900473ffffffffffffffffffffffffffffffffffffffff1673ffffffffffffffffffffffffffffffffffffffff1673ffffffffffffffffffffffffffffffffffffffff1681526020016001820160009054906101000a900473ffffffffffffffffffffffffffffffffffffffff1673ffffffffffffffffffffffffffffffffffffffff1673ffffffffffffffffffffffffffffffffffffffff168152602001600282018054620006819062001329565b80601f0160208091040260200160405190810160405280929190818152602001828054620006af9062001329565b8015620007005780601f10620006d45761010080835404028352916020019162000700565b820191906000526020600020905b815481529060010190602001808311620006e257829003601f168201915b50505050508152602001600382015481526020016004820160009054906101000a900460ff1615151515815250509050919050565b60015481565b600281815481106200074c57600080fd5b906000526020600020016000915054906101000a900473ffffffffffffffffffffffffffffffffffffffff1681565b823414620007c0576040517f08c379a0000000000000000000000000000000000000000000000000000000008152600401620007b790620013ae565b60405180910390fd5b60003385858585604051620007d59062000b36565b620007e5959493929190620013d0565b604051809103906000f08015801562000802573d6000803e3d6000fd5b509050600160008154809291906200081a9062001463565b91905055506040518060a001604052808273ffffffffffffffffffffffffffffffffffffffff1681526020013373ffffffffffffffffffffffffffffffffffffffff1681526020018681526020018581526020016001151581525060036000600154815260200190815260200160002060008201518160000160006101000a81548173ffffffffffffffffffffffffffffffffffffffff021916908373ffffffffffffffffffffffffffffffffffffffff16021790555060208201518160010160006101000a81548173ffffffffffffffffffffffffffffffffffffffff021916908373ffffffffffffffffffffffffffffffffffffffff16021790555060408201518160020190805190602001906200093692919062000b44565b506060820151816003015560808201518160040160006101000a81548160ff0219169083151502179055509050506002819080600181540180825580915050600190039060005260206000200160009091909190916101000a81548173ffffffffffffffffffffffffffffffffffffffff021916908373ffffffffffffffffffffffffffffffffffffffff1602179055503373ffffffffffffffffffffffffffffffffffffffff166001547f0c22f4b4cb81d4f78330c9ce8e78e171ea4465b19d47d527072269bc398631a083888860405162000a1693929190620014b0565b60405180910390a35050505050565b6060600280548060200260200160405190810160405280929190818152602001828054801562000aab57602002820191906000526020600020905b8160009054906101000a900473ffffffffffffffffffffffffffffffffffffffff1673ffffffffffffffffffffffffffffffffffffffff168152602001906001019080831162000a60575b5050505050905090565b60008054906101000a900473ffffffffffffffffffffffffffffffffffffffff1681565b6040518060a00160405280600073ffffffffffffffffffffffffffffffffffffffff168152602001600073ffffffffffffffffffffffffffffffffffffffff16815260200160608152602001600081526020016000151581525090565b610d7780620014f583390190565b82805462000b529062001329565b90600052602060002090601f01602090048101928262000b76576000855562000bc2565b82601f1062000b9157805160ff191683800117855562000bc2565b8280016001018555821562000bc2579182015b8281111562000bc157825182559160200191906001019062000ba4565b5b50905062000bd1919062000bd5565b5090565b5b8082111562000bf057600081600090555060010162000bd6565b5090565b6000604051905090565b600080fd5b600080fd5b6000819050919050565b62000c1d8162000c08565b811462000c2957600080fd5b50565b60008135905062000c3d8162000c12565b92915050565b60006020828403121562000c5c5762000c5b62000bfe565b5b600062000c6c8482850162000c2c565b91505092915050565b600073ffffffffffffffffffffffffffffffffffffffff82169050919050565b600062000ca28262000c75565b9050919050565b62000cb48162000c95565b82525050565b600081519050919050565b600082825260208201905092915050565b60005b8381101562000cf657808201518184015260208101905062000cd9565b8381111562000d06576000848401525b50505050565b6000601f19601f8301169050919050565b600062000d2a8262000cba565b62000d36818562000cc5565b935062000d4881856020860162000cd6565b62000d538162000d0c565b840191505092915050565b62000d698162000c08565b82525050565b60008115159050919050565b62000d868162000d6f565b82525050565b600060a08201905062000da3600083018862000ca9565b62000db2602083018762000ca9565b818103604083015262000dc6818662000d1d565b905062000dd7606083018562000d5e565b62000de6608083018462000d7b565b9695505050505050565b62000dfb8162000c95565b82525050565b600082825260208201905092915050565b600062000e1f8262000cba565b62000e2b818562000e01565b935062000e3d81856020860162000cd6565b62000e488162000d0c565b840191505092915050565b62000e5e8162000c08565b82525050565b62000e6f8162000d6f565b82525050565b600060a08301600083015162000e8f600086018262000df0565b50602083015162000ea4602086018262000df0565b506040830151848203604086015262000ebe828262000e12565b915050606083015162000ed5606086018262000e53565b50608083015162000eea608086018262000e64565b508091505092915050565b6000602082019050818103600083015262000f11818462000e75565b905092915050565b600060208201905062000f30600083018462000d5e565b92915050565b600060208201905062000f4d600083018462000ca9565b92915050565b600080fd5b600080fd5b7f4e487b7100000000000000000000000000000000000000000000000000000000600052604160045260246000fd5b62000f978262000d0c565b810181811067ffffffffffffffff8211171562000fb95762000fb862000f5d565b5b80604052505050565b600062000fce62000bf4565b905062000fdc828262000f8c565b919050565b600067ffffffffffffffff82111562000fff5762000ffe62000f5d565b5b6200100a8262000d0c565b9050602081019050919050565b82818337600083830152505050565b60006200103d620010378462000fe1565b62000fc2565b9050828152602081018484840111156200105c576200105b62000f58565b5b6200106984828562001017565b509392505050565b600082601f83011262001089576200108862000f53565b5b81356200109b84826020860162001026565b91505092915050565b60008060008060808587031215620010c157620010c062000bfe565b5b600085013567ffffffffffffffff811115620010e257620010e162000c03565b5b620010f08782880162001071565b9450506020620011038782880162000c2c565b9350506040620011168782880162000c2c565b9250506060620011298782880162000c2c565b91505092959194509250565b600081519050919050565b600082825260208201905092915050565b6000819050602082019050919050565b60006200116f838362000df0565b60208301905092915050565b6000602082019050919050565b6000620011958262001135565b620011a1818562001140565b9350620011ae8362001151565b8060005b83811015620011e5578151620011c9888262001161565b9750620011d6836200117b565b925050600181019050620011b2565b5085935050505092915050565b600060208201905081810360008301526200120e818462001188565b905092915050565b7f52657365727661206a612063616e63656c616461000000000000000000000000600082015250565b60006200124e60148362000cc5565b91506200125b8262001216565b602082019050919050565b6000602082019050818103600083015262001281816200123f565b9050919050565b7f4e616f206175746f72697a61646f000000000000000000000000000000000000600082015250565b6000620012c0600e8362000cc5565b9150620012cd8262001288565b602082019050919050565b60006020820190508181036000830152620012f381620012b1565b9050919050565b7f4e487b7100000000000000000000000000000000000000000000000000000000600052602260045260246000fd5b600060028204905060018216806200134257607f821691505b602082108103620013585762001357620012fa565b5b50919050565b7f56616c6f7220646520706167616d656e746f20696e636f727265746f00000000600082015250565b600062001396601c8362000cc5565b9150620013a3826200135e565b602082019050919050565b60006020820190508181036000830152620013c98162001387565b9050919050565b600060a082019050620013e7600083018862000ca9565b8181036020830152620013fb818762000d1d565b90506200140c604083018662000d5e565b6200141b606083018562000d5e565b6200142a608083018462000d5e565b9695505050505050565b7f4e487b7100000000000000000000000000000000000000000000000000000000600052601160045260246000fd5b6000620014708262000c08565b91507fffffffffffffffffffffffffffffffffffffffffffffffffffffffffffffffff8203620014a557620014a462001434565b5b600182019050919050565b6000606082019050620014c7600083018662000ca9565b8181036020830152620014db818562000d1d565b9050620014ec604083018462000d5e565b94935050505056fe60806040523480156200001157600080fd5b5060405162000d7738038062000d778339818101604052810190620000379190620003b8565b846000806101000a81548173ffffffffffffffffffffffffffffffffffffffff021916908373ffffffffffffffffffffffffffffffffffffffff16021790555083600190805190602001906200008f929190620000cb565b508260028190555081600381905550806004819055506000600560006101000a81548160ff0219169083151502179055505050505050620004c3565b828054620000d9906200048e565b90600052602060002090601f016020900481019282620000fd576000855562000149565b82601f106200011857805160ff191683800117855562000149565b8280016001018555821562000149579182015b82811115620001485782518255916020019190600101906200012b565b5b5090506200015891906200015c565b5090565b5b80821115620001775760008160009055506001016200015d565b5090565b6000604051905090565b600080fd5b600080fd5b600073ffffffffffffffffffffffffffffffffffffffff82169050919050565b6000620001bc826200018f565b9050919050565b620001ce81620001af565b8114620001da57600080fd5b50565b600081519050620001ee81620001c3565b92915050565b600080fd5b600080fd5b6000601f19601f8301169050919050565b7f4e487b7100000000000000000000000000000000000000000000000000000000600052604160045260246000fd5b6200024982620001fe565b810181811067ffffffffffffffff821117156200026b576200026a6200020f565b5b80604052505050565b6000620002806200017b565b90506200028e82826200023e565b919050565b600067ffffffffffffffff821115620002b157620002b06200020f565b5b620002bc82620001fe565b9050602081019050919050565b60005b83811015620002e9578082015181840152602081019050620002cc565b83811115620002f9576000848401525b50505050565b600062000316620003108462000293565b62000274565b905082815260208101848484011115620003355762000334620001f9565b5b62000342848285620002c9565b509392505050565b600082601f830112620003625762000361620001f4565b5b815162000374848260208601620002ff565b91505092915050565b6000819050919050565b62000392816200037d565b81146200039e57600080fd5b50565b600081519050620003b28162000387565b92915050565b600080600080600060a08688031215620003d757620003d662000185565b5b6000620003e788828901620001dd565b955050602086015167ffffffffffffffff8111156200040b576200040a6200018a565b5b62000419888289016200034a565b94505060406200042c88828901620003a1565b93505060606200043f88828901620003a1565b92505060806200045288828901620003a1565b9150509295509295909350565b7f4e487b7100000000000000000000000000000000000000000000000000000000600052602260045260246000fd5b60006002820490506001821680620004a757607f821691505b602082108103620004bd57620004bc6200045f565b5b50919050565b6108a480620004d36000396000f3fe608060405234801561001057600080fd5b506004361061007d5760003560e01c8063823946941161005b57806382394694146100dc57806395ee1221146100f85780639a04f70414610116578063aa8c217c146101345761007d565b80630818a2d61461008257806352f31426146100a057806366481270146100be575b600080fd5b61008a610152565b6040516100979190610538565b60405180910390f35b6100a86101e0565b6040516100b59190610573565b60405180910390f35b6100c66101e6565b6040516100d39190610573565b60405180910390f35b6100f660048036038101906100f191906105f1565b6101ec565b005b610100610458565b60405161010d9190610639565b60405180910390f35b61011e61046b565b60405161012b9190610663565b60405180910390f35b61013c61048f565b6040516101499190610573565b60405180910390f35b6001805461015f906106ad565b80601f016020809104026020016040519081016040528092919081815260200182805461018b906106ad565b80156101d85780601f106101ad576101008083540402835291602001916101d8565b820191906000526020600020905b8154815290600101906020018083116101bb57829003601f168201915b505050505081565b60035481565b60045481565b60008054906101000a900473ffffffffffffffffffffffffffffffffffffffff1673ffffffffffffffffffffffffffffffffffffffff163373ffffffffffffffffffffffffffffffffffffffff161461027a576040517f08c379a000000000000000000000000000000000000000000000000000000000815260040161027190610750565b60405180910390fd5b600560009054906101000a900460ff16156102ca576040517f08c379a00000000000000000000000000000000000000000000000000000000081526004016102c1906107bc565b60405180910390fd5b60008054906101000a900473ffffffffffffffffffffffffffffffffffffffff1673ffffffffffffffffffffffffffffffffffffffff168173ffffffffffffffffffffffffffffffffffffffff1614610358576040517f08c379a000000000000000000000000000000000000000000000000000000000815260040161034f9061084e565b60405180910390fd5b6001600560006101000a81548160ff021916908315150217905550600061037d610495565b905060008054906101000a900473ffffffffffffffffffffffffffffffffffffffff1673ffffffffffffffffffffffffffffffffffffffff166108fc829081150290604051600060405180830381858888f193505050501580156103e5573d6000803e3d6000fd5b5060008054906101000a900473ffffffffffffffffffffffffffffffffffffffff1673ffffffffffffffffffffffffffffffffffffffff167f5cd299de5eeda67273101925bf237bc1f11d5a691d78d173827e51af1a0a720b8260405161044c9190610573565b60405180910390a25050565b600560009054906101000a900460ff1681565b60008054906101000a900473ffffffffffffffffffffffffffffffffffffffff1681565b60025481565b6000600254905090565b600081519050919050565b600082825260208201905092915050565b60005b838110156104d95780820151818401526020810190506104be565b838111156104e8576000848401525b50505050565b6000601f19601f8301169050919050565b600061050a8261049f565b61051481856104aa565b93506105248185602086016104bb565b61052d816104ee565b840191505092915050565b6000602082019050818103600083015261055281846104ff565b905092915050565b6000819050919050565b61056d8161055a565b82525050565b60006020820190506105886000830184610564565b92915050565b600080fd5b600073ffffffffffffffffffffffffffffffffffffffff82169050919050565b60006105be82610593565b9050919050565b6105ce816105b3565b81146105d957600080fd5b50565b6000813590506105eb816105c5565b92915050565b6000602082840312156106075761060661058e565b5b6000610615848285016105dc565b91505092915050565b60008115159050919050565b6106338161061e565b82525050565b600060208201905061064e600083018461062a565b92915050565b61065d816105b3565b82525050565b60006020820190506106786000830184610654565b92915050565b7f4e487b7100000000000000000000000000000000000000000000000000000000600052602260045260246000fd5b600060028204905060018216806106c557607f821691505b6020821081036106d8576106d761067e565b5b50919050565b7f4572726f2c20736f20706f64652073657220666569746f2070656c6f20686f7360008201527f7065646500000000000000000000000000000000000000000000000000000000602082015250565b600061073a6024836104aa565b9150610745826106de565b604082019050919050565b600060208201905081810360008301526107698161072d565b9050919050565b7f52657365727661206a612063616e63656c616461000000000000000000000000600082015250565b60006107a66014836104aa565b91506107b182610770565b602082019050919050565b600060208201905081810360008301526107d581610799565b9050919050565b7f4170656e6173206f20686f737065646520706f64652063616e63656c6172206160008201527f2072657365727661000000000000000000000000000000000000000000000000602082015250565b60006108386028836104aa565b9150610843826107dc565b604082019050919050565b600060208201905081810360008301526108678161082b565b905091905056fea26469706673582212207324b5525bc3702688b3454648cab9ae5ee6cedd3b69bdd6d65afc72a3af05d964736f6c634300080d0033a2646970667358221220098bf2fd316ce69705c87f5c323739894655abd41e6db0c5ef0da1cd15b44c0d64736f6c634300080d0033",
  "immutableReferences": {},
  "source": "// SPDX-License-Identifier: MIT\r\npragma solidity ^0.8.0;\r\n\r\nimport \"./HotelBooking.sol\";\r\n\r\ncontract HotelBookingManager {\r\n    address public owner;\r\n    uint256 public bookingCount = 0;\r\n    address[] public bookingContracts;\r\n    //lista de endereos de contratos de reserva\r\n\r\n    struct BookingInfo {\r\n        address bookingContract;\r\n        address guest;\r\n        string hotel;\r\n        uint256 amount;\r\n        bool isActive;\r\n    }\r\n\r\n    mapping(uint256 => BookingInfo) public bookings;\r\n\r\n    event BookingCreated(\r\n        uint256 indexed bookingId,\r\n        address bookingContract,\r\n        address indexed guest,\r\n        string hotel,\r\n        uint256 amount\r\n    );\r\n    /*Notifica qualquer sistema externo que uma nova reserva foi feita, incluindo detalhes como o ID da reserva, o endereo do contrato\r\n    da reserva, o endereo do hspede, o nome do hotel e o valor pago. Sistemas que monitoram a blockchain podem capturar esse evento e\r\n    atualizar a interface do usurio ou realizar outras aes com base nas informaes fornecidas.*/\r\n    \r\n    //\"Indexed\" permite a busca e filtragem de eventos no log da blockchain pelo 'bookingId' e 'guest'\r\n\r\n    event BookingCancelled(\r\n        uint256 indexed bookingId,\r\n        address indexed guest\r\n    );\r\n\r\n    modifier onlyOwner() {\r\n        require(msg.sender == owner, \"Erro, apenas o criador do contrato\");\r\n        _;\r\n    }\r\n\r\n    constructor() {\r\n        owner = msg.sender;\r\n    }\r\n\r\n    function createBooking(string memory _hotel, uint256 _amount, uint256 _checkInDate, uint256 _checkOutDate) public payable {\r\n        // Verifica se o valor enviado na transao  igual ao valor esperado da reserva, caso no seja, a transao falha e exibe a mensagem\r\n        require(msg.value == _amount, \"Valor de pagamento incorreto\");\r\n\r\n        // Cria uma instncia de um novo contrato de reserva individual (HotelBooking)\r\n        HotelBooking newBooking = new HotelBooking(\r\n        msg.sender, //endereo do hspede\r\n        _hotel, //nome do hotel\r\n        _amount, //valor pago\r\n        _checkInDate,\r\n        _checkOutDate\r\n    );\r\n\r\n    // Incrementa o contador de reservas para gerar um novo ID de reserva\r\n    bookingCount++;\r\n\r\n    // Registra as informaes da nova reserva no mapeamento 'bookings' usando o novo ID de reserva como chave\r\n    bookings[bookingCount] = BookingInfo({\r\n        bookingContract: address(newBooking),\r\n        guest: msg.sender,\r\n        hotel: _hotel,\r\n        amount: _amount,\r\n        isActive: true\r\n    });\r\n\r\n    // Adiciona o endereo do novo contrato de reserva  lista de contratos de reserva\r\n    bookingContracts.push(address(newBooking));\r\n\r\n    // Emite o evento 'BookingCreated' para notificar sobre a nova reserva\r\n    emit BookingCreated(\r\n        bookingCount,\r\n        address(newBooking),\r\n        msg.sender,\r\n        _hotel,\r\n        _amount\r\n        );\r\n    }\r\n\r\n    function cancelBooking(uint256 _bookingId) public {\r\n        BookingInfo storage booking = bookings[_bookingId];\r\n        require(booking.isActive, \"Reserva ja cancelada\");\r\n        require(\r\n            msg.sender == booking.guest || msg.sender == owner,\r\n            \"Nao autorizado\"\r\n        );\r\n\r\n        HotelBooking(booking.bookingContract).cancelBooking(msg.sender);\r\n        booking.isActive = false;\r\n\r\n        emit BookingCancelled(_bookingId, msg.sender);\r\n    }\r\n\r\n    function getBooking(uint256 _bookingId)\r\n        public\r\n        view\r\n        returns (BookingInfo memory)\r\n    {\r\n        return bookings[_bookingId];\r\n    }\r\n\r\n    function getBookingContracts() public view returns (address[] memory) {\r\n        return bookingContracts;\r\n        //retorna os contratos de reserva da lista\r\n    }\r\n}\r\n",
  "sourcePath": "C:\\Users\\TorWe\\OneDrive\\Documentos\\GitHub\\cpm-22-bugs\\Projeto - Etheroom\\Web3.js e Truffle - Estudo\\src\\contracts\\HotelBookingManager.sol",
  "compiler": {
    "name": "solc",
    "version": "0.8.13+commit.abaa5c0e.Emscripten.clang"
  },
  "schemaVersion": "3.4.16",
  "updatedAt": "2024-06-14T21:01:19.991Z",
  "networkType": "ethereum",
  "devdoc": {
    "kind": "dev",
    "methods": {},
    "version": 1
  },
  "userdoc": {
    "kind": "user",
    "methods": {},
    "version": 1
  }
}