{
  "contractName": "HotelBooking",
  "abi": [
    {
      "inputs": [
        {
          "internalType": "address",
          "name": "_guest",
          "type": "address"
        },
        {
          "internalType": "string",
          "name": "_hotel",
          "type": "string"
        },
        {
          "internalType": "uint256",
          "name": "_amount",
          "type": "uint256"
        },
        {
          "internalType": "uint256",
          "name": "_checkInDate",
          "type": "uint256"
        },
        {
          "internalType": "uint256",
          "name": "_checkOutDate",
          "type": "uint256"
        }
      ],
      "stateMutability": "nonpayable",
      "type": "constructor"
    },
    {
      "anonymous": false,
      "inputs": [
        {
          "indexed": true,
          "internalType": "address",
          "name": "guest",
          "type": "address"
        },
        {
          "indexed": false,
          "internalType": "uint256",
          "name": "refundAmount",
          "type": "uint256"
        }
      ],
      "name": "BookingCancelled",
      "type": "event"
    },
    {
      "inputs": [],
      "name": "amount",
      "outputs": [
        {
          "internalType": "uint256",
          "name": "",
          "type": "uint256"
        }
      ],
      "stateMutability": "view",
      "type": "function"
    },
    {
      "inputs": [],
      "name": "checkInDate",
      "outputs": [
        {
          "internalType": "uint256",
          "name": "",
          "type": "uint256"
        }
      ],
      "stateMutability": "view",
      "type": "function"
    },
    {
      "inputs": [],
      "name": "checkOutDate",
      "outputs": [
        {
          "internalType": "uint256",
          "name": "",
          "type": "uint256"
        }
      ],
      "stateMutability": "view",
      "type": "function"
    },
    {
      "inputs": [],
      "name": "guest",
      "outputs": [
        {
          "internalType": "address",
          "name": "",
          "type": "address"
        }
      ],
      "stateMutability": "view",
      "type": "function"
    },
    {
      "inputs": [],
      "name": "hotel",
      "outputs": [
        {
          "internalType": "string",
          "name": "",
          "type": "string"
        }
      ],
      "stateMutability": "view",
      "type": "function"
    },
    {
      "inputs": [],
      "name": "isCancelled",
      "outputs": [
        {
          "internalType": "bool",
          "name": "",
          "type": "bool"
        }
      ],
      "stateMutability": "view",
      "type": "function"
    },
    {
      "inputs": [
        {
          "internalType": "address",
          "name": "_caller",
          "type": "address"
        }
      ],
      "name": "cancelBooking",
      "outputs": [],
      "stateMutability": "nonpayable",
      "type": "function"
    }
  ],
  "bytecode": "0x60806040523480156200001157600080fd5b5060405162000d7738038062000d778339818101604052810190620000379190620003b8565b846000806101000a81548173ffffffffffffffffffffffffffffffffffffffff021916908373ffffffffffffffffffffffffffffffffffffffff16021790555083600190805190602001906200008f929190620000cb565b508260028190555081600381905550806004819055506000600560006101000a81548160ff0219169083151502179055505050505050620004c3565b828054620000d9906200048e565b90600052602060002090601f016020900481019282620000fd576000855562000149565b82601f106200011857805160ff191683800117855562000149565b8280016001018555821562000149579182015b82811115620001485782518255916020019190600101906200012b565b5b5090506200015891906200015c565b5090565b5b80821115620001775760008160009055506001016200015d565b5090565b6000604051905090565b600080fd5b600080fd5b600073ffffffffffffffffffffffffffffffffffffffff82169050919050565b6000620001bc826200018f565b9050919050565b620001ce81620001af565b8114620001da57600080fd5b50565b600081519050620001ee81620001c3565b92915050565b600080fd5b600080fd5b6000601f19601f8301169050919050565b7f4e487b7100000000000000000000000000000000000000000000000000000000600052604160045260246000fd5b6200024982620001fe565b810181811067ffffffffffffffff821117156200026b576200026a6200020f565b5b80604052505050565b6000620002806200017b565b90506200028e82826200023e565b919050565b600067ffffffffffffffff821115620002b157620002b06200020f565b5b620002bc82620001fe565b9050602081019050919050565b60005b83811015620002e9578082015181840152602081019050620002cc565b83811115620002f9576000848401525b50505050565b600062000316620003108462000293565b62000274565b905082815260208101848484011115620003355762000334620001f9565b5b62000342848285620002c9565b509392505050565b600082601f830112620003625762000361620001f4565b5b815162000374848260208601620002ff565b91505092915050565b6000819050919050565b62000392816200037d565b81146200039e57600080fd5b50565b600081519050620003b28162000387565b92915050565b600080600080600060a08688031215620003d757620003d662000185565b5b6000620003e788828901620001dd565b955050602086015167ffffffffffffffff8111156200040b576200040a6200018a565b5b62000419888289016200034a565b94505060406200042c88828901620003a1565b93505060606200043f88828901620003a1565b92505060806200045288828901620003a1565b9150509295509295909350565b7f4e487b7100000000000000000000000000000000000000000000000000000000600052602260045260246000fd5b60006002820490506001821680620004a757607f821691505b602082108103620004bd57620004bc6200045f565b5b50919050565b6108a480620004d36000396000f3fe608060405234801561001057600080fd5b506004361061007d5760003560e01c8063823946941161005b57806382394694146100dc57806395ee1221146100f85780639a04f70414610116578063aa8c217c146101345761007d565b80630818a2d61461008257806352f31426146100a057806366481270146100be575b600080fd5b61008a610152565b6040516100979190610538565b60405180910390f35b6100a86101e0565b6040516100b59190610573565b60405180910390f35b6100c66101e6565b6040516100d39190610573565b60405180910390f35b6100f660048036038101906100f191906105f1565b6101ec565b005b610100610458565b60405161010d9190610639565b60405180910390f35b61011e61046b565b60405161012b9190610663565b60405180910390f35b61013c61048f565b6040516101499190610573565b60405180910390f35b6001805461015f906106ad565b80601f016020809104026020016040519081016040528092919081815260200182805461018b906106ad565b80156101d85780601f106101ad576101008083540402835291602001916101d8565b820191906000526020600020905b8154815290600101906020018083116101bb57829003601f168201915b505050505081565b60035481565b60045481565b60008054906101000a900473ffffffffffffffffffffffffffffffffffffffff1673ffffffffffffffffffffffffffffffffffffffff163373ffffffffffffffffffffffffffffffffffffffff161461027a576040517f08c379a000000000000000000000000000000000000000000000000000000000815260040161027190610750565b60405180910390fd5b600560009054906101000a900460ff16156102ca576040517f08c379a00000000000000000000000000000000000000000000000000000000081526004016102c1906107bc565b60405180910390fd5b60008054906101000a900473ffffffffffffffffffffffffffffffffffffffff1673ffffffffffffffffffffffffffffffffffffffff168173ffffffffffffffffffffffffffffffffffffffff1614610358576040517f08c379a000000000000000000000000000000000000000000000000000000000815260040161034f9061084e565b60405180910390fd5b6001600560006101000a81548160ff021916908315150217905550600061037d610495565b905060008054906101000a900473ffffffffffffffffffffffffffffffffffffffff1673ffffffffffffffffffffffffffffffffffffffff166108fc829081150290604051600060405180830381858888f193505050501580156103e5573d6000803e3d6000fd5b5060008054906101000a900473ffffffffffffffffffffffffffffffffffffffff1673ffffffffffffffffffffffffffffffffffffffff167f5cd299de5eeda67273101925bf237bc1f11d5a691d78d173827e51af1a0a720b8260405161044c9190610573565b60405180910390a25050565b600560009054906101000a900460ff1681565b60008054906101000a900473ffffffffffffffffffffffffffffffffffffffff1681565b60025481565b6000600254905090565b600081519050919050565b600082825260208201905092915050565b60005b838110156104d95780820151818401526020810190506104be565b838111156104e8576000848401525b50505050565b6000601f19601f8301169050919050565b600061050a8261049f565b61051481856104aa565b93506105248185602086016104bb565b61052d816104ee565b840191505092915050565b6000602082019050818103600083015261055281846104ff565b905092915050565b6000819050919050565b61056d8161055a565b82525050565b60006020820190506105886000830184610564565b92915050565b600080fd5b600073ffffffffffffffffffffffffffffffffffffffff82169050919050565b60006105be82610593565b9050919050565b6105ce816105b3565b81146105d957600080fd5b50565b6000813590506105eb816105c5565b92915050565b6000602082840312156106075761060661058e565b5b6000610615848285016105dc565b91505092915050565b60008115159050919050565b6106338161061e565b82525050565b600060208201905061064e600083018461062a565b92915050565b61065d816105b3565b82525050565b60006020820190506106786000830184610654565b92915050565b7f4e487b7100000000000000000000000000000000000000000000000000000000600052602260045260246000fd5b600060028204905060018216806106c557607f821691505b6020821081036106d8576106d761067e565b5b50919050565b7f4572726f2c20736f20706f64652073657220666569746f2070656c6f20686f7360008201527f7065646500000000000000000000000000000000000000000000000000000000602082015250565b600061073a6024836104aa565b9150610745826106de565b604082019050919050565b600060208201905081810360008301526107698161072d565b9050919050565b7f52657365727661206a612063616e63656c616461000000000000000000000000600082015250565b60006107a66014836104aa565b91506107b182610770565b602082019050919050565b600060208201905081810360008301526107d581610799565b9050919050565b7f4170656e6173206f20686f737065646520706f64652063616e63656c6172206160008201527f2072657365727661000000000000000000000000000000000000000000000000602082015250565b60006108386028836104aa565b9150610843826107dc565b604082019050919050565b600060208201905081810360008301526108678161082b565b905091905056fea26469706673582212207324b5525bc3702688b3454648cab9ae5ee6cedd3b69bdd6d65afc72a3af05d964736f6c634300080d0033",
  "immutableReferences": {},
  "source": "// SPDX-License-Identifier: MIT\r\npragma solidity ^0.8.0;\r\n\r\ncontract HotelBooking {\r\n    address public guest;\r\n    string public hotel;\r\n    uint256 public amount;\r\n    uint256 public checkInDate;\r\n    uint256 public checkOutDate;\r\n    bool public isCancelled;\r\n\r\n    event BookingCancelled(address indexed guest, uint256 refundAmount);\r\n\r\n    modifier onlyGuest() {\r\n        require(msg.sender == guest, \"Erro, so pode ser feito pelo hospede\");\r\n        _;\r\n    }\r\n\r\n    constructor(address _guest, string memory _hotel, uint256 _amount, uint256 _checkInDate, uint256 _checkOutDate) {\r\n        guest = _guest;\r\n        hotel = _hotel;\r\n        amount = _amount;\r\n        checkInDate = _checkInDate;\r\n        checkOutDate = _checkOutDate;\r\n        isCancelled = false;\r\n    }\r\n\r\n    function cancelBooking(address _caller) public onlyGuest {\r\n        require(!isCancelled, \"Reserva ja cancelada\");\r\n        require(_caller == guest, \"Apenas o hospede pode cancelar a reserva\");\r\n\r\n        isCancelled = true;\r\n        uint256 refundAmount = calculateRefund();\r\n        payable(guest).transfer(refundAmount);\r\n\r\n        emit BookingCancelled(guest, refundAmount);\r\n    }\r\n\r\n    function calculateRefund() internal view returns (uint256) {\r\n        // Logic to calculate refund amount based on cancellation policy\r\n        // For simplicity, assuming full refund here\r\n        return amount;\r\n    }\r\n}\r\n",
  "sourcePath": "C:\\Users\\TorWe\\OneDrive\\Documentos\\GitHub\\cpm-22-bugs\\Projeto - Etheroom\\Web3.js e Truffle - Estudo\\src\\contracts\\HotelBooking.sol",
  "compiler": {
    "name": "solc",
    "version": "0.8.13+commit.abaa5c0e.Emscripten.clang"
  },
  "schemaVersion": "3.4.16",
  "updatedAt": "2024-06-14T21:01:14.995Z",
  "devdoc": {
    "kind": "dev",
    "methods": {},
    "version": 1
  },
  "userdoc": {
    "kind": "user",
    "methods": {},
    "version": 1
  }
}