{
  "contractName": "SimpleCoin",
  "abi": [
    {
      "inputs": [],
      "stateMutability": "nonpayable",
      "type": "constructor"
    },
    {
      "inputs": [
        {
          "internalType": "address",
          "name": "",
          "type": "address"
        }
      ],
      "name": "balanceOf",
      "outputs": [
        {
          "internalType": "uint256",
          "name": "",
          "type": "uint256"
        }
      ],
      "stateMutability": "view",
      "type": "function",
      "constant": true
    },
    {
      "inputs": [],
      "name": "valor",
      "outputs": [
        {
          "internalType": "uint256",
          "name": "",
          "type": "uint256"
        }
      ],
      "stateMutability": "view",
      "type": "function",
      "constant": true
    }
  ],
  "bytecode": "0x60806040526107d060005534801561001657600080fd5b50600054600160003373ffffffffffffffffffffffffffffffffffffffff1673ffffffffffffffffffffffffffffffffffffffff168152602001908152602001600020819055506101a18061006c6000396000f3fe608060405234801561001057600080fd5b50600436106100365760003560e01c806370a082311461003b578063ecbac7cf1461006b575b600080fd5b6100556004803603810190610050919061010a565b610089565b6040516100629190610150565b60405180910390f35b6100736100a1565b6040516100809190610150565b60405180910390f35b60016020528060005260406000206000915090505481565b60005481565b600080fd5b600073ffffffffffffffffffffffffffffffffffffffff82169050919050565b60006100d7826100ac565b9050919050565b6100e7816100cc565b81146100f257600080fd5b50565b600081359050610104816100de565b92915050565b6000602082840312156101205761011f6100a7565b5b600061012e848285016100f5565b91505092915050565b6000819050919050565b61014a81610137565b82525050565b60006020820190506101656000830184610141565b9291505056fea2646970667358221220ec3541da6d78ad9a58b75a067c04bbbc0b510c80be5fa3b5dd3dde1405f998e064736f6c634300080d0033",
  "immutableReferences": {},
  "source": "// SPDX-License-Identifier: MIT\r\npragma solidity^0.8.7;\r\n\r\ncontract SimpleCoin {\r\n\r\n    uint public valor = 2000;\r\n    mapping(address => uint) public balanceOf;\r\n\r\n    //queremos que o valor seja da conta que criou o contrato\r\n\r\n    constructor() {\r\n        balanceOf[msg.sender] = valor;\r\n    }\r\n}",
  "sourcePath": "C:\\Users\\TorWe\\OneDrive\\Documentos\\GitHub\\cpm-22-bugs\\Projeto - Etheroom\\Web3.js e Truffle - Estudo\\src\\contracts\\SimpleCoin.sol",
  "compiler": {
    "name": "solc",
    "version": "0.8.13+commit.abaa5c0e.Emscripten.clang"
  },
  "schemaVersion": "3.4.16",
  "updatedAt": "2024-06-14T21:01:19.775Z",
  "networkType": "ethereum",
  "devdoc": {
    "kind": "dev",
    "methods": {},
    "version": 1
  },
  "userdoc": {
    "kind": "user",
    "methods": {},
    "version": 1
  }
}