{
  "contractName": "SimpleCoin",
  "abi": [
    {
      "inputs": [],
      "name": "valor",
      "outputs": [
        {
          "internalType": "uint256",
          "name": "",
          "type": "uint256"
        }
      ],
      "stateMutability": "view",
      "type": "function"
    }
  ],
  "bytecode": "0x608060405234801561001057600080fd5b5060b38061001f6000396000f3fe6080604052348015600f57600080fd5b506004361060285760003560e01c8063ecbac7cf14602d575b600080fd5b60336047565b604051603e91906064565b60405180910390f35b60005481565b6000819050919050565b605e81604d565b82525050565b6000602082019050607760008301846057565b9291505056fea26469706673582212201da42acb7b5bab1a3b1a41bd3b840c8607c5d67aa591dbbf832502ded676803664736f6c634300080d0033",
  "immutableReferences": {},
  "source": "// SPDX-License-Identifier: MIT\npragma solidity^0.8.7;\n\ncontract SimpleCoin {\n\n    uint public valor;\n}",
  "sourcePath": "C:\\Users\\Usuario\\Documents\\GitHub\\cpm-22-bugs\\Projeto - Etheroom\\Web3.js e Truffle - Estudo\\src\\contracts\\SimpleCoin.sol",
  "compiler": {
    "name": "solc",
    "version": "0.8.13+commit.abaa5c0e.Emscripten.clang"
  },
  "schemaVersion": "3.4.16",
  "updatedAt": "2024-06-07T17:30:21.303Z",
  "devdoc": {
    "kind": "dev",
    "methods": {},
    "version": 1
  },
  "userdoc": {
    "kind": "user",
    "methods": {},
    "version": 1
  }
}