{
  "contractName": "HotelBooking",
  "abi": [
    {
      "inputs": [
        {
          "internalType": "address",
          "name": "_guest",
          "type": "address"
        },
        {
          "internalType": "string",
          "name": "_hotel",
          "type": "string"
        },
        {
          "internalType": "uint256",
          "name": "_amount",
          "type": "uint256"
        },
        {
          "internalType": "string",
          "name": "_checkInDate",
          "type": "string"
        },
        {
          "internalType": "string",
          "name": "_checkOutDate",
          "type": "string"
        },
        {
          "internalType": "uint256",
          "name": "_roomNumber",
          "type": "uint256"
        }
      ],
      "stateMutability": "nonpayable",
      "type": "constructor"
    },
    {
      "anonymous": false,
      "inputs": [
        {
          "indexed": true,
          "internalType": "address",
          "name": "guest",
          "type": "address"
        },
        {
          "indexed": false,
          "internalType": "uint256",
          "name": "refundAmount",
          "type": "uint256"
        }
      ],
      "name": "BookingCancelled",
      "type": "event"
    },
    {
      "inputs": [],
      "name": "amount",
      "outputs": [
        {
          "internalType": "uint256",
          "name": "",
          "type": "uint256"
        }
      ],
      "stateMutability": "view",
      "type": "function"
    },
    {
      "inputs": [],
      "name": "checkInDate",
      "outputs": [
        {
          "internalType": "string",
          "name": "",
          "type": "string"
        }
      ],
      "stateMutability": "view",
      "type": "function"
    },
    {
      "inputs": [],
      "name": "checkOutDate",
      "outputs": [
        {
          "internalType": "string",
          "name": "",
          "type": "string"
        }
      ],
      "stateMutability": "view",
      "type": "function"
    },
    {
      "inputs": [],
      "name": "guest",
      "outputs": [
        {
          "internalType": "address",
          "name": "",
          "type": "address"
        }
      ],
      "stateMutability": "view",
      "type": "function"
    },
    {
      "inputs": [],
      "name": "hotel",
      "outputs": [
        {
          "internalType": "string",
          "name": "",
          "type": "string"
        }
      ],
      "stateMutability": "view",
      "type": "function"
    },
    {
      "inputs": [],
      "name": "isCancelled",
      "outputs": [
        {
          "internalType": "bool",
          "name": "",
          "type": "bool"
        }
      ],
      "stateMutability": "view",
      "type": "function"
    },
    {
      "inputs": [],
      "name": "roomNumber",
      "outputs": [
        {
          "internalType": "uint256",
          "name": "",
          "type": "uint256"
        }
      ],
      "stateMutability": "view",
      "type": "function"
    },
    {
      "inputs": [
        {
          "internalType": "address",
          "name": "_caller",
          "type": "address"
        }
      ],
      "name": "cancelBooking",
      "outputs": [],
      "stateMutability": "nonpayable",
      "type": "function"
    }
  ],
  "bytecode": "0x60806040523480156200001157600080fd5b5060405162000f3438038062000f348339818101604052810190620000379190620003e4565b856000806101000a81548173ffffffffffffffffffffffffffffffffffffffff021916908373ffffffffffffffffffffffffffffffffffffffff16021790555084600190805190602001906200008f929190620000f7565b5083600381905550806002819055508260049080519060200190620000b6929190620000f7565b508160059080519060200190620000cf929190620000f7565b506000600660006101000a81548160ff02191690831515021790555050505050505062000541565b82805462000105906200050c565b90600052602060002090601f01602090048101928262000129576000855562000175565b82601f106200014457805160ff191683800117855562000175565b8280016001018555821562000175579182015b828111156200017457825182559160200191906001019062000157565b5b50905062000184919062000188565b5090565b5b80821115620001a357600081600090555060010162000189565b5090565b6000604051905090565b600080fd5b600080fd5b600073ffffffffffffffffffffffffffffffffffffffff82169050919050565b6000620001e882620001bb565b9050919050565b620001fa81620001db565b81146200020657600080fd5b50565b6000815190506200021a81620001ef565b92915050565b600080fd5b600080fd5b6000601f19601f8301169050919050565b7f4e487b7100000000000000000000000000000000000000000000000000000000600052604160045260246000fd5b62000275826200022a565b810181811067ffffffffffffffff821117156200029757620002966200023b565b5b80604052505050565b6000620002ac620001a7565b9050620002ba82826200026a565b919050565b600067ffffffffffffffff821115620002dd57620002dc6200023b565b5b620002e8826200022a565b9050602081019050919050565b60005b8381101562000315578082015181840152602081019050620002f8565b8381111562000325576000848401525b50505050565b6000620003426200033c84620002bf565b620002a0565b90508281526020810184848401111562000361576200036062000225565b5b6200036e848285620002f5565b509392505050565b600082601f8301126200038e576200038d62000220565b5b8151620003a08482602086016200032b565b91505092915050565b6000819050919050565b620003be81620003a9565b8114620003ca57600080fd5b50565b600081519050620003de81620003b3565b92915050565b60008060008060008060c08789031215620004045762000403620001b1565b5b60006200041489828a0162000209565b965050602087015167ffffffffffffffff811115620004385762000437620001b6565b5b6200044689828a0162000376565b95505060406200045989828a01620003cd565b945050606087015167ffffffffffffffff8111156200047d576200047c620001b6565b5b6200048b89828a0162000376565b935050608087015167ffffffffffffffff811115620004af57620004ae620001b6565b5b620004bd89828a0162000376565b92505060a0620004d089828a01620003cd565b9150509295509295509295565b7f4e487b7100000000000000000000000000000000000000000000000000000000600052602260045260246000fd5b600060028204905060018216806200052557607f821691505b6020821081036200053b576200053a620004dd565b5b50919050565b6109e380620005516000396000f3fe608060405234801561001057600080fd5b50600436106100885760003560e01c806395ee12211161005b57806395ee1221146101035780639a04f70414610121578063aa8c217c1461013f578063d23b96a11461015d57610088565b80630818a2d61461008d57806352f31426146100ab57806366481270146100c957806382394694146100e7575b600080fd5b61009561017b565b6040516100a29190610677565b60405180910390f35b6100b3610209565b6040516100c09190610677565b60405180910390f35b6100d1610297565b6040516100de9190610677565b60405180910390f35b61010160048036038101906100fc91906106fc565b610325565b005b61010b610591565b6040516101189190610744565b60405180910390f35b6101296105a4565b604051610136919061076e565b60405180910390f35b6101476105c8565b60405161015491906107a2565b60405180910390f35b6101656105ce565b60405161017291906107a2565b60405180910390f35b60018054610188906107ec565b80601f01602080910402602001604051908101604052809291908181526020018280546101b4906107ec565b80156102015780601f106101d657610100808354040283529160200191610201565b820191906000526020600020905b8154815290600101906020018083116101e457829003601f168201915b505050505081565b60048054610216906107ec565b80601f0160208091040260200160405190810160405280929190818152602001828054610242906107ec565b801561028f5780601f106102645761010080835404028352916020019161028f565b820191906000526020600020905b81548152906001019060200180831161027257829003601f168201915b505050505081565b600580546102a4906107ec565b80601f01602080910402602001604051908101604052809291908181526020018280546102d0906107ec565b801561031d5780601f106102f25761010080835404028352916020019161031d565b820191906000526020600020905b81548152906001019060200180831161030057829003601f168201915b505050505081565b60008054906101000a900473ffffffffffffffffffffffffffffffffffffffff1673ffffffffffffffffffffffffffffffffffffffff163373ffffffffffffffffffffffffffffffffffffffff16146103b3576040517f08c379a00000000000000000000000000000000000000000000000000000000081526004016103aa9061088f565b60405180910390fd5b600660009054906101000a900460ff1615610403576040517f08c379a00000000000000000000000000000000000000000000000000000000081526004016103fa906108fb565b60405180910390fd5b60008054906101000a900473ffffffffffffffffffffffffffffffffffffffff1673ffffffffffffffffffffffffffffffffffffffff168173ffffffffffffffffffffffffffffffffffffffff1614610491576040517f08c379a00000000000000000000000000000000000000000000000000000000081526004016104889061098d565b60405180910390fd5b6001600660006101000a81548160ff02191690831515021790555060006104b66105d4565b905060008054906101000a900473ffffffffffffffffffffffffffffffffffffffff1673ffffffffffffffffffffffffffffffffffffffff166108fc829081150290604051600060405180830381858888f1935050505015801561051e573d6000803e3d6000fd5b5060008054906101000a900473ffffffffffffffffffffffffffffffffffffffff1673ffffffffffffffffffffffffffffffffffffffff167f5cd299de5eeda67273101925bf237bc1f11d5a691d78d173827e51af1a0a720b8260405161058591906107a2565b60405180910390a25050565b600660009054906101000a900460ff1681565b60008054906101000a900473ffffffffffffffffffffffffffffffffffffffff1681565b60035481565b60025481565b6000600354905090565b600081519050919050565b600082825260208201905092915050565b60005b838110156106185780820151818401526020810190506105fd565b83811115610627576000848401525b50505050565b6000601f19601f8301169050919050565b6000610649826105de565b61065381856105e9565b93506106638185602086016105fa565b61066c8161062d565b840191505092915050565b60006020820190508181036000830152610691818461063e565b905092915050565b600080fd5b600073ffffffffffffffffffffffffffffffffffffffff82169050919050565b60006106c98261069e565b9050919050565b6106d9816106be565b81146106e457600080fd5b50565b6000813590506106f6816106d0565b92915050565b60006020828403121561071257610711610699565b5b6000610720848285016106e7565b91505092915050565b60008115159050919050565b61073e81610729565b82525050565b60006020820190506107596000830184610735565b92915050565b610768816106be565b82525050565b6000602082019050610783600083018461075f565b92915050565b6000819050919050565b61079c81610789565b82525050565b60006020820190506107b76000830184610793565b92915050565b7f4e487b7100000000000000000000000000000000000000000000000000000000600052602260045260246000fd5b6000600282049050600182168061080457607f821691505b602082108103610817576108166107bd565b5b50919050565b7f4572726f2c20736f20706f64652073657220666569746f2070656c6f20686f7360008201527f7065646500000000000000000000000000000000000000000000000000000000602082015250565b60006108796024836105e9565b91506108848261081d565b604082019050919050565b600060208201905081810360008301526108a88161086c565b9050919050565b7f52657365727661206a612063616e63656c616461000000000000000000000000600082015250565b60006108e56014836105e9565b91506108f0826108af565b602082019050919050565b60006020820190508181036000830152610914816108d8565b9050919050565b7f4170656e6173206f20686f737065646520706f64652063616e63656c6172206160008201527f2072657365727661000000000000000000000000000000000000000000000000602082015250565b60006109776028836105e9565b91506109828261091b565b604082019050919050565b600060208201905081810360008301526109a68161096a565b905091905056fea264697066735822122050cbb65c3a9f03a7da3d8cf6f83f0a7d490d4b70ab8950f84b2e3743ae66be8264736f6c634300080d0033",
  "immutableReferences": {},
  "source": "// SPDX-License-Identifier: MIT\r\npragma solidity ^0.8.0;\r\n\r\ncontract HotelBooking {\r\n    address public guest;\r\n    string public hotel;\r\n    uint256 public roomNumber;\r\n    uint256 public amount;\r\n    string public checkInDate;\r\n    string public checkOutDate;\r\n    bool public isCancelled;\r\n\r\n    event BookingCancelled(address indexed guest, uint256 refundAmount);\r\n\r\n    modifier onlyGuest() {\r\n        require(msg.sender == guest, \"Erro, so pode ser feito pelo hospede\");\r\n        _;\r\n    }\r\n\r\n    constructor(address _guest, string memory _hotel, uint256 _amount, string memory _checkInDate, string memory _checkOutDate, uint256 _roomNumber) {\r\n        guest = _guest;\r\n        hotel = _hotel;\r\n        amount = _amount;\r\n        roomNumber = _roomNumber;\r\n        checkInDate = _checkInDate;\r\n        checkOutDate = _checkOutDate;\r\n        isCancelled = false;\r\n    }\r\n\r\n    function cancelBooking(address _caller) public onlyGuest {\r\n        require(!isCancelled, \"Reserva ja cancelada\");\r\n        require(_caller == guest, \"Apenas o hospede pode cancelar a reserva\");\r\n\r\n        isCancelled = true;\r\n        uint256 refundAmount = calculateRefund();\r\n        payable(guest).transfer(refundAmount);\r\n\r\n        emit BookingCancelled(guest, refundAmount);\r\n    }\r\n\r\n    function calculateRefund() internal view returns (uint256) {\r\n        // Lgica para calcular reembolso baseada na poltica de cancelamento\r\n        // Assumindo 100% de reembolso\r\n        return amount;\r\n    }\r\n}\r\n",
  "sourcePath": "C:\\Users\\Usuario\\Documents\\GitHub\\cpm-22-bugs\\etheroom-web\\contracts\\HotelBooking.sol",
  "compiler": {
    "name": "solc",
    "version": "0.8.13+commit.abaa5c0e.Emscripten.clang"
  },
  "schemaVersion": "3.4.16",
  "updatedAt": "2024-07-12T19:02:23.464Z",
  "devdoc": {
    "kind": "dev",
    "methods": {},
    "version": 1
  },
  "userdoc": {
    "kind": "user",
    "methods": {},
    "version": 1
  }
}