{
  "contractName": "HotelBookingManager",
  "abi": [
    {
      "inputs": [],
      "stateMutability": "nonpayable",
      "type": "constructor"
    },
    {
      "anonymous": false,
      "inputs": [
        {
          "indexed": true,
          "internalType": "uint256",
          "name": "bookingId",
          "type": "uint256"
        },
        {
          "indexed": true,
          "internalType": "address",
          "name": "guest",
          "type": "address"
        }
      ],
      "name": "BookingCancelled",
      "type": "event"
    },
    {
      "anonymous": false,
      "inputs": [
        {
          "indexed": true,
          "internalType": "uint256",
          "name": "bookingId",
          "type": "uint256"
        },
        {
          "indexed": false,
          "internalType": "address",
          "name": "bookingContract",
          "type": "address"
        },
        {
          "indexed": true,
          "internalType": "address",
          "name": "guest",
          "type": "address"
        },
        {
          "indexed": false,
          "internalType": "string",
          "name": "hotel",
          "type": "string"
        },
        {
          "indexed": false,
          "internalType": "uint256",
          "name": "amount",
          "type": "uint256"
        },
        {
          "indexed": false,
          "internalType": "uint256",
          "name": "roomNumber",
          "type": "uint256"
        }
      ],
      "name": "BookingCreated",
      "type": "event"
    },
    {
      "anonymous": false,
      "inputs": [
        {
          "indexed": true,
          "internalType": "string",
          "name": "hotel",
          "type": "string"
        },
        {
          "indexed": true,
          "internalType": "uint256",
          "name": "roomNumber",
          "type": "uint256"
        }
      ],
      "name": "RoomLocked",
      "type": "event"
    },
    {
      "anonymous": false,
      "inputs": [
        {
          "indexed": true,
          "internalType": "string",
          "name": "hotel",
          "type": "string"
        },
        {
          "indexed": true,
          "internalType": "uint256",
          "name": "roomNumber",
          "type": "uint256"
        }
      ],
      "name": "RoomUnlocked",
      "type": "event"
    },
    {
      "inputs": [
        {
          "internalType": "uint256",
          "name": "",
          "type": "uint256"
        }
      ],
      "name": "bookingContracts",
      "outputs": [
        {
          "internalType": "address",
          "name": "",
          "type": "address"
        }
      ],
      "stateMutability": "view",
      "type": "function",
      "constant": true
    },
    {
      "inputs": [],
      "name": "bookingCount",
      "outputs": [
        {
          "internalType": "uint256",
          "name": "",
          "type": "uint256"
        }
      ],
      "stateMutability": "view",
      "type": "function",
      "constant": true
    },
    {
      "inputs": [
        {
          "internalType": "uint256",
          "name": "",
          "type": "uint256"
        }
      ],
      "name": "bookings",
      "outputs": [
        {
          "internalType": "address",
          "name": "bookingContract",
          "type": "address"
        },
        {
          "internalType": "address",
          "name": "guest",
          "type": "address"
        },
        {
          "internalType": "string",
          "name": "hotel",
          "type": "string"
        },
        {
          "internalType": "uint256",
          "name": "amount",
          "type": "uint256"
        },
        {
          "internalType": "bool",
          "name": "isActive",
          "type": "bool"
        },
        {
          "internalType": "uint256",
          "name": "roomNumber",
          "type": "uint256"
        }
      ],
      "stateMutability": "view",
      "type": "function",
      "constant": true
    },
    {
      "inputs": [],
      "name": "owner",
      "outputs": [
        {
          "internalType": "address",
          "name": "",
          "type": "address"
        }
      ],
      "stateMutability": "view",
      "type": "function",
      "constant": true
    },
    {
      "inputs": [
        {
          "internalType": "string",
          "name": "",
          "type": "string"
        },
        {
          "internalType": "uint256",
          "name": "",
          "type": "uint256"
        }
      ],
      "name": "roomLocked",
      "outputs": [
        {
          "internalType": "bool",
          "name": "",
          "type": "bool"
        }
      ],
      "stateMutability": "view",
      "type": "function",
      "constant": true
    },
    {
      "inputs": [
        {
          "internalType": "string",
          "name": "_hotel",
          "type": "string"
        },
        {
          "internalType": "uint256",
          "name": "_amount",
          "type": "uint256"
        },
        {
          "internalType": "string",
          "name": "_checkInDate",
          "type": "string"
        },
        {
          "internalType": "string",
          "name": "_checkOutDate",
          "type": "string"
        },
        {
          "internalType": "uint256",
          "name": "_roomNumber",
          "type": "uint256"
        },
        {
          "internalType": "address payable",
          "name": "_hotelAddress",
          "type": "address"
        }
      ],
      "name": "createBooking",
      "outputs": [],
      "stateMutability": "payable",
      "type": "function",
      "payable": true
    },
    {
      "inputs": [
        {
          "internalType": "uint256",
          "name": "_bookingId",
          "type": "uint256"
        }
      ],
      "name": "cancelBooking",
      "outputs": [],
      "stateMutability": "nonpayable",
      "type": "function"
    },
    {
      "inputs": [
        {
          "internalType": "uint256",
          "name": "_bookingId",
          "type": "uint256"
        }
      ],
      "name": "getBooking",
      "outputs": [
        {
          "components": [
            {
              "internalType": "address",
              "name": "bookingContract",
              "type": "address"
            },
            {
              "internalType": "address",
              "name": "guest",
              "type": "address"
            },
            {
              "internalType": "string",
              "name": "hotel",
              "type": "string"
            },
            {
              "internalType": "uint256",
              "name": "amount",
              "type": "uint256"
            },
            {
              "internalType": "bool",
              "name": "isActive",
              "type": "bool"
            },
            {
              "internalType": "uint256",
              "name": "roomNumber",
              "type": "uint256"
            }
          ],
          "internalType": "struct HotelBookingManager.BookingInfo",
          "name": "",
          "type": "tuple"
        }
      ],
      "stateMutability": "view",
      "type": "function",
      "constant": true
    },
    {
      "inputs": [],
      "name": "getBookingContracts",
      "outputs": [
        {
          "internalType": "address[]",
          "name": "",
          "type": "address[]"
        }
      ],
      "stateMutability": "view",
      "type": "function",
      "constant": true
    },
    {
      "inputs": [],
      "name": "getActiveBookings",
      "outputs": [
        {
          "components": [
            {
              "internalType": "address",
              "name": "bookingContract",
              "type": "address"
            },
            {
              "internalType": "address",
              "name": "guest",
              "type": "address"
            },
            {
              "internalType": "string",
              "name": "hotel",
              "type": "string"
            },
            {
              "internalType": "uint256",
              "name": "amount",
              "type": "uint256"
            },
            {
              "internalType": "bool",
              "name": "isActive",
              "type": "bool"
            },
            {
              "internalType": "uint256",
              "name": "roomNumber",
              "type": "uint256"
            }
          ],
          "internalType": "struct HotelBookingManager.BookingInfo[]",
          "name": "",
          "type": "tuple[]"
        }
      ],
      "stateMutability": "view",
      "type": "function",
      "constant": true
    },
    {
      "inputs": [
        {
          "internalType": "address",
          "name": "_user",
          "type": "address"
        }
      ],
      "name": "getBookingsByUser",
      "outputs": [
        {
          "components": [
            {
              "internalType": "address",
              "name": "bookingContract",
              "type": "address"
            },
            {
              "internalType": "address",
              "name": "guest",
              "type": "address"
            },
            {
              "internalType": "string",
              "name": "hotel",
              "type": "string"
            },
            {
              "internalType": "uint256",
              "name": "amount",
              "type": "uint256"
            },
            {
              "internalType": "bool",
              "name": "isActive",
              "type": "bool"
            },
            {
              "internalType": "uint256",
              "name": "roomNumber",
              "type": "uint256"
            }
          ],
          "internalType": "struct HotelBookingManager.BookingInfo[]",
          "name": "",
          "type": "tuple[]"
        }
      ],
      "stateMutability": "view",
      "type": "function",
      "constant": true
    },
    {
      "inputs": [
        {
          "internalType": "string",
          "name": "_hotel",
          "type": "string"
        },
        {
          "internalType": "uint256",
          "name": "_roomNumber",
          "type": "uint256"
        }
      ],
      "name": "isRoomLocked",
      "outputs": [
        {
          "internalType": "bool",
          "name": "",
          "type": "bool"
        }
      ],
      "stateMutability": "view",
      "type": "function",
      "constant": true
    },
    {
      "inputs": [
        {
          "internalType": "string",
          "name": "_hotel",
          "type": "string"
        },
        {
          "internalType": "uint256",
          "name": "_roomNumber",
          "type": "uint256"
        }
      ],
      "name": "lockRoom",
      "outputs": [],
      "stateMutability": "nonpayable",
      "type": "function"
    },
    {
      "inputs": [
        {
          "internalType": "string",
          "name": "_hotel",
          "type": "string"
        },
        {
          "internalType": "uint256",
          "name": "_roomNumber",
          "type": "uint256"
        }
      ],
      "name": "unlockRoom",
      "outputs": [],
      "stateMutability": "nonpayable",
      "type": "function"
    }
  ],
  "bytecode": "0x6080604052600060015534801561001557600080fd5b50336000806101000a81548173ffffffffffffffffffffffffffffffffffffffff021916908373ffffffffffffffffffffffffffffffffffffffff16021790555061416b806100656000396000f3fe608060405260043610620000f25760003560e01c8063881e71b9116200008b578063a1ac96001162000061578063a1ac9600146200032e578063aace84eb1462000372578063c371238814620003a0578063cbe3499614620003ce57620000f2565b8063881e71b914620002ae578063890344f314620002de5780638da5cb5b14620002fe57620000f2565b8063670ce52e11620000cd578063670ce52e14620001b25780636a5c841a14620001f65780636d759172146200023a578063765ccc9c146200026a57620000f2565b80630dca825e14620000f75780631dab301e146200012557806358353728146200016e575b600080fd5b3480156200010457600080fd5b506200012360048036038101906200011d919062001778565b620003fe565b005b3480156200013257600080fd5b506200015160048036038101906200014b919062001778565b6200064d565b6040516200016596959493929190620018c1565b60405180910390f35b3480156200017b57600080fd5b506200019a600480360381019062000194919062001a86565b62000766565b604051620001a9919062001aec565b60405180910390f35b348015620001bf57600080fd5b50620001de6004803603810190620001d8919062001a86565b620007ab565b604051620001ed919062001aec565b60405180910390f35b3480156200020357600080fd5b506200022260048036038101906200021c919062001778565b620007f4565b60405162000231919062001c23565b60405180910390f35b3480156200024757600080fd5b506200025262000998565b60405162000261919062001c47565b60405180910390f35b3480156200027757600080fd5b5062000296600480360381019062000290919062001778565b6200099e565b604051620002a5919062001c64565b60405180910390f35b348015620002bb57600080fd5b50620002c6620009de565b604051620002d5919062001d3e565b60405180910390f35b620002fc6004803603810190620002f6919062001da7565b62000a6e565b005b3480156200030b57600080fd5b506200031662000d6c565b60405162000325919062001c64565b60405180910390f35b3480156200033b57600080fd5b506200035a600480360381019062000354919062001ed1565b62000d90565b60405162000369919062002068565b60405180910390f35b3480156200037f57600080fd5b506200039e600480360381019062000398919062001a86565b620010f8565b005b348015620003ad57600080fd5b50620003cc6004803603810190620003c6919062001a86565b6200120c565b005b348015620003db57600080fd5b50620003e662001321565b604051620003f5919062002068565b60405180910390f35b60006003600083815260200190815260200160002090508060040160009054906101000a900460ff1662000469576040517f08c379a00000000000000000000000000000000000000000000000000000000081526004016200046090620020dc565b60405180910390fd5b8060010160009054906101000a900473ffffffffffffffffffffffffffffffffffffffff1673ffffffffffffffffffffffffffffffffffffffff163373ffffffffffffffffffffffffffffffffffffffff16148062000513575060008054906101000a900473ffffffffffffffffffffffffffffffffffffffff1673ffffffffffffffffffffffffffffffffffffffff163373ffffffffffffffffffffffffffffffffffffffff16145b62000555576040517f08c379a00000000000000000000000000000000000000000000000000000000081526004016200054c906200214e565b60405180910390fd5b8060000160009054906101000a900473ffffffffffffffffffffffffffffffffffffffff1673ffffffffffffffffffffffffffffffffffffffff166382394694336040518263ffffffff1660e01b8152600401620005b4919062001c64565b600060405180830381600087803b158015620005cf57600080fd5b505af1158015620005e4573d6000803e3d6000fd5b5050505060008160040160006101000a81548160ff0219169083151502179055503373ffffffffffffffffffffffffffffffffffffffff16827f405ffc42ca8bb68e3a98a64aa11cec9f085da8d5fab0e36c73abff99bad8cdc960405160405180910390a35050565b60036020528060005260406000206000915090508060000160009054906101000a900473ffffffffffffffffffffffffffffffffffffffff16908060010160009054906101000a900473ffffffffffffffffffffffffffffffffffffffff1690806002018054620006be906200219f565b80601f0160208091040260200160405190810160405280929190818152602001828054620006ec906200219f565b80156200073d5780601f1062000711576101008083540402835291602001916200073d565b820191906000526020600020905b8154815290600101906020018083116200071f57829003601f168201915b5050505050908060030154908060040160009054906101000a900460ff16908060050154905086565b6004828051602081018201805184825260208301602085012081835280955050505050506020528060005260406000206000915091509054906101000a900460ff1681565b6000600483604051620007bf919062002216565b9081526020016040518091039020600083815260200190815260200160002060009054906101000a900460ff16905092915050565b620007fe62001607565b600360008381526020019081526020016000206040518060c00160405290816000820160009054906101000a900473ffffffffffffffffffffffffffffffffffffffff1673ffffffffffffffffffffffffffffffffffffffff1673ffffffffffffffffffffffffffffffffffffffff1681526020016001820160009054906101000a900473ffffffffffffffffffffffffffffffffffffffff1673ffffffffffffffffffffffffffffffffffffffff1673ffffffffffffffffffffffffffffffffffffffff168152602001600282018054620008da906200219f565b80601f016020809104026020016040519081016040528092919081815260200182805462000908906200219f565b8015620009595780601f106200092d5761010080835404028352916020019162000959565b820191906000526020600020905b8154815290600101906020018083116200093b57829003601f168201915b50505050508152602001600382015481526020016004820160009054906101000a900460ff161515151581526020016005820154815250509050919050565b60015481565b60028181548110620009af57600080fd5b906000526020600020016000915054906101000a900473ffffffffffffffffffffffffffffffffffffffff1681565b6060600280548060200260200160405190810160405280929190818152602001828054801562000a6457602002820191906000526020600020905b8160009054906101000a900473ffffffffffffffffffffffffffffffffffffffff1673ffffffffffffffffffffffffffffffffffffffff168152602001906001019080831162000a19575b5050505050905090565b84341462000ab3576040517f08c379a000000000000000000000000000000000000000000000000000000000815260040162000aaa906200227f565b60405180910390fd5b6000343388888888888860405162000acb906200166b565b62000add9796959493929190620022b2565b6040518091039082f09050801562000af25760015b62000b34576040517f08c379a000000000000000000000000000000000000000000000000000000000815260040162000b2b90620023ba565b60405180910390fd5b809150506001600081548092919062000b4d906200240b565b91905055506040518060c001604052808273ffffffffffffffffffffffffffffffffffffffff1681526020013373ffffffffffffffffffffffffffffffffffffffff1681526020018881526020018781526020016001151581526020018481525060036000600154815260200190815260200160002060008201518160000160006101000a81548173ffffffffffffffffffffffffffffffffffffffff021916908373ffffffffffffffffffffffffffffffffffffffff16021790555060208201518160010160006101000a81548173ffffffffffffffffffffffffffffffffffffffff021916908373ffffffffffffffffffffffffffffffffffffffff160217905550604082015181600201908051906020019062000c6f92919062001679565b506060820151816003015560808201518160040160006101000a81548160ff02191690831515021790555060a082015181600501559050506002819080600181540180825580915050600190039060005260206000200160009091909190916101000a81548173ffffffffffffffffffffffffffffffffffffffff021916908373ffffffffffffffffffffffffffffffffffffffff1602179055503373ffffffffffffffffffffffffffffffffffffffff166001547f640fd42440531d7961248ae2b1aeb1ab067c1397e30d24699caf57b1823eaf47838a8a8860405162000d5b949392919062002458565b60405180910390a350505050505050565b60008054906101000a900473ffffffffffffffffffffffffffffffffffffffff1681565b6060600080600190505b600154811162000e35578373ffffffffffffffffffffffffffffffffffffffff166003600083815260200190815260200160002060010160009054906101000a900473ffffffffffffffffffffffffffffffffffffffff1673ffffffffffffffffffffffffffffffffffffffff160362000e1f57818062000e1b906200240b565b9250505b808062000e2c906200240b565b91505062000d9a565b5060008167ffffffffffffffff81111562000e555762000e546200193f565b5b60405190808252806020026020018201604052801562000e9257816020015b62000e7e62001607565b81526020019060019003908162000e745790505b509050600080600190505b6001548111620010ec578573ffffffffffffffffffffffffffffffffffffffff166003600083815260200190815260200160002060010160009054906101000a900473ffffffffffffffffffffffffffffffffffffffff1673ffffffffffffffffffffffffffffffffffffffff1603620010d657600360008281526020019081526020016000206040518060c00160405290816000820160009054906101000a900473ffffffffffffffffffffffffffffffffffffffff1673ffffffffffffffffffffffffffffffffffffffff1673ffffffffffffffffffffffffffffffffffffffff1681526020016001820160009054906101000a900473ffffffffffffffffffffffffffffffffffffffff1673ffffffffffffffffffffffffffffffffffffffff1673ffffffffffffffffffffffffffffffffffffffff16815260200160028201805462000fed906200219f565b80601f01602080910402602001604051908101604052809291908181526020018280546200101b906200219f565b80156200106c5780601f1062001040576101008083540402835291602001916200106c565b820191906000526020600020905b8154815290600101906020018083116200104e57829003601f168201915b50505050508152602001600382015481526020016004820160009054906101000a900460ff16151515158152602001600582015481525050838381518110620010ba57620010b9620024ac565b5b60200260200101819052508180620010d2906200240b565b9250505b8080620010e3906200240b565b91505062000e9d565b50819350505050919050565b6004826040516200110a919062002216565b9081526020016040518091039020600082815260200190815260200160002060009054906101000a900460ff1662001179576040517f08c379a000000000000000000000000000000000000000000000000000000000815260040162001170906200252b565b60405180910390fd5b60006004836040516200118d919062002216565b9081526020016040518091039020600083815260200190815260200160002060006101000a81548160ff0219169083151502179055508082604051620011d4919062002216565b60405180910390207fa5bde2ed8a9704fc61065388385e1fbebf49c11341a1cf518ff566aca8dd487060405160405180910390a35050565b6004826040516200121e919062002216565b9081526020016040518091039020600082815260200190815260200160002060009054906101000a900460ff16156200128e576040517f08c379a000000000000000000000000000000000000000000000000000000000815260040162001285906200259d565b60405180910390fd5b6001600483604051620012a2919062002216565b9081526020016040518091039020600083815260200190815260200160002060006101000a81548160ff0219169083151502179055508082604051620012e9919062002216565b60405180910390207f7ebffa6c0114b84f9f43aa513e1f9e959ad9e82aa2fdcd1c0d2352d1cf89dec260405160405180910390a35050565b6060600080600190505b600154811162001386576003600082815260200190815260200160002060040160009054906101000a900460ff1615620013705781806200136c906200240b565b9250505b80806200137d906200240b565b9150506200132b565b5060008167ffffffffffffffff811115620013a657620013a56200193f565b5b604051908082528060200260200182016040528015620013e357816020015b620013cf62001607565b815260200190600190039081620013c55790505b509050600080600190505b6001548111620015fd576003600082815260200190815260200160002060040160009054906101000a900460ff1615620015e757600360008281526020019081526020016000206040518060c00160405290816000820160009054906101000a900473ffffffffffffffffffffffffffffffffffffffff1673ffffffffffffffffffffffffffffffffffffffff1673ffffffffffffffffffffffffffffffffffffffff1681526020016001820160009054906101000a900473ffffffffffffffffffffffffffffffffffffffff1673ffffffffffffffffffffffffffffffffffffffff1673ffffffffffffffffffffffffffffffffffffffff168152602001600282018054620014fe906200219f565b80601f01602080910402602001604051908101604052809291908181526020018280546200152c906200219f565b80156200157d5780601f1062001551576101008083540402835291602001916200157d565b820191906000526020600020905b8154815290600101906020018083116200155f57829003601f168201915b50505050508152602001600382015481526020016004820160009054906101000a900460ff16151515158152602001600582015481525050838381518110620015cb57620015ca620024ac565b5b60200260200101819052508180620015e3906200240b565b9250505b8080620015f4906200240b565b915050620013ee565b5081935050505090565b6040518060c00160405280600073ffffffffffffffffffffffffffffffffffffffff168152602001600073ffffffffffffffffffffffffffffffffffffffff1681526020016060815260200160008152602001600015158152602001600081525090565b611b7680620025c083390190565b82805462001687906200219f565b90600052602060002090601f016020900481019282620016ab5760008555620016f7565b82601f10620016c657805160ff1916838001178555620016f7565b82800160010185558215620016f7579182015b82811115620016f6578251825591602001919060010190620016d9565b5b5090506200170691906200170a565b5090565b5b80821115620017255760008160009055506001016200170b565b5090565b6000604051905090565b600080fd5b600080fd5b6000819050919050565b62001752816200173d565b81146200175e57600080fd5b50565b600081359050620017728162001747565b92915050565b60006020828403121562001791576200179062001733565b5b6000620017a18482850162001761565b91505092915050565b600073ffffffffffffffffffffffffffffffffffffffff82169050919050565b6000620017d782620017aa565b9050919050565b620017e981620017ca565b82525050565b600081519050919050565b600082825260208201905092915050565b60005b838110156200182b5780820151818401526020810190506200180e565b838111156200183b576000848401525b50505050565b6000601f19601f8301169050919050565b60006200185f82620017ef565b6200186b8185620017fa565b93506200187d8185602086016200180b565b620018888162001841565b840191505092915050565b6200189e816200173d565b82525050565b60008115159050919050565b620018bb81620018a4565b82525050565b600060c082019050620018d86000830189620017de565b620018e76020830188620017de565b8181036040830152620018fb818762001852565b90506200190c606083018662001893565b6200191b6080830185620018b0565b6200192a60a083018462001893565b979650505050505050565b600080fd5b600080fd5b7f4e487b7100000000000000000000000000000000000000000000000000000000600052604160045260246000fd5b620019798262001841565b810181811067ffffffffffffffff821117156200199b576200199a6200193f565b5b80604052505050565b6000620019b062001729565b9050620019be82826200196e565b919050565b600067ffffffffffffffff821115620019e157620019e06200193f565b5b620019ec8262001841565b9050602081019050919050565b82818337600083830152505050565b600062001a1f62001a1984620019c3565b620019a4565b90508281526020810184848401111562001a3e5762001a3d6200193a565b5b62001a4b848285620019f9565b509392505050565b600082601f83011262001a6b5762001a6a62001935565b5b813562001a7d84826020860162001a08565b91505092915050565b6000806040838503121562001aa05762001a9f62001733565b5b600083013567ffffffffffffffff81111562001ac15762001ac062001738565b5b62001acf8582860162001a53565b925050602062001ae28582860162001761565b9150509250929050565b600060208201905062001b036000830184620018b0565b92915050565b62001b1481620017ca565b82525050565b600082825260208201905092915050565b600062001b3882620017ef565b62001b44818562001b1a565b935062001b568185602086016200180b565b62001b618162001841565b840191505092915050565b62001b77816200173d565b82525050565b62001b8881620018a4565b82525050565b600060c08301600083015162001ba8600086018262001b09565b50602083015162001bbd602086018262001b09565b506040830151848203604086015262001bd7828262001b2b565b915050606083015162001bee606086018262001b6c565b50608083015162001c03608086018262001b7d565b5060a083015162001c1860a086018262001b6c565b508091505092915050565b6000602082019050818103600083015262001c3f818462001b8e565b905092915050565b600060208201905062001c5e600083018462001893565b92915050565b600060208201905062001c7b6000830184620017de565b92915050565b600081519050919050565b600082825260208201905092915050565b6000819050602082019050919050565b600062001cbb838362001b09565b60208301905092915050565b6000602082019050919050565b600062001ce18262001c81565b62001ced818562001c8c565b935062001cfa8362001c9d565b8060005b8381101562001d3157815162001d15888262001cad565b975062001d228362001cc7565b92505060018101905062001cfe565b5085935050505092915050565b6000602082019050818103600083015262001d5a818462001cd4565b905092915050565b600062001d6f82620017aa565b9050919050565b62001d818162001d62565b811462001d8d57600080fd5b50565b60008135905062001da18162001d76565b92915050565b60008060008060008060c0878903121562001dc75762001dc662001733565b5b600087013567ffffffffffffffff81111562001de85762001de762001738565b5b62001df689828a0162001a53565b965050602062001e0989828a0162001761565b955050604087013567ffffffffffffffff81111562001e2d5762001e2c62001738565b5b62001e3b89828a0162001a53565b945050606087013567ffffffffffffffff81111562001e5f5762001e5e62001738565b5b62001e6d89828a0162001a53565b935050608062001e8089828a0162001761565b92505060a062001e9389828a0162001d90565b9150509295509295509295565b62001eab81620017ca565b811462001eb757600080fd5b50565b60008135905062001ecb8162001ea0565b92915050565b60006020828403121562001eea5762001ee962001733565b5b600062001efa8482850162001eba565b91505092915050565b600081519050919050565b600082825260208201905092915050565b6000819050602082019050919050565b600060c08301600083015162001f49600086018262001b09565b50602083015162001f5e602086018262001b09565b506040830151848203604086015262001f78828262001b2b565b915050606083015162001f8f606086018262001b6c565b50608083015162001fa4608086018262001b7d565b5060a083015162001fb960a086018262001b6c565b508091505092915050565b600062001fd2838362001f2f565b905092915050565b6000602082019050919050565b600062001ff48262001f03565b62002000818562001f0e565b935083602082028501620020148562001f1f565b8060005b8581101562002056578484038952815162002034858262001fc4565b9450620020418362001fda565b925060208a0199505060018101905062002018565b50829750879550505050505092915050565b6000602082019050818103600083015262002084818462001fe7565b905092915050565b7f52657365727661206a612063616e63656c616461000000000000000000000000600082015250565b6000620020c4601483620017fa565b9150620020d1826200208c565b602082019050919050565b60006020820190508181036000830152620020f781620020b5565b9050919050565b7f4e616f206175746f72697a61646f000000000000000000000000000000000000600082015250565b600062002136600e83620017fa565b91506200214382620020fe565b602082019050919050565b60006020820190508181036000830152620021698162002127565b9050919050565b7f4e487b7100000000000000000000000000000000000000000000000000000000600052602260045260246000fd5b60006002820490506001821680620021b857607f821691505b602082108103620021ce57620021cd62002170565b5b50919050565b600081905092915050565b6000620021ec82620017ef565b620021f88185620021d4565b93506200220a8185602086016200180b565b80840191505092915050565b6000620022248284620021df565b915081905092915050565b7f56616c6f7220646520706167616d656e746f20696e636f727265746f00000000600082015250565b600062002267601c83620017fa565b915062002274826200222f565b602082019050919050565b600060208201905081810360008301526200229a8162002258565b9050919050565b620022ac8162001d62565b82525050565b600060e082019050620022c9600083018a620017de565b8181036020830152620022dd818962001852565b9050620022ee604083018862001893565b818103606083015262002302818762001852565b9050818103608083015262002318818662001852565b90506200232960a083018562001893565b6200233860c0830184620022a1565b98975050505050505050565b7f46616c686120616f20637269617220636f6e747261746f20646520726573657260008201527f7661000000000000000000000000000000000000000000000000000000000000602082015250565b6000620023a2602283620017fa565b9150620023af8262002344565b604082019050919050565b60006020820190508181036000830152620023d58162002393565b9050919050565b7f4e487b7100000000000000000000000000000000000000000000000000000000600052601160045260246000fd5b600062002418826200173d565b91507fffffffffffffffffffffffffffffffffffffffffffffffffffffffffffffffff82036200244d576200244c620023dc565b5b600182019050919050565b60006080820190506200246f6000830187620017de565b818103602083015262002483818662001852565b905062002494604083018562001893565b620024a3606083018462001893565b95945050505050565b7f4e487b7100000000000000000000000000000000000000000000000000000000600052603260045260246000fd5b7f51756172746f206e616f206573746120626c6f71756561646f00000000000000600082015250565b600062002513601983620017fa565b91506200252082620024db565b602082019050919050565b60006020820190508181036000830152620025468162002504565b9050919050565b7f51756172746f206a61206573746120626c6f71756561646f0000000000000000600082015250565b600062002585601883620017fa565b915062002592826200254d565b602082019050919050565b60006020820190508181036000830152620025b88162002576565b905091905056fe608060405260405162001b7638038062001b7683398181016040528101906200002991906200045d565b866000806101000a81548173ffffffffffffffffffffffffffffffffffffffff021916908373ffffffffffffffffffffffffffffffffffffffff1602179055508560019080519060200190620000819291906200012b565b5084600381905550816002819055508360049080519060200190620000a89291906200012b565b508260059080519060200190620000c19291906200012b565b506000600660006101000a81548160ff02191690831515021790555080600660016101000a81548173ffffffffffffffffffffffffffffffffffffffff021916908373ffffffffffffffffffffffffffffffffffffffff16021790555050505050505050620005d1565b82805462000139906200059c565b90600052602060002090601f0160209004810192826200015d5760008555620001a9565b82601f106200017857805160ff1916838001178555620001a9565b82800160010185558215620001a9579182015b82811115620001a85782518255916020019190600101906200018b565b5b509050620001b89190620001bc565b5090565b5b80821115620001d7576000816000905550600101620001bd565b5090565b6000604051905090565b600080fd5b600080fd5b600073ffffffffffffffffffffffffffffffffffffffff82169050919050565b60006200021c82620001ef565b9050919050565b6200022e816200020f565b81146200023a57600080fd5b50565b6000815190506200024e8162000223565b92915050565b600080fd5b600080fd5b6000601f19601f8301169050919050565b7f4e487b7100000000000000000000000000000000000000000000000000000000600052604160045260246000fd5b620002a9826200025e565b810181811067ffffffffffffffff82111715620002cb57620002ca6200026f565b5b80604052505050565b6000620002e0620001db565b9050620002ee82826200029e565b919050565b600067ffffffffffffffff8211156200031157620003106200026f565b5b6200031c826200025e565b9050602081019050919050565b60005b83811015620003495780820151818401526020810190506200032c565b8381111562000359576000848401525b50505050565b6000620003766200037084620002f3565b620002d4565b90508281526020810184848401111562000395576200039462000259565b5b620003a284828562000329565b509392505050565b600082601f830112620003c257620003c162000254565b5b8151620003d48482602086016200035f565b91505092915050565b6000819050919050565b620003f281620003dd565b8114620003fe57600080fd5b50565b6000815190506200041281620003e7565b92915050565b60006200042582620001ef565b9050919050565b620004378162000418565b81146200044357600080fd5b50565b60008151905062000457816200042c565b92915050565b600080600080600080600060e0888a0312156200047f576200047e620001e5565b5b60006200048f8a828b016200023d565b975050602088015167ffffffffffffffff811115620004b357620004b2620001ea565b5b620004c18a828b01620003aa565b9650506040620004d48a828b0162000401565b955050606088015167ffffffffffffffff811115620004f857620004f7620001ea565b5b620005068a828b01620003aa565b945050608088015167ffffffffffffffff8111156200052a5762000529620001ea565b5b620005388a828b01620003aa565b93505060a06200054b8a828b0162000401565b92505060c06200055e8a828b0162000446565b91505092959891949750929550565b7f4e487b7100000000000000000000000000000000000000000000000000000000600052602260045260246000fd5b60006002820490506001821680620005b557607f821691505b602082108103620005cb57620005ca6200056d565b5b50919050565b61159580620005e16000396000f3fe608060405234801561001057600080fd5b50600436106101165760003560e01c806395ee1221116100a2578063c3d4847f11610071578063c3d4847f1461029d578063d23b96a1146102bb578063d321fe29146102d9578063dab78713146102f7578063fb61bda11461031b57610116565b806395ee1221146102275780639a04f70414610245578063aa8c217c14610263578063b73c2a1a1461028157610116565b80636354b07f116100e95780636354b07f1461019357806366481270146101b15780637897fc7f146101cf57806382394694146101ed578063922c5eb31461020957610116565b80630818a2d61461011b57806352f31426146101395780635ec1990714610157578063624c905214610175575b600080fd5b610123610339565b6040516101309190610e72565b60405180910390f35b6101416103c7565b60405161014e9190610e72565b60405180910390f35b61015f610455565b60405161016c9190610eaf565b60405180910390f35b61017d61046c565b60405161018a9190610f0b565b60405180910390f35b61019b610492565b6040516101a89190610e72565b60405180910390f35b6101b9610524565b6040516101c69190610e72565b60405180910390f35b6101d76105b2565b6040516101e49190610e72565b60405180910390f35b61020760048036038101906102029190610f78565b610644565b005b6102116108b0565b60405161021e9190610e72565b60405180910390f35b61022f610942565b60405161023c9190610eaf565b60405180910390f35b61024d610955565b60405161025a9190610fb4565b60405180910390f35b61026b610979565b6040516102789190610fe8565b60405180910390f35b61029b60048036038101906102969190611138565b61097f565b005b6102a5610b2e565b6040516102b29190610fb4565b60405180910390f35b6102c3610b57565b6040516102d09190610fe8565b60405180910390f35b6102e1610b5d565b6040516102ee9190610fe8565b60405180910390f35b6102ff610b67565b6040516103129796959493929190611181565b60405180910390f35b610323610d6c565b6040516103309190610fe8565b60405180910390f35b6001805461034690611234565b80601f016020809104026020016040519081016040528092919081815260200182805461037290611234565b80156103bf5780601f10610394576101008083540402835291602001916103bf565b820191906000526020600020905b8154815290600101906020018083116103a257829003601f168201915b505050505081565b600480546103d490611234565b80601f016020809104026020016040519081016040528092919081815260200182805461040090611234565b801561044d5780601f106104225761010080835404028352916020019161044d565b820191906000526020600020905b81548152906001019060200180831161043057829003601f168201915b505050505081565b6000600660009054906101000a900460ff16905090565b600660019054906101000a900473ffffffffffffffffffffffffffffffffffffffff1681565b6060600480546104a190611234565b80601f01602080910402602001604051908101604052809291908181526020018280546104cd90611234565b801561051a5780601f106104ef5761010080835404028352916020019161051a565b820191906000526020600020905b8154815290600101906020018083116104fd57829003601f168201915b5050505050905090565b6005805461053190611234565b80601f016020809104026020016040519081016040528092919081815260200182805461055d90611234565b80156105aa5780601f1061057f576101008083540402835291602001916105aa565b820191906000526020600020905b81548152906001019060200180831161058d57829003601f168201915b505050505081565b6060600580546105c190611234565b80601f01602080910402602001604051908101604052809291908181526020018280546105ed90611234565b801561063a5780601f1061060f5761010080835404028352916020019161063a565b820191906000526020600020905b81548152906001019060200180831161061d57829003601f168201915b5050505050905090565b60008054906101000a900473ffffffffffffffffffffffffffffffffffffffff1673ffffffffffffffffffffffffffffffffffffffff163373ffffffffffffffffffffffffffffffffffffffff16146106d2576040517f08c379a00000000000000000000000000000000000000000000000000000000081526004016106c9906112d7565b60405180910390fd5b600660009054906101000a900460ff1615610722576040517f08c379a000000000000000000000000000000000000000000000000000000000815260040161071990611343565b60405180910390fd5b60008054906101000a900473ffffffffffffffffffffffffffffffffffffffff1673ffffffffffffffffffffffffffffffffffffffff168173ffffffffffffffffffffffffffffffffffffffff16146107b0576040517f08c379a00000000000000000000000000000000000000000000000000000000081526004016107a7906113d5565b60405180910390fd5b6001600660006101000a81548160ff02191690831515021790555060006107d5610d76565b905060008054906101000a900473ffffffffffffffffffffffffffffffffffffffff1673ffffffffffffffffffffffffffffffffffffffff166108fc829081150290604051600060405180830381858888f1935050505015801561083d573d6000803e3d6000fd5b5060008054906101000a900473ffffffffffffffffffffffffffffffffffffffff1673ffffffffffffffffffffffffffffffffffffffff167f5cd299de5eeda67273101925bf237bc1f11d5a691d78d173827e51af1a0a720b826040516108a49190610fe8565b60405180910390a25050565b6060600180546108bf90611234565b80601f01602080910402602001604051908101604052809291908181526020018280546108eb90611234565b80156109385780601f1061090d57610100808354040283529160200191610938565b820191906000526020600020905b81548152906001019060200180831161091b57829003601f168201915b5050505050905090565b600660009054906101000a900460ff1681565b60008054906101000a900473ffffffffffffffffffffffffffffffffffffffff1681565b60035481565b600660009054906101000a900460ff16156109cf576040517f08c379a00000000000000000000000000000000000000000000000000000000081526004016109c690611343565b60405180910390fd5b6109d881610d80565b610a17576040517f08c379a0000000000000000000000000000000000000000000000000000000008152600401610a0e90611441565b60405180910390fd5b600660019054906101000a900473ffffffffffffffffffffffffffffffffffffffff1673ffffffffffffffffffffffffffffffffffffffff166108fc6003549081150290604051600060405180830381858888f19350505050158015610a81573d6000803e3d6000fd5b50600660019054906101000a900473ffffffffffffffffffffffffffffffffffffffff1673ffffffffffffffffffffffffffffffffffffffff1660008054906101000a900473ffffffffffffffffffffffffffffffffffffffff1673ffffffffffffffffffffffffffffffffffffffff167f76a6a21bca73e3a8419437e88c92735fe14a5927ac800ec5fa87ed39af870db4600354604051610b239190610fe8565b60405180910390a350565b60008060009054906101000a900473ffffffffffffffffffffffffffffffffffffffff16905090565b60025481565b6000600354905090565b6000606060008060608060008060009054906101000a900473ffffffffffffffffffffffffffffffffffffffff16600160025460035460046005600660009054906101000a900460ff16858054610bbd90611234565b80601f0160208091040260200160405190810160405280929190818152602001828054610be990611234565b8015610c365780601f10610c0b57610100808354040283529160200191610c36565b820191906000526020600020905b815481529060010190602001808311610c1957829003601f168201915b50505050509550828054610c4990611234565b80601f0160208091040260200160405190810160405280929190818152602001828054610c7590611234565b8015610cc25780601f10610c9757610100808354040283529160200191610cc2565b820191906000526020600020905b815481529060010190602001808311610ca557829003601f168201915b50505050509250818054610cd590611234565b80601f0160208091040260200160405190810160405280929190818152602001828054610d0190611234565b8015610d4e5780601f10610d2357610100808354040283529160200191610d4e565b820191906000526020600020905b815481529060010190602001808311610d3157829003601f168201915b50505050509150965096509650965096509650965090919293949596565b6000600254905090565b6000600354905090565b600081604051602001610d93919061149d565b604051602081830303815290604052805190602001206004604051602001610dbb9190611548565b60405160208183030381529060405280519060200120149050919050565b600081519050919050565b600082825260208201905092915050565b60005b83811015610e13578082015181840152602081019050610df8565b83811115610e22576000848401525b50505050565b6000601f19601f8301169050919050565b6000610e4482610dd9565b610e4e8185610de4565b9350610e5e818560208601610df5565b610e6781610e28565b840191505092915050565b60006020820190508181036000830152610e8c8184610e39565b905092915050565b60008115159050919050565b610ea981610e94565b82525050565b6000602082019050610ec46000830184610ea0565b92915050565b600073ffffffffffffffffffffffffffffffffffffffff82169050919050565b6000610ef582610eca565b9050919050565b610f0581610eea565b82525050565b6000602082019050610f206000830184610efc565b92915050565b6000604051905090565b600080fd5b600080fd5b6000610f4582610eca565b9050919050565b610f5581610f3a565b8114610f6057600080fd5b50565b600081359050610f7281610f4c565b92915050565b600060208284031215610f8e57610f8d610f30565b5b6000610f9c84828501610f63565b91505092915050565b610fae81610f3a565b82525050565b6000602082019050610fc96000830184610fa5565b92915050565b6000819050919050565b610fe281610fcf565b82525050565b6000602082019050610ffd6000830184610fd9565b92915050565b600080fd5b600080fd5b7f4e487b7100000000000000000000000000000000000000000000000000000000600052604160045260246000fd5b61104582610e28565b810181811067ffffffffffffffff821117156110645761106361100d565b5b80604052505050565b6000611077610f26565b9050611083828261103c565b919050565b600067ffffffffffffffff8211156110a3576110a261100d565b5b6110ac82610e28565b9050602081019050919050565b82818337600083830152505050565b60006110db6110d684611088565b61106d565b9050828152602081018484840111156110f7576110f6611008565b5b6111028482856110b9565b509392505050565b600082601f83011261111f5761111e611003565b5b813561112f8482602086016110c8565b91505092915050565b60006020828403121561114e5761114d610f30565b5b600082013567ffffffffffffffff81111561116c5761116b610f35565b5b6111788482850161110a565b91505092915050565b600060e082019050611196600083018a610fa5565b81810360208301526111a88189610e39565b90506111b76040830188610fd9565b6111c46060830187610fd9565b81810360808301526111d68186610e39565b905081810360a08301526111ea8185610e39565b90506111f960c0830184610ea0565b98975050505050505050565b7f4e487b7100000000000000000000000000000000000000000000000000000000600052602260045260246000fd5b6000600282049050600182168061124c57607f821691505b60208210810361125f5761125e611205565b5b50919050565b7f4572726f2c20736f20706f64652073657220666569746f2070656c6f20686f7360008201527f7065646500000000000000000000000000000000000000000000000000000000602082015250565b60006112c1602483610de4565b91506112cc82611265565b604082019050919050565b600060208201905081810360008301526112f0816112b4565b9050919050565b7f52657365727661206a612063616e63656c616461000000000000000000000000600082015250565b600061132d601483610de4565b9150611338826112f7565b602082019050919050565b6000602082019050818103600083015261135c81611320565b9050919050565b7f4170656e6173206f20686f737065646520706f64652063616e63656c6172206160008201527f2072657365727661000000000000000000000000000000000000000000000000602082015250565b60006113bf602883610de4565b91506113ca82611363565b604082019050919050565b600060208201905081810360008301526113ee816113b2565b9050919050565b7f41696e6461206e616f2065206f2064696120646f20636865636b2d696e000000600082015250565b600061142b601d83610de4565b9150611436826113f5565b602082019050919050565b6000602082019050818103600083015261145a8161141e565b9050919050565b600081905092915050565b600061147782610dd9565b6114818185611461565b9350611491818560208601610df5565b80840191505092915050565b60006114a9828461146c565b915081905092915050565b60008190508160005260206000209050919050565b600081546114d681611234565b6114e08186611461565b945060018216600081146114fb576001811461150c5761153f565b60ff1983168652818601935061153f565b611515856114b4565b60005b8381101561153757815481890152600182019150602081019050611518565b838801955050505b50505092915050565b600061155482846114c9565b91508190509291505056fea2646970667358221220b0febfd4f2542bf91697e0fb91044a08df93925c14daa107b80438d6fdbe12f364736f6c634300080d0033a26469706673582212204cb40f7ba435d5d5a98cfac20a28825d607c625a53e8d81ab57d4f7ed211c42e64736f6c634300080d0033",
  "immutableReferences": {},
  "source": "// SPDX-License-Identifier: MIT\r\npragma solidity ^0.8.0;\r\n\r\nimport \"./HotelBooking.sol\";\r\n\r\ncontract HotelBookingManager {\r\n    address public owner;\r\n    uint256 public bookingCount = 0;\r\n    address[] public bookingContracts;\r\n    \r\n    struct BookingInfo {\r\n        address bookingContract;\r\n        address guest;\r\n        string hotel;\r\n        uint256 amount;\r\n        bool isActive;\r\n        uint256 roomNumber;\r\n    }\r\n\r\n    mapping(uint256 => BookingInfo) public bookings;\r\n    mapping(string => mapping(uint256 => bool)) public roomLocked; // hotel => roomNumber => isLocked\r\n\r\n    event BookingCreated(\r\n        uint256 indexed bookingId,\r\n        address bookingContract,\r\n        address indexed guest,\r\n        string hotel,\r\n        uint256 amount,\r\n        uint256 roomNumber\r\n    );\r\n\r\n    event BookingCancelled(\r\n        uint256 indexed bookingId,\r\n        address indexed guest\r\n    );\r\n\r\n    event RoomLocked(\r\n        string indexed hotel,\r\n        uint256 indexed roomNumber\r\n    );\r\n\r\n    event RoomUnlocked(\r\n        string indexed hotel,\r\n        uint256 indexed roomNumber\r\n    );\r\n\r\n    modifier onlyOwner() {\r\n        require(msg.sender == owner, \"Erro, disponivel apenas o criador do contrato\");\r\n        _;\r\n    }\r\n\r\n    constructor() {\r\n        owner = msg.sender;\r\n    }\r\n\r\n    function createBooking(\r\n        string memory _hotel,\r\n        uint256 _amount,\r\n        string memory _checkInDate,\r\n        string memory _checkOutDate,\r\n        uint256 _roomNumber,\r\n        address payable _hotelAddress\r\n    ) public payable {\r\n        // Verifica se o valor enviado na transao  igual ao valor esperado da reserva\r\n        require(msg.value == _amount, \"Valor de pagamento incorreto\");\r\n\r\n        // Cria uma instncia de um novo contrato de reserva individual (HotelBooking)\r\n        HotelBooking newBooking;\r\n        try new HotelBooking{value: msg.value}(\r\n            msg.sender, // endereo do hspede\r\n            _hotel, // nome do hotel\r\n            _amount, // valor pago\r\n            _checkInDate,\r\n            _checkOutDate,\r\n            _roomNumber,\r\n            _hotelAddress\r\n        ) returns (HotelBooking booking) {\r\n            newBooking = booking;\r\n        } catch {\r\n\r\n            revert(\"Falha ao criar contrato de reserva\");\r\n        }\r\n\r\n        // Incrementa o contador de reservas para gerar um novo ID de reserva\r\n        bookingCount++;\r\n\r\n        // Registra as informaes da nova reserva no mapeamento 'bookings'\r\n        bookings[bookingCount] = BookingInfo({\r\n            bookingContract: address(newBooking),\r\n            guest: msg.sender,\r\n            hotel: _hotel,\r\n            amount: _amount,\r\n            isActive: true,\r\n            roomNumber: _roomNumber\r\n        });\r\n\r\n        // Adiciona o endereo do novo contrato de reserva  lista de contratos de reserva\r\n        bookingContracts.push(address(newBooking));\r\n\r\n        // Emite o evento 'BookingCreated'\r\n        emit BookingCreated(\r\n            bookingCount,\r\n            address(newBooking),\r\n            msg.sender,\r\n            _hotel,\r\n            _amount,\r\n            _roomNumber\r\n        );\r\n    }\r\n\r\n    function cancelBooking(uint256 _bookingId) public {\r\n        BookingInfo storage booking = bookings[_bookingId];\r\n        require(booking.isActive, \"Reserva ja cancelada\");\r\n        require(\r\n            msg.sender == booking.guest || msg.sender == owner,\r\n            \"Nao autorizado\"\r\n        );\r\n\r\n        HotelBooking(booking.bookingContract).cancelBooking(msg.sender);\r\n        booking.isActive = false;\r\n\r\n        // Emite o evento 'BookingCancelled'\r\n        emit BookingCancelled(_bookingId, msg.sender);\r\n    }\r\n\r\n    function getBooking(uint256 _bookingId)\r\n        public\r\n        view\r\n        returns (BookingInfo memory)\r\n    {\r\n        return bookings[_bookingId];\r\n    }\r\n\r\n    function getBookingContracts() public view returns (address[] memory) {\r\n        return bookingContracts;\r\n    }\r\n\r\n    function getActiveBookings() public view returns (BookingInfo[] memory) {\r\n        uint256 activeCount = 0;\r\n        for (uint256 i = 1; i <= bookingCount; i++) {\r\n            if (bookings[i].isActive) {\r\n                activeCount++;\r\n            }\r\n        }\r\n\r\n        BookingInfo[] memory activeBookings = new BookingInfo[](activeCount);\r\n        uint256 index = 0;\r\n        for (uint256 i = 1; i <= bookingCount; i++) {\r\n            if (bookings[i].isActive) {\r\n                activeBookings[index] = bookings[i];\r\n                index++;\r\n            }\r\n        }\r\n\r\n        return activeBookings;\r\n    }\r\n\r\n    function getBookingsByUser(address _user) public view returns (BookingInfo[] memory) {\r\n        uint256 userBookingCount = 0;\r\n        for (uint256 i = 1; i <= bookingCount; i++) {\r\n            if (bookings[i].guest == _user) {\r\n                userBookingCount++;\r\n            }\r\n        }\r\n\r\n        BookingInfo[] memory userBookings = new BookingInfo[](userBookingCount);\r\n        uint256 index = 0;\r\n        for (uint256 i = 1; i <= bookingCount; i++) {\r\n            if (bookings[i].guest == _user) {\r\n                userBookings[index] = bookings[i];\r\n                index++;\r\n            }\r\n        }\r\n\r\n        return userBookings;\r\n    }\r\n\r\n    function isRoomLocked(string memory _hotel, uint256 _roomNumber) public view returns (bool) {\r\n        return roomLocked[_hotel][_roomNumber];\r\n    }\r\n\r\n    // Mtodo para bloquear um quarto manualmente\r\n    function lockRoom(string memory _hotel, uint256 _roomNumber) public {\r\n        require(!roomLocked[_hotel][_roomNumber], \"Quarto ja esta bloqueado\");\r\n        roomLocked[_hotel][_roomNumber] = true;\r\n        emit RoomLocked(_hotel, _roomNumber);\r\n    }\r\n\r\n    // Mtodo para desbloquear um quarto manualmente\r\n    function unlockRoom(string memory _hotel, uint256 _roomNumber) public {\r\n        require(roomLocked[_hotel][_roomNumber], \"Quarto nao esta bloqueado\");\r\n        roomLocked[_hotel][_roomNumber] = false;\r\n        emit RoomUnlocked(_hotel, _roomNumber);\r\n    }\r\n}",
  "sourcePath": "C:\\Users\\Usuario\\Documents\\GitHub\\Estudo Blockchain\\cpm-22-bugs\\etheroom-web\\contracts\\HotelBookingManager.sol",
  "compiler": {
    "name": "solc",
    "version": "0.8.13+commit.abaa5c0e.Emscripten.clang"
  },
  "schemaVersion": "3.4.16",
  "updatedAt": "2024-07-31T20:18:48.076Z",
  "networkType": "ethereum",
  "devdoc": {
    "kind": "dev",
    "methods": {},
    "version": 1
  },
  "userdoc": {
    "kind": "user",
    "methods": {},
    "version": 1
  }
}