{
  "contractName": "HotelBooking",
  "abi": [
    {
      "inputs": [
        {
          "internalType": "address",
          "name": "_guest",
          "type": "address"
        },
        {
          "internalType": "string",
          "name": "_hotel",
          "type": "string"
        },
        {
          "internalType": "uint256",
          "name": "_amount",
          "type": "uint256"
        },
        {
          "internalType": "string",
          "name": "_checkInDate",
          "type": "string"
        },
        {
          "internalType": "string",
          "name": "_checkOutDate",
          "type": "string"
        },
        {
          "internalType": "uint256",
          "name": "_roomNumber",
          "type": "uint256"
        },
        {
          "internalType": "address payable",
          "name": "_hotelAddress",
          "type": "address"
        }
      ],
      "stateMutability": "payable",
      "type": "constructor"
    },
    {
      "anonymous": false,
      "inputs": [
        {
          "indexed": true,
          "internalType": "address",
          "name": "guest",
          "type": "address"
        },
        {
          "indexed": false,
          "internalType": "uint256",
          "name": "refundAmount",
          "type": "uint256"
        }
      ],
      "name": "BookingCancelled",
      "type": "event"
    },
    {
      "anonymous": false,
      "inputs": [
        {
          "indexed": true,
          "internalType": "address",
          "name": "guest",
          "type": "address"
        },
        {
          "indexed": true,
          "internalType": "address",
          "name": "hotel",
          "type": "address"
        },
        {
          "indexed": false,
          "internalType": "uint256",
          "name": "amount",
          "type": "uint256"
        }
      ],
      "name": "BookingStarted",
      "type": "event"
    },
    {
      "inputs": [],
      "name": "amount",
      "outputs": [
        {
          "internalType": "uint256",
          "name": "",
          "type": "uint256"
        }
      ],
      "stateMutability": "view",
      "type": "function"
    },
    {
      "inputs": [],
      "name": "checkInDate",
      "outputs": [
        {
          "internalType": "string",
          "name": "",
          "type": "string"
        }
      ],
      "stateMutability": "view",
      "type": "function"
    },
    {
      "inputs": [],
      "name": "checkOutDate",
      "outputs": [
        {
          "internalType": "string",
          "name": "",
          "type": "string"
        }
      ],
      "stateMutability": "view",
      "type": "function"
    },
    {
      "inputs": [],
      "name": "guest",
      "outputs": [
        {
          "internalType": "address",
          "name": "",
          "type": "address"
        }
      ],
      "stateMutability": "view",
      "type": "function"
    },
    {
      "inputs": [],
      "name": "hotel",
      "outputs": [
        {
          "internalType": "string",
          "name": "",
          "type": "string"
        }
      ],
      "stateMutability": "view",
      "type": "function"
    },
    {
      "inputs": [],
      "name": "hotelAddress",
      "outputs": [
        {
          "internalType": "address payable",
          "name": "",
          "type": "address"
        }
      ],
      "stateMutability": "view",
      "type": "function"
    },
    {
      "inputs": [],
      "name": "isCancelled",
      "outputs": [
        {
          "internalType": "bool",
          "name": "",
          "type": "bool"
        }
      ],
      "stateMutability": "view",
      "type": "function"
    },
    {
      "inputs": [],
      "name": "roomNumber",
      "outputs": [
        {
          "internalType": "uint256",
          "name": "",
          "type": "uint256"
        }
      ],
      "stateMutability": "view",
      "type": "function"
    },
    {
      "inputs": [
        {
          "internalType": "address",
          "name": "_caller",
          "type": "address"
        }
      ],
      "name": "cancelBooking",
      "outputs": [],
      "stateMutability": "nonpayable",
      "type": "function"
    },
    {
      "inputs": [
        {
          "internalType": "string",
          "name": "currentDate",
          "type": "string"
        }
      ],
      "name": "startBooking",
      "outputs": [],
      "stateMutability": "nonpayable",
      "type": "function"
    },
    {
      "inputs": [],
      "name": "getBookingDetails",
      "outputs": [
        {
          "internalType": "address",
          "name": "",
          "type": "address"
        },
        {
          "internalType": "string",
          "name": "",
          "type": "string"
        },
        {
          "internalType": "uint256",
          "name": "",
          "type": "uint256"
        },
        {
          "internalType": "uint256",
          "name": "",
          "type": "uint256"
        },
        {
          "internalType": "string",
          "name": "",
          "type": "string"
        },
        {
          "internalType": "string",
          "name": "",
          "type": "string"
        },
        {
          "internalType": "bool",
          "name": "",
          "type": "bool"
        }
      ],
      "stateMutability": "view",
      "type": "function"
    },
    {
      "inputs": [],
      "name": "getGuest",
      "outputs": [
        {
          "internalType": "address",
          "name": "",
          "type": "address"
        }
      ],
      "stateMutability": "view",
      "type": "function"
    },
    {
      "inputs": [],
      "name": "getHotel",
      "outputs": [
        {
          "internalType": "string",
          "name": "",
          "type": "string"
        }
      ],
      "stateMutability": "view",
      "type": "function"
    },
    {
      "inputs": [],
      "name": "getRoomNumber",
      "outputs": [
        {
          "internalType": "uint256",
          "name": "",
          "type": "uint256"
        }
      ],
      "stateMutability": "view",
      "type": "function"
    },
    {
      "inputs": [],
      "name": "getAmount",
      "outputs": [
        {
          "internalType": "uint256",
          "name": "",
          "type": "uint256"
        }
      ],
      "stateMutability": "view",
      "type": "function"
    },
    {
      "inputs": [],
      "name": "getCheckInDate",
      "outputs": [
        {
          "internalType": "string",
          "name": "",
          "type": "string"
        }
      ],
      "stateMutability": "view",
      "type": "function"
    },
    {
      "inputs": [],
      "name": "getCheckOutDate",
      "outputs": [
        {
          "internalType": "string",
          "name": "",
          "type": "string"
        }
      ],
      "stateMutability": "view",
      "type": "function"
    },
    {
      "inputs": [],
      "name": "getIsCancelled",
      "outputs": [
        {
          "internalType": "bool",
          "name": "",
          "type": "bool"
        }
      ],
      "stateMutability": "view",
      "type": "function"
    }
  ],
  "bytecode": "0x608060405260405162001b7638038062001b7683398181016040528101906200002991906200045d565b866000806101000a81548173ffffffffffffffffffffffffffffffffffffffff021916908373ffffffffffffffffffffffffffffffffffffffff1602179055508560019080519060200190620000819291906200012b565b5084600381905550816002819055508360049080519060200190620000a89291906200012b565b508260059080519060200190620000c19291906200012b565b506000600660006101000a81548160ff02191690831515021790555080600660016101000a81548173ffffffffffffffffffffffffffffffffffffffff021916908373ffffffffffffffffffffffffffffffffffffffff16021790555050505050505050620005d1565b82805462000139906200059c565b90600052602060002090601f0160209004810192826200015d5760008555620001a9565b82601f106200017857805160ff1916838001178555620001a9565b82800160010185558215620001a9579182015b82811115620001a85782518255916020019190600101906200018b565b5b509050620001b89190620001bc565b5090565b5b80821115620001d7576000816000905550600101620001bd565b5090565b6000604051905090565b600080fd5b600080fd5b600073ffffffffffffffffffffffffffffffffffffffff82169050919050565b60006200021c82620001ef565b9050919050565b6200022e816200020f565b81146200023a57600080fd5b50565b6000815190506200024e8162000223565b92915050565b600080fd5b600080fd5b6000601f19601f8301169050919050565b7f4e487b7100000000000000000000000000000000000000000000000000000000600052604160045260246000fd5b620002a9826200025e565b810181811067ffffffffffffffff82111715620002cb57620002ca6200026f565b5b80604052505050565b6000620002e0620001db565b9050620002ee82826200029e565b919050565b600067ffffffffffffffff8211156200031157620003106200026f565b5b6200031c826200025e565b9050602081019050919050565b60005b83811015620003495780820151818401526020810190506200032c565b8381111562000359576000848401525b50505050565b6000620003766200037084620002f3565b620002d4565b90508281526020810184848401111562000395576200039462000259565b5b620003a284828562000329565b509392505050565b600082601f830112620003c257620003c162000254565b5b8151620003d48482602086016200035f565b91505092915050565b6000819050919050565b620003f281620003dd565b8114620003fe57600080fd5b50565b6000815190506200041281620003e7565b92915050565b60006200042582620001ef565b9050919050565b620004378162000418565b81146200044357600080fd5b50565b60008151905062000457816200042c565b92915050565b600080600080600080600060e0888a0312156200047f576200047e620001e5565b5b60006200048f8a828b016200023d565b975050602088015167ffffffffffffffff811115620004b357620004b2620001ea565b5b620004c18a828b01620003aa565b9650506040620004d48a828b0162000401565b955050606088015167ffffffffffffffff811115620004f857620004f7620001ea565b5b620005068a828b01620003aa565b945050608088015167ffffffffffffffff8111156200052a5762000529620001ea565b5b620005388a828b01620003aa565b93505060a06200054b8a828b0162000401565b92505060c06200055e8a828b0162000446565b91505092959891949750929550565b7f4e487b7100000000000000000000000000000000000000000000000000000000600052602260045260246000fd5b60006002820490506001821680620005b557607f821691505b602082108103620005cb57620005ca6200056d565b5b50919050565b61159580620005e16000396000f3fe608060405234801561001057600080fd5b50600436106101165760003560e01c806395ee1221116100a2578063c3d4847f11610071578063c3d4847f1461029d578063d23b96a1146102bb578063d321fe29146102d9578063dab78713146102f7578063fb61bda11461031b57610116565b806395ee1221146102275780639a04f70414610245578063aa8c217c14610263578063b73c2a1a1461028157610116565b80636354b07f116100e95780636354b07f1461019357806366481270146101b15780637897fc7f146101cf57806382394694146101ed578063922c5eb31461020957610116565b80630818a2d61461011b57806352f31426146101395780635ec1990714610157578063624c905214610175575b600080fd5b610123610339565b6040516101309190610e72565b60405180910390f35b6101416103c7565b60405161014e9190610e72565b60405180910390f35b61015f610455565b60405161016c9190610eaf565b60405180910390f35b61017d61046c565b60405161018a9190610f0b565b60405180910390f35b61019b610492565b6040516101a89190610e72565b60405180910390f35b6101b9610524565b6040516101c69190610e72565b60405180910390f35b6101d76105b2565b6040516101e49190610e72565b60405180910390f35b61020760048036038101906102029190610f78565b610644565b005b6102116108b0565b60405161021e9190610e72565b60405180910390f35b61022f610942565b60405161023c9190610eaf565b60405180910390f35b61024d610955565b60405161025a9190610fb4565b60405180910390f35b61026b610979565b6040516102789190610fe8565b60405180910390f35b61029b60048036038101906102969190611138565b61097f565b005b6102a5610b2e565b6040516102b29190610fb4565b60405180910390f35b6102c3610b57565b6040516102d09190610fe8565b60405180910390f35b6102e1610b5d565b6040516102ee9190610fe8565b60405180910390f35b6102ff610b67565b6040516103129796959493929190611181565b60405180910390f35b610323610d6c565b6040516103309190610fe8565b60405180910390f35b6001805461034690611234565b80601f016020809104026020016040519081016040528092919081815260200182805461037290611234565b80156103bf5780601f10610394576101008083540402835291602001916103bf565b820191906000526020600020905b8154815290600101906020018083116103a257829003601f168201915b505050505081565b600480546103d490611234565b80601f016020809104026020016040519081016040528092919081815260200182805461040090611234565b801561044d5780601f106104225761010080835404028352916020019161044d565b820191906000526020600020905b81548152906001019060200180831161043057829003601f168201915b505050505081565b6000600660009054906101000a900460ff16905090565b600660019054906101000a900473ffffffffffffffffffffffffffffffffffffffff1681565b6060600480546104a190611234565b80601f01602080910402602001604051908101604052809291908181526020018280546104cd90611234565b801561051a5780601f106104ef5761010080835404028352916020019161051a565b820191906000526020600020905b8154815290600101906020018083116104fd57829003601f168201915b5050505050905090565b6005805461053190611234565b80601f016020809104026020016040519081016040528092919081815260200182805461055d90611234565b80156105aa5780601f1061057f576101008083540402835291602001916105aa565b820191906000526020600020905b81548152906001019060200180831161058d57829003601f168201915b505050505081565b6060600580546105c190611234565b80601f01602080910402602001604051908101604052809291908181526020018280546105ed90611234565b801561063a5780601f1061060f5761010080835404028352916020019161063a565b820191906000526020600020905b81548152906001019060200180831161061d57829003601f168201915b5050505050905090565b60008054906101000a900473ffffffffffffffffffffffffffffffffffffffff1673ffffffffffffffffffffffffffffffffffffffff163373ffffffffffffffffffffffffffffffffffffffff16146106d2576040517f08c379a00000000000000000000000000000000000000000000000000000000081526004016106c9906112d7565b60405180910390fd5b600660009054906101000a900460ff1615610722576040517f08c379a000000000000000000000000000000000000000000000000000000000815260040161071990611343565b60405180910390fd5b60008054906101000a900473ffffffffffffffffffffffffffffffffffffffff1673ffffffffffffffffffffffffffffffffffffffff168173ffffffffffffffffffffffffffffffffffffffff16146107b0576040517f08c379a00000000000000000000000000000000000000000000000000000000081526004016107a7906113d5565b60405180910390fd5b6001600660006101000a81548160ff02191690831515021790555060006107d5610d76565b905060008054906101000a900473ffffffffffffffffffffffffffffffffffffffff1673ffffffffffffffffffffffffffffffffffffffff166108fc829081150290604051600060405180830381858888f1935050505015801561083d573d6000803e3d6000fd5b5060008054906101000a900473ffffffffffffffffffffffffffffffffffffffff1673ffffffffffffffffffffffffffffffffffffffff167f5cd299de5eeda67273101925bf237bc1f11d5a691d78d173827e51af1a0a720b826040516108a49190610fe8565b60405180910390a25050565b6060600180546108bf90611234565b80601f01602080910402602001604051908101604052809291908181526020018280546108eb90611234565b80156109385780601f1061090d57610100808354040283529160200191610938565b820191906000526020600020905b81548152906001019060200180831161091b57829003601f168201915b5050505050905090565b600660009054906101000a900460ff1681565b60008054906101000a900473ffffffffffffffffffffffffffffffffffffffff1681565b60035481565b600660009054906101000a900460ff16156109cf576040517f08c379a00000000000000000000000000000000000000000000000000000000081526004016109c690611343565b60405180910390fd5b6109d881610d80565b610a17576040517f08c379a0000000000000000000000000000000000000000000000000000000008152600401610a0e90611441565b60405180910390fd5b600660019054906101000a900473ffffffffffffffffffffffffffffffffffffffff1673ffffffffffffffffffffffffffffffffffffffff166108fc6003549081150290604051600060405180830381858888f19350505050158015610a81573d6000803e3d6000fd5b50600660019054906101000a900473ffffffffffffffffffffffffffffffffffffffff1673ffffffffffffffffffffffffffffffffffffffff1660008054906101000a900473ffffffffffffffffffffffffffffffffffffffff1673ffffffffffffffffffffffffffffffffffffffff167f76a6a21bca73e3a8419437e88c92735fe14a5927ac800ec5fa87ed39af870db4600354604051610b239190610fe8565b60405180910390a350565b60008060009054906101000a900473ffffffffffffffffffffffffffffffffffffffff16905090565b60025481565b6000600354905090565b6000606060008060608060008060009054906101000a900473ffffffffffffffffffffffffffffffffffffffff16600160025460035460046005600660009054906101000a900460ff16858054610bbd90611234565b80601f0160208091040260200160405190810160405280929190818152602001828054610be990611234565b8015610c365780601f10610c0b57610100808354040283529160200191610c36565b820191906000526020600020905b815481529060010190602001808311610c1957829003601f168201915b50505050509550828054610c4990611234565b80601f0160208091040260200160405190810160405280929190818152602001828054610c7590611234565b8015610cc25780601f10610c9757610100808354040283529160200191610cc2565b820191906000526020600020905b815481529060010190602001808311610ca557829003601f168201915b50505050509250818054610cd590611234565b80601f0160208091040260200160405190810160405280929190818152602001828054610d0190611234565b8015610d4e5780601f10610d2357610100808354040283529160200191610d4e565b820191906000526020600020905b815481529060010190602001808311610d3157829003601f168201915b50505050509150965096509650965096509650965090919293949596565b6000600254905090565b6000600354905090565b600081604051602001610d93919061149d565b604051602081830303815290604052805190602001206004604051602001610dbb9190611548565b60405160208183030381529060405280519060200120149050919050565b600081519050919050565b600082825260208201905092915050565b60005b83811015610e13578082015181840152602081019050610df8565b83811115610e22576000848401525b50505050565b6000601f19601f8301169050919050565b6000610e4482610dd9565b610e4e8185610de4565b9350610e5e818560208601610df5565b610e6781610e28565b840191505092915050565b60006020820190508181036000830152610e8c8184610e39565b905092915050565b60008115159050919050565b610ea981610e94565b82525050565b6000602082019050610ec46000830184610ea0565b92915050565b600073ffffffffffffffffffffffffffffffffffffffff82169050919050565b6000610ef582610eca565b9050919050565b610f0581610eea565b82525050565b6000602082019050610f206000830184610efc565b92915050565b6000604051905090565b600080fd5b600080fd5b6000610f4582610eca565b9050919050565b610f5581610f3a565b8114610f6057600080fd5b50565b600081359050610f7281610f4c565b92915050565b600060208284031215610f8e57610f8d610f30565b5b6000610f9c84828501610f63565b91505092915050565b610fae81610f3a565b82525050565b6000602082019050610fc96000830184610fa5565b92915050565b6000819050919050565b610fe281610fcf565b82525050565b6000602082019050610ffd6000830184610fd9565b92915050565b600080fd5b600080fd5b7f4e487b7100000000000000000000000000000000000000000000000000000000600052604160045260246000fd5b61104582610e28565b810181811067ffffffffffffffff821117156110645761106361100d565b5b80604052505050565b6000611077610f26565b9050611083828261103c565b919050565b600067ffffffffffffffff8211156110a3576110a261100d565b5b6110ac82610e28565b9050602081019050919050565b82818337600083830152505050565b60006110db6110d684611088565b61106d565b9050828152602081018484840111156110f7576110f6611008565b5b6111028482856110b9565b509392505050565b600082601f83011261111f5761111e611003565b5b813561112f8482602086016110c8565b91505092915050565b60006020828403121561114e5761114d610f30565b5b600082013567ffffffffffffffff81111561116c5761116b610f35565b5b6111788482850161110a565b91505092915050565b600060e082019050611196600083018a610fa5565b81810360208301526111a88189610e39565b90506111b76040830188610fd9565b6111c46060830187610fd9565b81810360808301526111d68186610e39565b905081810360a08301526111ea8185610e39565b90506111f960c0830184610ea0565b98975050505050505050565b7f4e487b7100000000000000000000000000000000000000000000000000000000600052602260045260246000fd5b6000600282049050600182168061124c57607f821691505b60208210810361125f5761125e611205565b5b50919050565b7f4572726f2c20736f20706f64652073657220666569746f2070656c6f20686f7360008201527f7065646500000000000000000000000000000000000000000000000000000000602082015250565b60006112c1602483610de4565b91506112cc82611265565b604082019050919050565b600060208201905081810360008301526112f0816112b4565b9050919050565b7f52657365727661206a612063616e63656c616461000000000000000000000000600082015250565b600061132d601483610de4565b9150611338826112f7565b602082019050919050565b6000602082019050818103600083015261135c81611320565b9050919050565b7f4170656e6173206f20686f737065646520706f64652063616e63656c6172206160008201527f2072657365727661000000000000000000000000000000000000000000000000602082015250565b60006113bf602883610de4565b91506113ca82611363565b604082019050919050565b600060208201905081810360008301526113ee816113b2565b9050919050565b7f41696e6461206e616f2065206f2064696120646f20636865636b2d696e000000600082015250565b600061142b601d83610de4565b9150611436826113f5565b602082019050919050565b6000602082019050818103600083015261145a8161141e565b9050919050565b600081905092915050565b600061147782610dd9565b6114818185611461565b9350611491818560208601610df5565b80840191505092915050565b60006114a9828461146c565b915081905092915050565b60008190508160005260206000209050919050565b600081546114d681611234565b6114e08186611461565b945060018216600081146114fb576001811461150c5761153f565b60ff1983168652818601935061153f565b611515856114b4565b60005b8381101561153757815481890152600182019150602081019050611518565b838801955050505b50505092915050565b600061155482846114c9565b91508190509291505056fea2646970667358221220b0febfd4f2542bf91697e0fb91044a08df93925c14daa107b80438d6fdbe12f364736f6c634300080d0033",
  "immutableReferences": {},
  "source": "// SPDX-License-Identifier: MIT\r\npragma solidity ^0.8.0;\r\n\r\ncontract HotelBooking {\r\n    address public guest;\r\n    string public hotel;\r\n    uint256 public roomNumber;\r\n    uint256 public amount;\r\n    string public checkInDate;\r\n    string public checkOutDate;\r\n    bool public isCancelled;\r\n    address payable public hotelAddress;\r\n\r\n    event BookingCancelled(address indexed guest, uint256 refundAmount);\r\n    event BookingStarted(address indexed guest, address indexed hotel, uint256 amount);\r\n\r\n    modifier onlyGuest() {\r\n        require(msg.sender == guest, \"Erro, so pode ser feito pelo hospede\");\r\n        _;\r\n    }\r\n\r\n    constructor(\r\n        address _guest,\r\n        string memory _hotel,\r\n        uint256 _amount,\r\n        string memory _checkInDate,\r\n        string memory _checkOutDate,\r\n        uint256 _roomNumber,\r\n        address payable _hotelAddress\r\n    ) payable {\r\n        guest = _guest;\r\n        hotel = _hotel;\r\n        amount = _amount;\r\n        roomNumber = _roomNumber;\r\n        checkInDate = _checkInDate;\r\n        checkOutDate = _checkOutDate;\r\n        isCancelled = false;\r\n        hotelAddress = _hotelAddress;\r\n    }\r\n\r\n    function cancelBooking(address _caller) public onlyGuest {\r\n        require(!isCancelled, \"Reserva ja cancelada\");\r\n        require(_caller == guest, \"Apenas o hospede pode cancelar a reserva\");\r\n\r\n        isCancelled = true;\r\n        uint256 refundAmount = calculateRefund();\r\n        payable(guest).transfer(refundAmount);\r\n\r\n        emit BookingCancelled(guest, refundAmount);\r\n    }\r\n\r\n    function calculateRefund() internal view returns (uint256) {\r\n        return amount;\r\n    }\r\n\r\n    function startBooking(string memory currentDate) public {\r\n        require(!isCancelled, \"Reserva ja cancelada\");\r\n        require(isCheckInDate(currentDate), \"Ainda nao e o dia do check-in\");\r\n\r\n        hotelAddress.transfer(amount);\r\n        emit BookingStarted(guest, hotelAddress, amount);\r\n    }\r\n\r\n    function isCheckInDate(string memory currentDate) internal view returns (bool) {\r\n        return keccak256(abi.encodePacked(checkInDate)) == keccak256(abi.encodePacked(currentDate));\r\n    }\r\n\r\n    function getBookingDetails() public view returns (\r\n        address,\r\n        string memory,\r\n        uint256,\r\n        uint256,\r\n        string memory,\r\n        string memory,\r\n        bool\r\n    ) {\r\n        return (\r\n            guest,\r\n            hotel,\r\n            roomNumber,\r\n            amount,\r\n            checkInDate,\r\n            checkOutDate,\r\n            isCancelled\r\n        );\r\n    }\r\n\r\n    function getGuest() public view returns (address) {\r\n        return guest;\r\n    }\r\n\r\n    function getHotel() public view returns (string memory) {\r\n        return hotel;\r\n    }\r\n\r\n    function getRoomNumber() public view returns (uint256) {\r\n        return roomNumber;\r\n    }\r\n\r\n    function getAmount() public view returns (uint256) {\r\n        return amount;\r\n    }\r\n\r\n    function getCheckInDate() public view returns (string memory) {\r\n        return checkInDate;\r\n    }\r\n\r\n    function getCheckOutDate() public view returns (string memory) {\r\n        return checkOutDate;\r\n    }\r\n\r\n    function getIsCancelled() public view returns (bool) {\r\n        return isCancelled;\r\n    }\r\n}\r\n",
  "sourcePath": "C:\\Users\\Usuario\\Documents\\GitHub\\Estudo Blockchain\\cpm-22-bugs\\etheroom-web\\contracts\\HotelBooking.sol",
  "compiler": {
    "name": "solc",
    "version": "0.8.13+commit.abaa5c0e.Emscripten.clang"
  },
  "schemaVersion": "3.4.16",
  "updatedAt": "2024-07-31T20:18:45.828Z",
  "devdoc": {
    "kind": "dev",
    "methods": {},
    "version": 1
  },
  "userdoc": {
    "kind": "user",
    "methods": {},
    "version": 1
  }
}