{
  "contractName": "HotelBookingManager",
  "abi": [
    {
      "inputs": [],
      "stateMutability": "nonpayable",
      "type": "constructor"
    },
    {
      "anonymous": false,
      "inputs": [
        {
          "indexed": true,
          "internalType": "uint256",
          "name": "bookingId",
          "type": "uint256"
        },
        {
          "indexed": true,
          "internalType": "address",
          "name": "guest",
          "type": "address"
        }
      ],
      "name": "BookingCancelled",
      "type": "event"
    },
    {
      "anonymous": false,
      "inputs": [
        {
          "indexed": true,
          "internalType": "uint256",
          "name": "bookingId",
          "type": "uint256"
        },
        {
          "indexed": false,
          "internalType": "address",
          "name": "bookingContract",
          "type": "address"
        },
        {
          "indexed": true,
          "internalType": "address",
          "name": "guest",
          "type": "address"
        },
        {
          "indexed": false,
          "internalType": "string",
          "name": "hotel",
          "type": "string"
        },
        {
          "indexed": false,
          "internalType": "uint256",
          "name": "amount",
          "type": "uint256"
        },
        {
          "indexed": false,
          "internalType": "uint256",
          "name": "roomNumber",
          "type": "uint256"
        }
      ],
      "name": "BookingCreated",
      "type": "event"
    },
    {
      "inputs": [
        {
          "internalType": "uint256",
          "name": "",
          "type": "uint256"
        }
      ],
      "name": "bookingContracts",
      "outputs": [
        {
          "internalType": "address",
          "name": "",
          "type": "address"
        }
      ],
      "stateMutability": "view",
      "type": "function",
      "constant": true
    },
    {
      "inputs": [],
      "name": "bookingCount",
      "outputs": [
        {
          "internalType": "uint256",
          "name": "",
          "type": "uint256"
        }
      ],
      "stateMutability": "view",
      "type": "function",
      "constant": true
    },
    {
      "inputs": [
        {
          "internalType": "uint256",
          "name": "",
          "type": "uint256"
        }
      ],
      "name": "bookings",
      "outputs": [
        {
          "internalType": "address",
          "name": "bookingContract",
          "type": "address"
        },
        {
          "internalType": "address",
          "name": "guest",
          "type": "address"
        },
        {
          "internalType": "string",
          "name": "hotel",
          "type": "string"
        },
        {
          "internalType": "uint256",
          "name": "amount",
          "type": "uint256"
        },
        {
          "internalType": "bool",
          "name": "isActive",
          "type": "bool"
        },
        {
          "internalType": "uint256",
          "name": "roomNumber",
          "type": "uint256"
        }
      ],
      "stateMutability": "view",
      "type": "function",
      "constant": true
    },
    {
      "inputs": [],
      "name": "owner",
      "outputs": [
        {
          "internalType": "address",
          "name": "",
          "type": "address"
        }
      ],
      "stateMutability": "view",
      "type": "function",
      "constant": true
    },
    {
      "inputs": [
        {
          "internalType": "string",
          "name": "_hotel",
          "type": "string"
        },
        {
          "internalType": "uint256",
          "name": "_amount",
          "type": "uint256"
        },
        {
          "internalType": "string",
          "name": "_checkInDate",
          "type": "string"
        },
        {
          "internalType": "string",
          "name": "_checkOutDate",
          "type": "string"
        },
        {
          "internalType": "uint256",
          "name": "_roomNumber",
          "type": "uint256"
        },
        {
          "internalType": "address payable",
          "name": "_hotelAddress",
          "type": "address"
        }
      ],
      "name": "createBooking",
      "outputs": [],
      "stateMutability": "payable",
      "type": "function",
      "payable": true
    },
    {
      "inputs": [
        {
          "internalType": "uint256",
          "name": "_bookingId",
          "type": "uint256"
        }
      ],
      "name": "cancelBooking",
      "outputs": [],
      "stateMutability": "nonpayable",
      "type": "function"
    },
    {
      "inputs": [
        {
          "internalType": "uint256",
          "name": "_bookingId",
          "type": "uint256"
        }
      ],
      "name": "getBooking",
      "outputs": [
        {
          "components": [
            {
              "internalType": "address",
              "name": "bookingContract",
              "type": "address"
            },
            {
              "internalType": "address",
              "name": "guest",
              "type": "address"
            },
            {
              "internalType": "string",
              "name": "hotel",
              "type": "string"
            },
            {
              "internalType": "uint256",
              "name": "amount",
              "type": "uint256"
            },
            {
              "internalType": "bool",
              "name": "isActive",
              "type": "bool"
            },
            {
              "internalType": "uint256",
              "name": "roomNumber",
              "type": "uint256"
            }
          ],
          "internalType": "struct HotelBookingManager.BookingInfo",
          "name": "",
          "type": "tuple"
        }
      ],
      "stateMutability": "view",
      "type": "function",
      "constant": true
    },
    {
      "inputs": [],
      "name": "getBookingContracts",
      "outputs": [
        {
          "internalType": "address[]",
          "name": "",
          "type": "address[]"
        }
      ],
      "stateMutability": "view",
      "type": "function",
      "constant": true
    },
    {
      "inputs": [],
      "name": "getActiveBookings",
      "outputs": [
        {
          "components": [
            {
              "internalType": "address",
              "name": "bookingContract",
              "type": "address"
            },
            {
              "internalType": "address",
              "name": "guest",
              "type": "address"
            },
            {
              "internalType": "string",
              "name": "hotel",
              "type": "string"
            },
            {
              "internalType": "uint256",
              "name": "amount",
              "type": "uint256"
            },
            {
              "internalType": "bool",
              "name": "isActive",
              "type": "bool"
            },
            {
              "internalType": "uint256",
              "name": "roomNumber",
              "type": "uint256"
            }
          ],
          "internalType": "struct HotelBookingManager.BookingInfo[]",
          "name": "",
          "type": "tuple[]"
        }
      ],
      "stateMutability": "view",
      "type": "function",
      "constant": true
    },
    {
      "inputs": [
        {
          "internalType": "address",
          "name": "_user",
          "type": "address"
        }
      ],
      "name": "getBookingsByUser",
      "outputs": [
        {
          "components": [
            {
              "internalType": "address",
              "name": "bookingContract",
              "type": "address"
            },
            {
              "internalType": "address",
              "name": "guest",
              "type": "address"
            },
            {
              "internalType": "string",
              "name": "hotel",
              "type": "string"
            },
            {
              "internalType": "uint256",
              "name": "amount",
              "type": "uint256"
            },
            {
              "internalType": "bool",
              "name": "isActive",
              "type": "bool"
            },
            {
              "internalType": "uint256",
              "name": "roomNumber",
              "type": "uint256"
            }
          ],
          "internalType": "struct HotelBookingManager.BookingInfo[]",
          "name": "",
          "type": "tuple[]"
        }
      ],
      "stateMutability": "view",
      "type": "function",
      "constant": true
    }
  ],
  "bytecode": "0x6080604052600060015534801561001557600080fd5b50336000806101000a81548173ffffffffffffffffffffffffffffffffffffffff021916908373ffffffffffffffffffffffffffffffffffffffff160217905550613ae8806100656000396000f3fe6080604052600436106200009e5760003560e01c8063881e71b91162000061578063881e71b914620001d2578063890344f314620002025780638da5cb5b1462000222578063a1ac96001462000252578063cbe349961462000296576200009e565b80630dca825e14620000a35780631dab301e14620000d15780636a5c841a146200011a5780636d759172146200015e578063765ccc9c146200018e575b600080fd5b348015620000b057600080fd5b50620000cf6004803603810190620000c991906200134f565b620002c6565b005b348015620000de57600080fd5b50620000fd6004803603810190620000f791906200134f565b62000515565b604051620001119695949392919062001498565b60405180910390f35b3480156200012757600080fd5b506200014660048036038101906200014091906200134f565b6200062e565b60405162000155919062001626565b60405180910390f35b3480156200016b57600080fd5b5062000176620007d2565b6040516200018591906200164a565b60405180910390f35b3480156200019b57600080fd5b50620001ba6004803603810190620001b491906200134f565b620007d8565b604051620001c9919062001667565b60405180910390f35b348015620001df57600080fd5b50620001ea62000818565b604051620001f9919062001741565b60405180910390f35b6200022060048036038101906200021a9190620018fb565b620008a8565b005b3480156200022f57600080fd5b506200023a62000b6c565b60405162000249919062001667565b60405180910390f35b3480156200025f57600080fd5b506200027e600480360381019062000278919062001a25565b62000b90565b6040516200028d919062001bbc565b60405180910390f35b348015620002a357600080fd5b50620002ae62000ef8565b604051620002bd919062001bbc565b60405180910390f35b60006003600083815260200190815260200160002090508060040160009054906101000a900460ff1662000331576040517f08c379a0000000000000000000000000000000000000000000000000000000008152600401620003289062001c30565b60405180910390fd5b8060010160009054906101000a900473ffffffffffffffffffffffffffffffffffffffff1673ffffffffffffffffffffffffffffffffffffffff163373ffffffffffffffffffffffffffffffffffffffff161480620003db575060008054906101000a900473ffffffffffffffffffffffffffffffffffffffff1673ffffffffffffffffffffffffffffffffffffffff163373ffffffffffffffffffffffffffffffffffffffff16145b6200041d576040517f08c379a0000000000000000000000000000000000000000000000000000000008152600401620004149062001ca2565b60405180910390fd5b8060000160009054906101000a900473ffffffffffffffffffffffffffffffffffffffff1673ffffffffffffffffffffffffffffffffffffffff166382394694336040518263ffffffff1660e01b81526004016200047c919062001667565b600060405180830381600087803b1580156200049757600080fd5b505af1158015620004ac573d6000803e3d6000fd5b5050505060008160040160006101000a81548160ff0219169083151502179055503373ffffffffffffffffffffffffffffffffffffffff16827f405ffc42ca8bb68e3a98a64aa11cec9f085da8d5fab0e36c73abff99bad8cdc960405160405180910390a35050565b60036020528060005260406000206000915090508060000160009054906101000a900473ffffffffffffffffffffffffffffffffffffffff16908060010160009054906101000a900473ffffffffffffffffffffffffffffffffffffffff1690806002018054620005869062001cf3565b80601f0160208091040260200160405190810160405280929190818152602001828054620005b49062001cf3565b8015620006055780601f10620005d95761010080835404028352916020019162000605565b820191906000526020600020905b815481529060010190602001808311620005e757829003601f168201915b5050505050908060030154908060040160009054906101000a900460ff16908060050154905086565b62000638620011de565b600360008381526020019081526020016000206040518060c00160405290816000820160009054906101000a900473ffffffffffffffffffffffffffffffffffffffff1673ffffffffffffffffffffffffffffffffffffffff1673ffffffffffffffffffffffffffffffffffffffff1681526020016001820160009054906101000a900473ffffffffffffffffffffffffffffffffffffffff1673ffffffffffffffffffffffffffffffffffffffff1673ffffffffffffffffffffffffffffffffffffffff168152602001600282018054620007149062001cf3565b80601f0160208091040260200160405190810160405280929190818152602001828054620007429062001cf3565b8015620007935780601f10620007675761010080835404028352916020019162000793565b820191906000526020600020905b8154815290600101906020018083116200077557829003601f168201915b50505050508152602001600382015481526020016004820160009054906101000a900460ff161515151581526020016005820154815250509050919050565b60015481565b60028181548110620007e957600080fd5b906000526020600020016000915054906101000a900473ffffffffffffffffffffffffffffffffffffffff1681565b606060028054806020026020016040519081016040528092919081815260200182805480156200089e57602002820191906000526020600020905b8160009054906101000a900473ffffffffffffffffffffffffffffffffffffffff1673ffffffffffffffffffffffffffffffffffffffff168152602001906001019080831162000853575b5050505050905090565b843414620008ed576040517f08c379a0000000000000000000000000000000000000000000000000000000008152600401620008e49062001d78565b60405180910390fd5b60003433888888888888604051620009059062001242565b62000917979695949392919062001dab565b6040518091039082f090508015801562000935573d6000803e3d6000fd5b509050600160008154809291906200094d9062001e6c565b91905055506040518060c001604052808273ffffffffffffffffffffffffffffffffffffffff1681526020013373ffffffffffffffffffffffffffffffffffffffff1681526020018881526020018781526020016001151581526020018481525060036000600154815260200190815260200160002060008201518160000160006101000a81548173ffffffffffffffffffffffffffffffffffffffff021916908373ffffffffffffffffffffffffffffffffffffffff16021790555060208201518160010160006101000a81548173ffffffffffffffffffffffffffffffffffffffff021916908373ffffffffffffffffffffffffffffffffffffffff160217905550604082015181600201908051906020019062000a6f92919062001250565b506060820151816003015560808201518160040160006101000a81548160ff02191690831515021790555060a082015181600501559050506002819080600181540180825580915050600190039060005260206000200160009091909190916101000a81548173ffffffffffffffffffffffffffffffffffffffff021916908373ffffffffffffffffffffffffffffffffffffffff1602179055503373ffffffffffffffffffffffffffffffffffffffff166001547f640fd42440531d7961248ae2b1aeb1ab067c1397e30d24699caf57b1823eaf47838a8a8860405162000b5b949392919062001eb9565b60405180910390a350505050505050565b60008054906101000a900473ffffffffffffffffffffffffffffffffffffffff1681565b6060600080600190505b600154811162000c35578373ffffffffffffffffffffffffffffffffffffffff166003600083815260200190815260200160002060010160009054906101000a900473ffffffffffffffffffffffffffffffffffffffff1673ffffffffffffffffffffffffffffffffffffffff160362000c1f57818062000c1b9062001e6c565b9250505b808062000c2c9062001e6c565b91505062000b9a565b5060008167ffffffffffffffff81111562000c555762000c546200176f565b5b60405190808252806020026020018201604052801562000c9257816020015b62000c7e620011de565b81526020019060019003908162000c745790505b509050600080600190505b600154811162000eec578573ffffffffffffffffffffffffffffffffffffffff166003600083815260200190815260200160002060010160009054906101000a900473ffffffffffffffffffffffffffffffffffffffff1673ffffffffffffffffffffffffffffffffffffffff160362000ed657600360008281526020019081526020016000206040518060c00160405290816000820160009054906101000a900473ffffffffffffffffffffffffffffffffffffffff1673ffffffffffffffffffffffffffffffffffffffff1673ffffffffffffffffffffffffffffffffffffffff1681526020016001820160009054906101000a900473ffffffffffffffffffffffffffffffffffffffff1673ffffffffffffffffffffffffffffffffffffffff1673ffffffffffffffffffffffffffffffffffffffff16815260200160028201805462000ded9062001cf3565b80601f016020809104026020016040519081016040528092919081815260200182805462000e1b9062001cf3565b801562000e6c5780601f1062000e405761010080835404028352916020019162000e6c565b820191906000526020600020905b81548152906001019060200180831162000e4e57829003601f168201915b50505050508152602001600382015481526020016004820160009054906101000a900460ff1615151515815260200160058201548152505083838151811062000eba5762000eb962001f0d565b5b6020026020010181905250818062000ed29062001e6c565b9250505b808062000ee39062001e6c565b91505062000c9d565b50819350505050919050565b6060600080600190505b600154811162000f5d576003600082815260200190815260200160002060040160009054906101000a900460ff161562000f4757818062000f439062001e6c565b9250505b808062000f549062001e6c565b91505062000f02565b5060008167ffffffffffffffff81111562000f7d5762000f7c6200176f565b5b60405190808252806020026020018201604052801562000fba57816020015b62000fa6620011de565b81526020019060019003908162000f9c5790505b509050600080600190505b6001548111620011d4576003600082815260200190815260200160002060040160009054906101000a900460ff1615620011be57600360008281526020019081526020016000206040518060c00160405290816000820160009054906101000a900473ffffffffffffffffffffffffffffffffffffffff1673ffffffffffffffffffffffffffffffffffffffff1673ffffffffffffffffffffffffffffffffffffffff1681526020016001820160009054906101000a900473ffffffffffffffffffffffffffffffffffffffff1673ffffffffffffffffffffffffffffffffffffffff1673ffffffffffffffffffffffffffffffffffffffff168152602001600282018054620010d59062001cf3565b80601f0160208091040260200160405190810160405280929190818152602001828054620011039062001cf3565b8015620011545780601f10620011285761010080835404028352916020019162001154565b820191906000526020600020905b8154815290600101906020018083116200113657829003601f168201915b50505050508152602001600382015481526020016004820160009054906101000a900460ff16151515158152602001600582015481525050838381518110620011a257620011a162001f0d565b5b60200260200101819052508180620011ba9062001e6c565b9250505b8080620011cb9062001e6c565b91505062000fc5565b5081935050505090565b6040518060c00160405280600073ffffffffffffffffffffffffffffffffffffffff168152602001600073ffffffffffffffffffffffffffffffffffffffff1681526020016060815260200160008152602001600015158152602001600081525090565b611b768062001f3d83390190565b8280546200125e9062001cf3565b90600052602060002090601f016020900481019282620012825760008555620012ce565b82601f106200129d57805160ff1916838001178555620012ce565b82800160010185558215620012ce579182015b82811115620012cd578251825591602001919060010190620012b0565b5b509050620012dd9190620012e1565b5090565b5b80821115620012fc576000816000905550600101620012e2565b5090565b6000604051905090565b600080fd5b600080fd5b6000819050919050565b620013298162001314565b81146200133557600080fd5b50565b60008135905062001349816200131e565b92915050565b6000602082840312156200136857620013676200130a565b5b6000620013788482850162001338565b91505092915050565b600073ffffffffffffffffffffffffffffffffffffffff82169050919050565b6000620013ae8262001381565b9050919050565b620013c081620013a1565b82525050565b600081519050919050565b600082825260208201905092915050565b60005b8381101562001402578082015181840152602081019050620013e5565b8381111562001412576000848401525b50505050565b6000601f19601f8301169050919050565b60006200143682620013c6565b620014428185620013d1565b935062001454818560208601620013e2565b6200145f8162001418565b840191505092915050565b620014758162001314565b82525050565b60008115159050919050565b62001492816200147b565b82525050565b600060c082019050620014af6000830189620013b5565b620014be6020830188620013b5565b8181036040830152620014d2818762001429565b9050620014e360608301866200146a565b620014f2608083018562001487565b6200150160a08301846200146a565b979650505050505050565b6200151781620013a1565b82525050565b600082825260208201905092915050565b60006200153b82620013c6565b6200154781856200151d565b935062001559818560208601620013e2565b620015648162001418565b840191505092915050565b6200157a8162001314565b82525050565b6200158b816200147b565b82525050565b600060c083016000830151620015ab60008601826200150c565b506020830151620015c060208601826200150c565b5060408301518482036040860152620015da82826200152e565b9150506060830151620015f160608601826200156f565b50608083015162001606608086018262001580565b5060a08301516200161b60a08601826200156f565b508091505092915050565b6000602082019050818103600083015262001642818462001591565b905092915050565b60006020820190506200166160008301846200146a565b92915050565b60006020820190506200167e6000830184620013b5565b92915050565b600081519050919050565b600082825260208201905092915050565b6000819050602082019050919050565b6000620016be83836200150c565b60208301905092915050565b6000602082019050919050565b6000620016e48262001684565b620016f081856200168f565b9350620016fd83620016a0565b8060005b8381101562001734578151620017188882620016b0565b97506200172583620016ca565b92505060018101905062001701565b5085935050505092915050565b600060208201905081810360008301526200175d8184620016d7565b905092915050565b600080fd5b600080fd5b7f4e487b7100000000000000000000000000000000000000000000000000000000600052604160045260246000fd5b620017a98262001418565b810181811067ffffffffffffffff82111715620017cb57620017ca6200176f565b5b80604052505050565b6000620017e062001300565b9050620017ee82826200179e565b919050565b600067ffffffffffffffff8211156200181157620018106200176f565b5b6200181c8262001418565b9050602081019050919050565b82818337600083830152505050565b60006200184f6200184984620017f3565b620017d4565b9050828152602081018484840111156200186e576200186d6200176a565b5b6200187b84828562001829565b509392505050565b600082601f8301126200189b576200189a62001765565b5b8135620018ad84826020860162001838565b91505092915050565b6000620018c38262001381565b9050919050565b620018d581620018b6565b8114620018e157600080fd5b50565b600081359050620018f581620018ca565b92915050565b60008060008060008060c087890312156200191b576200191a6200130a565b5b600087013567ffffffffffffffff8111156200193c576200193b6200130f565b5b6200194a89828a0162001883565b96505060206200195d89828a0162001338565b955050604087013567ffffffffffffffff8111156200198157620019806200130f565b5b6200198f89828a0162001883565b945050606087013567ffffffffffffffff811115620019b357620019b26200130f565b5b620019c189828a0162001883565b9350506080620019d489828a0162001338565b92505060a0620019e789828a01620018e4565b9150509295509295509295565b620019ff81620013a1565b811462001a0b57600080fd5b50565b60008135905062001a1f81620019f4565b92915050565b60006020828403121562001a3e5762001a3d6200130a565b5b600062001a4e8482850162001a0e565b91505092915050565b600081519050919050565b600082825260208201905092915050565b6000819050602082019050919050565b600060c08301600083015162001a9d60008601826200150c565b50602083015162001ab260208601826200150c565b506040830151848203604086015262001acc82826200152e565b915050606083015162001ae360608601826200156f565b50608083015162001af8608086018262001580565b5060a083015162001b0d60a08601826200156f565b508091505092915050565b600062001b26838362001a83565b905092915050565b6000602082019050919050565b600062001b488262001a57565b62001b54818562001a62565b93508360208202850162001b688562001a73565b8060005b8581101562001baa578484038952815162001b88858262001b18565b945062001b958362001b2e565b925060208a0199505060018101905062001b6c565b50829750879550505050505092915050565b6000602082019050818103600083015262001bd8818462001b3b565b905092915050565b7f52657365727661206a612063616e63656c616461000000000000000000000000600082015250565b600062001c18601483620013d1565b915062001c258262001be0565b602082019050919050565b6000602082019050818103600083015262001c4b8162001c09565b9050919050565b7f4e616f206175746f72697a61646f000000000000000000000000000000000000600082015250565b600062001c8a600e83620013d1565b915062001c978262001c52565b602082019050919050565b6000602082019050818103600083015262001cbd8162001c7b565b9050919050565b7f4e487b7100000000000000000000000000000000000000000000000000000000600052602260045260246000fd5b6000600282049050600182168062001d0c57607f821691505b60208210810362001d225762001d2162001cc4565b5b50919050565b7f56616c6f7220646520706167616d656e746f20696e636f727265746f00000000600082015250565b600062001d60601c83620013d1565b915062001d6d8262001d28565b602082019050919050565b6000602082019050818103600083015262001d938162001d51565b9050919050565b62001da581620018b6565b82525050565b600060e08201905062001dc2600083018a620013b5565b818103602083015262001dd6818962001429565b905062001de760408301886200146a565b818103606083015262001dfb818762001429565b9050818103608083015262001e11818662001429565b905062001e2260a08301856200146a565b62001e3160c083018462001d9a565b98975050505050505050565b7f4e487b7100000000000000000000000000000000000000000000000000000000600052601160045260246000fd5b600062001e798262001314565b91507fffffffffffffffffffffffffffffffffffffffffffffffffffffffffffffffff820362001eae5762001ead62001e3d565b5b600182019050919050565b600060808201905062001ed06000830187620013b5565b818103602083015262001ee4818662001429565b905062001ef560408301856200146a565b62001f0460608301846200146a565b95945050505050565b7f4e487b7100000000000000000000000000000000000000000000000000000000600052603260045260246000fdfe608060405260405162001b7638038062001b7683398181016040528101906200002991906200045d565b866000806101000a81548173ffffffffffffffffffffffffffffffffffffffff021916908373ffffffffffffffffffffffffffffffffffffffff1602179055508560019080519060200190620000819291906200012b565b5084600381905550816002819055508360049080519060200190620000a89291906200012b565b508260059080519060200190620000c19291906200012b565b506000600660006101000a81548160ff02191690831515021790555080600660016101000a81548173ffffffffffffffffffffffffffffffffffffffff021916908373ffffffffffffffffffffffffffffffffffffffff16021790555050505050505050620005d1565b82805462000139906200059c565b90600052602060002090601f0160209004810192826200015d5760008555620001a9565b82601f106200017857805160ff1916838001178555620001a9565b82800160010185558215620001a9579182015b82811115620001a85782518255916020019190600101906200018b565b5b509050620001b89190620001bc565b5090565b5b80821115620001d7576000816000905550600101620001bd565b5090565b6000604051905090565b600080fd5b600080fd5b600073ffffffffffffffffffffffffffffffffffffffff82169050919050565b60006200021c82620001ef565b9050919050565b6200022e816200020f565b81146200023a57600080fd5b50565b6000815190506200024e8162000223565b92915050565b600080fd5b600080fd5b6000601f19601f8301169050919050565b7f4e487b7100000000000000000000000000000000000000000000000000000000600052604160045260246000fd5b620002a9826200025e565b810181811067ffffffffffffffff82111715620002cb57620002ca6200026f565b5b80604052505050565b6000620002e0620001db565b9050620002ee82826200029e565b919050565b600067ffffffffffffffff8211156200031157620003106200026f565b5b6200031c826200025e565b9050602081019050919050565b60005b83811015620003495780820151818401526020810190506200032c565b8381111562000359576000848401525b50505050565b6000620003766200037084620002f3565b620002d4565b90508281526020810184848401111562000395576200039462000259565b5b620003a284828562000329565b509392505050565b600082601f830112620003c257620003c162000254565b5b8151620003d48482602086016200035f565b91505092915050565b6000819050919050565b620003f281620003dd565b8114620003fe57600080fd5b50565b6000815190506200041281620003e7565b92915050565b60006200042582620001ef565b9050919050565b620004378162000418565b81146200044357600080fd5b50565b60008151905062000457816200042c565b92915050565b600080600080600080600060e0888a0312156200047f576200047e620001e5565b5b60006200048f8a828b016200023d565b975050602088015167ffffffffffffffff811115620004b357620004b2620001ea565b5b620004c18a828b01620003aa565b9650506040620004d48a828b0162000401565b955050606088015167ffffffffffffffff811115620004f857620004f7620001ea565b5b620005068a828b01620003aa565b945050608088015167ffffffffffffffff8111156200052a5762000529620001ea565b5b620005388a828b01620003aa565b93505060a06200054b8a828b0162000401565b92505060c06200055e8a828b0162000446565b91505092959891949750929550565b7f4e487b7100000000000000000000000000000000000000000000000000000000600052602260045260246000fd5b60006002820490506001821680620005b557607f821691505b602082108103620005cb57620005ca6200056d565b5b50919050565b61159580620005e16000396000f3fe608060405234801561001057600080fd5b50600436106101165760003560e01c806395ee1221116100a2578063c3d4847f11610071578063c3d4847f1461029d578063d23b96a1146102bb578063d321fe29146102d9578063dab78713146102f7578063fb61bda11461031b57610116565b806395ee1221146102275780639a04f70414610245578063aa8c217c14610263578063b73c2a1a1461028157610116565b80636354b07f116100e95780636354b07f1461019357806366481270146101b15780637897fc7f146101cf57806382394694146101ed578063922c5eb31461020957610116565b80630818a2d61461011b57806352f31426146101395780635ec1990714610157578063624c905214610175575b600080fd5b610123610339565b6040516101309190610e72565b60405180910390f35b6101416103c7565b60405161014e9190610e72565b60405180910390f35b61015f610455565b60405161016c9190610eaf565b60405180910390f35b61017d61046c565b60405161018a9190610f0b565b60405180910390f35b61019b610492565b6040516101a89190610e72565b60405180910390f35b6101b9610524565b6040516101c69190610e72565b60405180910390f35b6101d76105b2565b6040516101e49190610e72565b60405180910390f35b61020760048036038101906102029190610f78565b610644565b005b6102116108b0565b60405161021e9190610e72565b60405180910390f35b61022f610942565b60405161023c9190610eaf565b60405180910390f35b61024d610955565b60405161025a9190610fb4565b60405180910390f35b61026b610979565b6040516102789190610fe8565b60405180910390f35b61029b60048036038101906102969190611138565b61097f565b005b6102a5610b2e565b6040516102b29190610fb4565b60405180910390f35b6102c3610b57565b6040516102d09190610fe8565b60405180910390f35b6102e1610b5d565b6040516102ee9190610fe8565b60405180910390f35b6102ff610b67565b6040516103129796959493929190611181565b60405180910390f35b610323610d6c565b6040516103309190610fe8565b60405180910390f35b6001805461034690611234565b80601f016020809104026020016040519081016040528092919081815260200182805461037290611234565b80156103bf5780601f10610394576101008083540402835291602001916103bf565b820191906000526020600020905b8154815290600101906020018083116103a257829003601f168201915b505050505081565b600480546103d490611234565b80601f016020809104026020016040519081016040528092919081815260200182805461040090611234565b801561044d5780601f106104225761010080835404028352916020019161044d565b820191906000526020600020905b81548152906001019060200180831161043057829003601f168201915b505050505081565b6000600660009054906101000a900460ff16905090565b600660019054906101000a900473ffffffffffffffffffffffffffffffffffffffff1681565b6060600480546104a190611234565b80601f01602080910402602001604051908101604052809291908181526020018280546104cd90611234565b801561051a5780601f106104ef5761010080835404028352916020019161051a565b820191906000526020600020905b8154815290600101906020018083116104fd57829003601f168201915b5050505050905090565b6005805461053190611234565b80601f016020809104026020016040519081016040528092919081815260200182805461055d90611234565b80156105aa5780601f1061057f576101008083540402835291602001916105aa565b820191906000526020600020905b81548152906001019060200180831161058d57829003601f168201915b505050505081565b6060600580546105c190611234565b80601f01602080910402602001604051908101604052809291908181526020018280546105ed90611234565b801561063a5780601f1061060f5761010080835404028352916020019161063a565b820191906000526020600020905b81548152906001019060200180831161061d57829003601f168201915b5050505050905090565b60008054906101000a900473ffffffffffffffffffffffffffffffffffffffff1673ffffffffffffffffffffffffffffffffffffffff163373ffffffffffffffffffffffffffffffffffffffff16146106d2576040517f08c379a00000000000000000000000000000000000000000000000000000000081526004016106c9906112d7565b60405180910390fd5b600660009054906101000a900460ff1615610722576040517f08c379a000000000000000000000000000000000000000000000000000000000815260040161071990611343565b60405180910390fd5b60008054906101000a900473ffffffffffffffffffffffffffffffffffffffff1673ffffffffffffffffffffffffffffffffffffffff168173ffffffffffffffffffffffffffffffffffffffff16146107b0576040517f08c379a00000000000000000000000000000000000000000000000000000000081526004016107a7906113d5565b60405180910390fd5b6001600660006101000a81548160ff02191690831515021790555060006107d5610d76565b905060008054906101000a900473ffffffffffffffffffffffffffffffffffffffff1673ffffffffffffffffffffffffffffffffffffffff166108fc829081150290604051600060405180830381858888f1935050505015801561083d573d6000803e3d6000fd5b5060008054906101000a900473ffffffffffffffffffffffffffffffffffffffff1673ffffffffffffffffffffffffffffffffffffffff167f5cd299de5eeda67273101925bf237bc1f11d5a691d78d173827e51af1a0a720b826040516108a49190610fe8565b60405180910390a25050565b6060600180546108bf90611234565b80601f01602080910402602001604051908101604052809291908181526020018280546108eb90611234565b80156109385780601f1061090d57610100808354040283529160200191610938565b820191906000526020600020905b81548152906001019060200180831161091b57829003601f168201915b5050505050905090565b600660009054906101000a900460ff1681565b60008054906101000a900473ffffffffffffffffffffffffffffffffffffffff1681565b60035481565b600660009054906101000a900460ff16156109cf576040517f08c379a00000000000000000000000000000000000000000000000000000000081526004016109c690611343565b60405180910390fd5b6109d881610d80565b610a17576040517f08c379a0000000000000000000000000000000000000000000000000000000008152600401610a0e90611441565b60405180910390fd5b600660019054906101000a900473ffffffffffffffffffffffffffffffffffffffff1673ffffffffffffffffffffffffffffffffffffffff166108fc6003549081150290604051600060405180830381858888f19350505050158015610a81573d6000803e3d6000fd5b50600660019054906101000a900473ffffffffffffffffffffffffffffffffffffffff1673ffffffffffffffffffffffffffffffffffffffff1660008054906101000a900473ffffffffffffffffffffffffffffffffffffffff1673ffffffffffffffffffffffffffffffffffffffff167f76a6a21bca73e3a8419437e88c92735fe14a5927ac800ec5fa87ed39af870db4600354604051610b239190610fe8565b60405180910390a350565b60008060009054906101000a900473ffffffffffffffffffffffffffffffffffffffff16905090565b60025481565b6000600354905090565b6000606060008060608060008060009054906101000a900473ffffffffffffffffffffffffffffffffffffffff16600160025460035460046005600660009054906101000a900460ff16858054610bbd90611234565b80601f0160208091040260200160405190810160405280929190818152602001828054610be990611234565b8015610c365780601f10610c0b57610100808354040283529160200191610c36565b820191906000526020600020905b815481529060010190602001808311610c1957829003601f168201915b50505050509550828054610c4990611234565b80601f0160208091040260200160405190810160405280929190818152602001828054610c7590611234565b8015610cc25780601f10610c9757610100808354040283529160200191610cc2565b820191906000526020600020905b815481529060010190602001808311610ca557829003601f168201915b50505050509250818054610cd590611234565b80601f0160208091040260200160405190810160405280929190818152602001828054610d0190611234565b8015610d4e5780601f10610d2357610100808354040283529160200191610d4e565b820191906000526020600020905b815481529060010190602001808311610d3157829003601f168201915b50505050509150965096509650965096509650965090919293949596565b6000600254905090565b6000600354905090565b600081604051602001610d93919061149d565b604051602081830303815290604052805190602001206004604051602001610dbb9190611548565b60405160208183030381529060405280519060200120149050919050565b600081519050919050565b600082825260208201905092915050565b60005b83811015610e13578082015181840152602081019050610df8565b83811115610e22576000848401525b50505050565b6000601f19601f8301169050919050565b6000610e4482610dd9565b610e4e8185610de4565b9350610e5e818560208601610df5565b610e6781610e28565b840191505092915050565b60006020820190508181036000830152610e8c8184610e39565b905092915050565b60008115159050919050565b610ea981610e94565b82525050565b6000602082019050610ec46000830184610ea0565b92915050565b600073ffffffffffffffffffffffffffffffffffffffff82169050919050565b6000610ef582610eca565b9050919050565b610f0581610eea565b82525050565b6000602082019050610f206000830184610efc565b92915050565b6000604051905090565b600080fd5b600080fd5b6000610f4582610eca565b9050919050565b610f5581610f3a565b8114610f6057600080fd5b50565b600081359050610f7281610f4c565b92915050565b600060208284031215610f8e57610f8d610f30565b5b6000610f9c84828501610f63565b91505092915050565b610fae81610f3a565b82525050565b6000602082019050610fc96000830184610fa5565b92915050565b6000819050919050565b610fe281610fcf565b82525050565b6000602082019050610ffd6000830184610fd9565b92915050565b600080fd5b600080fd5b7f4e487b7100000000000000000000000000000000000000000000000000000000600052604160045260246000fd5b61104582610e28565b810181811067ffffffffffffffff821117156110645761106361100d565b5b80604052505050565b6000611077610f26565b9050611083828261103c565b919050565b600067ffffffffffffffff8211156110a3576110a261100d565b5b6110ac82610e28565b9050602081019050919050565b82818337600083830152505050565b60006110db6110d684611088565b61106d565b9050828152602081018484840111156110f7576110f6611008565b5b6111028482856110b9565b509392505050565b600082601f83011261111f5761111e611003565b5b813561112f8482602086016110c8565b91505092915050565b60006020828403121561114e5761114d610f30565b5b600082013567ffffffffffffffff81111561116c5761116b610f35565b5b6111788482850161110a565b91505092915050565b600060e082019050611196600083018a610fa5565b81810360208301526111a88189610e39565b90506111b76040830188610fd9565b6111c46060830187610fd9565b81810360808301526111d68186610e39565b905081810360a08301526111ea8185610e39565b90506111f960c0830184610ea0565b98975050505050505050565b7f4e487b7100000000000000000000000000000000000000000000000000000000600052602260045260246000fd5b6000600282049050600182168061124c57607f821691505b60208210810361125f5761125e611205565b5b50919050565b7f4572726f2c20736f20706f64652073657220666569746f2070656c6f20686f7360008201527f7065646500000000000000000000000000000000000000000000000000000000602082015250565b60006112c1602483610de4565b91506112cc82611265565b604082019050919050565b600060208201905081810360008301526112f0816112b4565b9050919050565b7f52657365727661206a612063616e63656c616461000000000000000000000000600082015250565b600061132d601483610de4565b9150611338826112f7565b602082019050919050565b6000602082019050818103600083015261135c81611320565b9050919050565b7f4170656e6173206f20686f737065646520706f64652063616e63656c6172206160008201527f2072657365727661000000000000000000000000000000000000000000000000602082015250565b60006113bf602883610de4565b91506113ca82611363565b604082019050919050565b600060208201905081810360008301526113ee816113b2565b9050919050565b7f41696e6461206e616f2065206f2064696120646f20636865636b2d696e000000600082015250565b600061142b601d83610de4565b9150611436826113f5565b602082019050919050565b6000602082019050818103600083015261145a8161141e565b9050919050565b600081905092915050565b600061147782610dd9565b6114818185611461565b9350611491818560208601610df5565b80840191505092915050565b60006114a9828461146c565b915081905092915050565b60008190508160005260206000209050919050565b600081546114d681611234565b6114e08186611461565b945060018216600081146114fb576001811461150c5761153f565b60ff1983168652818601935061153f565b611515856114b4565b60005b8381101561153757815481890152600182019150602081019050611518565b838801955050505b50505092915050565b600061155482846114c9565b91508190509291505056fea2646970667358221220b0febfd4f2542bf91697e0fb91044a08df93925c14daa107b80438d6fdbe12f364736f6c634300080d0033a2646970667358221220457b27d90b754743c0bbe987aca5582b75b008099a9983973bdac295bf18f56064736f6c634300080d0033",
  "immutableReferences": {},
  "source": "// SPDX-License-Identifier: MIT\r\npragma solidity ^0.8.0;\r\n\r\nimport \"./HotelBooking.sol\";\r\n\r\ncontract HotelBookingManager {\r\n    address public owner;\r\n    uint256 public bookingCount = 0;\r\n    address[] public bookingContracts;\r\n    // lista de endereos de contratos de reserva\r\n\r\n    struct BookingInfo {\r\n        address bookingContract;\r\n        address guest;\r\n        string hotel;\r\n        uint256 amount;\r\n        bool isActive;\r\n        uint256 roomNumber;\r\n    }\r\n\r\n    mapping(uint256 => BookingInfo) public bookings;\r\n\r\n    event BookingCreated(\r\n        uint256 indexed bookingId,\r\n        address bookingContract,\r\n        address indexed guest,\r\n        string hotel,\r\n        uint256 amount,\r\n        uint256 roomNumber\r\n    );\r\n    /*Notifica qualquer sistema externo que uma nova reserva foi feita, incluindo detalhes como o ID da reserva, o endereo do contrato\r\n    da reserva, o endereo do hspede, o nome do hotel e o valor pago. Sistemas que monitoram a blockchain podem capturar esse evento e\r\n    atualizar a interface do usurio ou realizar outras aes com base nas informaes fornecidas.*/\r\n    \r\n    //\"Indexed\" permite a busca e filtragem de eventos no log da blockchain pelo 'bookingId' e 'guest'\r\n\r\n    event BookingCancelled(\r\n        uint256 indexed bookingId,\r\n        address indexed guest\r\n    );\r\n\r\n    modifier onlyOwner() {\r\n        require(msg.sender == owner, \"Erro, disponivel apenas o criador do contrato\");\r\n        _;\r\n    }\r\n\r\n    constructor() {\r\n        owner = msg.sender;\r\n    }\r\n\r\n    function createBooking(string memory _hotel, uint256 _amount, string memory _checkInDate, string memory _checkOutDate, uint256 _roomNumber, address payable _hotelAddress) public payable {\r\n        // Verifica se o valor enviado na transao  igual ao valor esperado da reserva, caso no seja, a transao falha e exibe a mensagem\r\n        require(msg.value == _amount, \"Valor de pagamento incorreto\");\r\n\r\n        // Cria uma instncia de um novo contrato de reserva individual (HotelBooking)\r\n        HotelBooking newBooking = new HotelBooking{value: msg.value}(\r\n            msg.sender, // endereo do hspede\r\n            _hotel, // nome do hotel\r\n            _amount, // valor pago\r\n            _checkInDate,\r\n            _checkOutDate,\r\n            _roomNumber,\r\n            _hotelAddress\r\n        );\r\n\r\n        // Incrementa o contador de reservas para gerar um novo ID de reserva\r\n        bookingCount++;\r\n\r\n        // Registra as informaes da nova reserva no mapeamento 'bookings' usando o novo ID de reserva como chave\r\n        bookings[bookingCount] = BookingInfo({\r\n            bookingContract: address(newBooking),\r\n            guest: msg.sender,\r\n            hotel: _hotel,\r\n            amount: _amount,\r\n            isActive: true,\r\n            roomNumber: _roomNumber\r\n        });\r\n\r\n        // Adiciona o endereo do novo contrato de reserva  lista de contratos de reserva\r\n        bookingContracts.push(address(newBooking));\r\n\r\n        // Emite o evento 'BookingCreated' para notificar sobre a nova reserva\r\n        emit BookingCreated(\r\n            bookingCount,\r\n            address(newBooking),\r\n            msg.sender,\r\n            _hotel,\r\n            _amount,\r\n            _roomNumber\r\n        );\r\n    }\r\n\r\n    function cancelBooking(uint256 _bookingId) public {\r\n        BookingInfo storage booking = bookings[_bookingId];\r\n        require(booking.isActive, \"Reserva ja cancelada\");\r\n        require(\r\n            msg.sender == booking.guest || msg.sender == owner,\r\n            \"Nao autorizado\"\r\n        );\r\n\r\n        HotelBooking(booking.bookingContract).cancelBooking(msg.sender);\r\n        booking.isActive = false;\r\n\r\n        emit BookingCancelled(_bookingId, msg.sender);\r\n    }\r\n\r\n    function getBooking(uint256 _bookingId)\r\n        public\r\n        view\r\n        returns (BookingInfo memory)\r\n    {\r\n        return bookings[_bookingId];\r\n    }\r\n\r\n    function getBookingContracts() public view returns (address[] memory) {\r\n        return bookingContracts;\r\n        // retorna os contratos de reserva da lista\r\n    }\r\n\r\n    function getActiveBookings() public view returns (BookingInfo[] memory) {\r\n        uint256 activeCount = 0;\r\n        for (uint256 i = 1; i <= bookingCount; i++) {\r\n            if (bookings[i].isActive) {\r\n                activeCount++;\r\n            }\r\n        }\r\n\r\n        BookingInfo[] memory activeBookings = new BookingInfo[](activeCount);\r\n        uint256 index = 0;\r\n        for (uint256 i = 1; i <= bookingCount; i++) {\r\n            if (bookings[i].isActive) {\r\n                activeBookings[index] = bookings[i];\r\n                index++;\r\n            }\r\n        }\r\n\r\n        return activeBookings;\r\n    }\r\n\r\n    function getBookingsByUser(address _user) public view returns (BookingInfo[] memory) {\r\n        uint256 userBookingCount = 0;\r\n        for (uint256 i = 1; i <= bookingCount; i++) {\r\n            if (bookings[i].guest == _user) {\r\n                userBookingCount++;\r\n            }\r\n        }\r\n\r\n        BookingInfo[] memory userBookings = new BookingInfo[](userBookingCount);\r\n        uint256 index = 0;\r\n        for (uint256 i = 1; i <= bookingCount; i++) {\r\n            if (bookings[i].guest == _user) {\r\n                userBookings[index] = bookings[i];\r\n                index++;\r\n            }\r\n        }\r\n\r\n        return userBookings;\r\n    }\r\n}\r\n",
  "sourcePath": "C:\\Users\\Usuario\\Documents\\GitHub\\Estudo Blockchain\\cpm-22-bugs\\etheroom-web\\contracts\\HotelBookingManager.sol",
  "compiler": {
    "name": "solc",
    "version": "0.8.13+commit.abaa5c0e.Emscripten.clang"
  },
  "schemaVersion": "3.4.16",
  "updatedAt": "2024-07-17T15:39:57.419Z",
  "networkType": "ethereum",
  "devdoc": {
    "kind": "dev",
    "methods": {},
    "version": 1
  },
  "userdoc": {
    "kind": "user",
    "methods": {},
    "version": 1
  }
}