{
  "contractName": "HotelBookingManager",
  "abi": [
    {
      "inputs": [],
      "stateMutability": "nonpayable",
      "type": "constructor"
    },
    {
      "anonymous": false,
      "inputs": [
        {
          "indexed": true,
          "internalType": "uint256",
          "name": "bookingId",
          "type": "uint256"
        },
        {
          "indexed": true,
          "internalType": "address",
          "name": "guest",
          "type": "address"
        }
      ],
      "name": "BookingCancelled",
      "type": "event"
    },
    {
      "anonymous": false,
      "inputs": [
        {
          "indexed": true,
          "internalType": "uint256",
          "name": "bookingId",
          "type": "uint256"
        },
        {
          "indexed": false,
          "internalType": "address",
          "name": "bookingContract",
          "type": "address"
        },
        {
          "indexed": true,
          "internalType": "address",
          "name": "guest",
          "type": "address"
        },
        {
          "indexed": false,
          "internalType": "string",
          "name": "hotel",
          "type": "string"
        },
        {
          "indexed": false,
          "internalType": "uint256",
          "name": "amount",
          "type": "uint256"
        },
        {
          "indexed": false,
          "internalType": "uint256",
          "name": "roomNumber",
          "type": "uint256"
        }
      ],
      "name": "BookingCreated",
      "type": "event"
    },
    {
      "inputs": [
        {
          "internalType": "uint256",
          "name": "",
          "type": "uint256"
        }
      ],
      "name": "bookingContracts",
      "outputs": [
        {
          "internalType": "address",
          "name": "",
          "type": "address"
        }
      ],
      "stateMutability": "view",
      "type": "function",
      "constant": true
    },
    {
      "inputs": [],
      "name": "bookingCount",
      "outputs": [
        {
          "internalType": "uint256",
          "name": "",
          "type": "uint256"
        }
      ],
      "stateMutability": "view",
      "type": "function",
      "constant": true
    },
    {
      "inputs": [
        {
          "internalType": "uint256",
          "name": "",
          "type": "uint256"
        }
      ],
      "name": "bookings",
      "outputs": [
        {
          "internalType": "address",
          "name": "bookingContract",
          "type": "address"
        },
        {
          "internalType": "address",
          "name": "guest",
          "type": "address"
        },
        {
          "internalType": "string",
          "name": "hotel",
          "type": "string"
        },
        {
          "internalType": "uint256",
          "name": "amount",
          "type": "uint256"
        },
        {
          "internalType": "bool",
          "name": "isActive",
          "type": "bool"
        },
        {
          "internalType": "uint256",
          "name": "roomNumber",
          "type": "uint256"
        }
      ],
      "stateMutability": "view",
      "type": "function",
      "constant": true
    },
    {
      "inputs": [],
      "name": "owner",
      "outputs": [
        {
          "internalType": "address",
          "name": "",
          "type": "address"
        }
      ],
      "stateMutability": "view",
      "type": "function",
      "constant": true
    },
    {
      "inputs": [
        {
          "internalType": "string",
          "name": "_hotel",
          "type": "string"
        },
        {
          "internalType": "uint256",
          "name": "_amount",
          "type": "uint256"
        },
        {
          "internalType": "string",
          "name": "_checkInDate",
          "type": "string"
        },
        {
          "internalType": "string",
          "name": "_checkOutDate",
          "type": "string"
        },
        {
          "internalType": "uint256",
          "name": "_roomNumber",
          "type": "uint256"
        }
      ],
      "name": "createBooking",
      "outputs": [],
      "stateMutability": "payable",
      "type": "function",
      "payable": true
    },
    {
      "inputs": [
        {
          "internalType": "uint256",
          "name": "_bookingId",
          "type": "uint256"
        }
      ],
      "name": "cancelBooking",
      "outputs": [],
      "stateMutability": "nonpayable",
      "type": "function"
    },
    {
      "inputs": [
        {
          "internalType": "uint256",
          "name": "_bookingId",
          "type": "uint256"
        }
      ],
      "name": "getBooking",
      "outputs": [
        {
          "components": [
            {
              "internalType": "address",
              "name": "bookingContract",
              "type": "address"
            },
            {
              "internalType": "address",
              "name": "guest",
              "type": "address"
            },
            {
              "internalType": "string",
              "name": "hotel",
              "type": "string"
            },
            {
              "internalType": "uint256",
              "name": "amount",
              "type": "uint256"
            },
            {
              "internalType": "bool",
              "name": "isActive",
              "type": "bool"
            },
            {
              "internalType": "uint256",
              "name": "roomNumber",
              "type": "uint256"
            }
          ],
          "internalType": "struct HotelBookingManager.BookingInfo",
          "name": "",
          "type": "tuple"
        }
      ],
      "stateMutability": "view",
      "type": "function",
      "constant": true
    },
    {
      "inputs": [],
      "name": "getBookingContracts",
      "outputs": [
        {
          "internalType": "address[]",
          "name": "",
          "type": "address[]"
        }
      ],
      "stateMutability": "view",
      "type": "function",
      "constant": true
    }
  ],
  "bytecode": "0x6080604052600060015534801561001557600080fd5b50336000806101000a81548173ffffffffffffffffffffffffffffffffffffffff021916908373ffffffffffffffffffffffffffffffffffffffff160217905550612532806100656000396000f3fe608060405260043610620000865760003560e01c8063765ccc9c1162000055578063765ccc9c1462000176578063881e71b914620001ba5780638da5cb5b14620001ea5780639c8fd755146200021a5762000086565b80630dca825e146200008b5780631dab301e14620000b95780636a5c841a14620001025780636d7591721462000146575b600080fd5b3480156200009857600080fd5b50620000b76004803603810190620000b1919062000c70565b6200023a565b005b348015620000c657600080fd5b50620000e56004803603810190620000df919062000c70565b62000489565b604051620000f99695949392919062000db9565b60405180910390f35b3480156200010f57600080fd5b506200012e600480360381019062000128919062000c70565b620005a2565b6040516200013d919062000f47565b60405180910390f35b3480156200015357600080fd5b506200015e62000746565b6040516200016d919062000f6b565b60405180910390f35b3480156200018357600080fd5b50620001a260048036038101906200019c919062000c70565b6200074c565b604051620001b1919062000f88565b60405180910390f35b348015620001c757600080fd5b50620001d26200078c565b604051620001e1919062001062565b60405180910390f35b348015620001f757600080fd5b50620002026200081c565b60405162000211919062000f88565b60405180910390f35b620002386004803603810190620002329190620011d7565b62000840565b005b60006003600083815260200190815260200160002090508060040160009054906101000a900460ff16620002a5576040517f08c379a00000000000000000000000000000000000000000000000000000000081526004016200029c906200130c565b60405180910390fd5b8060010160009054906101000a900473ffffffffffffffffffffffffffffffffffffffff1673ffffffffffffffffffffffffffffffffffffffff163373ffffffffffffffffffffffffffffffffffffffff1614806200034f575060008054906101000a900473ffffffffffffffffffffffffffffffffffffffff1673ffffffffffffffffffffffffffffffffffffffff163373ffffffffffffffffffffffffffffffffffffffff16145b62000391576040517f08c379a000000000000000000000000000000000000000000000000000000000815260040162000388906200137e565b60405180910390fd5b8060000160009054906101000a900473ffffffffffffffffffffffffffffffffffffffff1673ffffffffffffffffffffffffffffffffffffffff166382394694336040518263ffffffff1660e01b8152600401620003f0919062000f88565b600060405180830381600087803b1580156200040b57600080fd5b505af115801562000420573d6000803e3d6000fd5b5050505060008160040160006101000a81548160ff0219169083151502179055503373ffffffffffffffffffffffffffffffffffffffff16827f405ffc42ca8bb68e3a98a64aa11cec9f085da8d5fab0e36c73abff99bad8cdc960405160405180910390a35050565b60036020528060005260406000206000915090508060000160009054906101000a900473ffffffffffffffffffffffffffffffffffffffff16908060010160009054906101000a900473ffffffffffffffffffffffffffffffffffffffff1690806002018054620004fa90620013cf565b80601f01602080910402602001604051908101604052809291908181526020018280546200052890620013cf565b8015620005795780601f106200054d5761010080835404028352916020019162000579565b820191906000526020600020905b8154815290600101906020018083116200055b57829003601f168201915b5050505050908060030154908060040160009054906101000a900460ff16908060050154905086565b620005ac62000aff565b600360008381526020019081526020016000206040518060c00160405290816000820160009054906101000a900473ffffffffffffffffffffffffffffffffffffffff1673ffffffffffffffffffffffffffffffffffffffff1673ffffffffffffffffffffffffffffffffffffffff1681526020016001820160009054906101000a900473ffffffffffffffffffffffffffffffffffffffff1673ffffffffffffffffffffffffffffffffffffffff1673ffffffffffffffffffffffffffffffffffffffff1681526020016002820180546200068890620013cf565b80601f0160208091040260200160405190810160405280929190818152602001828054620006b690620013cf565b8015620007075780601f10620006db5761010080835404028352916020019162000707565b820191906000526020600020905b815481529060010190602001808311620006e957829003601f168201915b50505050508152602001600382015481526020016004820160009054906101000a900460ff161515151581526020016005820154815250509050919050565b60015481565b600281815481106200075d57600080fd5b906000526020600020016000915054906101000a900473ffffffffffffffffffffffffffffffffffffffff1681565b606060028054806020026020016040519081016040528092919081815260200182805480156200081257602002820191906000526020600020905b8160009054906101000a900473ffffffffffffffffffffffffffffffffffffffff1673ffffffffffffffffffffffffffffffffffffffff1681526020019060010190808311620007c7575b5050505050905090565b60008054906101000a900473ffffffffffffffffffffffffffffffffffffffff1681565b83341462000885576040517f08c379a00000000000000000000000000000000000000000000000000000000081526004016200087c9062001454565b60405180910390fd5b60003386868686866040516200089b9062000b63565b620008ac9695949392919062001476565b604051809103906000f080158015620008c9573d6000803e3d6000fd5b50905060016000815480929190620008e19062001527565b91905055506040518060c001604052808273ffffffffffffffffffffffffffffffffffffffff1681526020013373ffffffffffffffffffffffffffffffffffffffff1681526020018781526020018681526020016001151581526020018381525060036000600154815260200190815260200160002060008201518160000160006101000a81548173ffffffffffffffffffffffffffffffffffffffff021916908373ffffffffffffffffffffffffffffffffffffffff16021790555060208201518160010160006101000a81548173ffffffffffffffffffffffffffffffffffffffff021916908373ffffffffffffffffffffffffffffffffffffffff160217905550604082015181600201908051906020019062000a0392919062000b71565b506060820151816003015560808201518160040160006101000a81548160ff02191690831515021790555060a082015181600501559050506002819080600181540180825580915050600190039060005260206000200160009091909190916101000a81548173ffffffffffffffffffffffffffffffffffffffff021916908373ffffffffffffffffffffffffffffffffffffffff1602179055503373ffffffffffffffffffffffffffffffffffffffff166001547f640fd42440531d7961248ae2b1aeb1ab067c1397e30d24699caf57b1823eaf478389898760405162000aef949392919062001574565b60405180910390a3505050505050565b6040518060c00160405280600073ffffffffffffffffffffffffffffffffffffffff168152602001600073ffffffffffffffffffffffffffffffffffffffff1681526020016060815260200160008152602001600015158152602001600081525090565b610f3480620015c983390190565b82805462000b7f90620013cf565b90600052602060002090601f01602090048101928262000ba3576000855562000bef565b82601f1062000bbe57805160ff191683800117855562000bef565b8280016001018555821562000bef579182015b8281111562000bee57825182559160200191906001019062000bd1565b5b50905062000bfe919062000c02565b5090565b5b8082111562000c1d57600081600090555060010162000c03565b5090565b6000604051905090565b600080fd5b600080fd5b6000819050919050565b62000c4a8162000c35565b811462000c5657600080fd5b50565b60008135905062000c6a8162000c3f565b92915050565b60006020828403121562000c895762000c8862000c2b565b5b600062000c998482850162000c59565b91505092915050565b600073ffffffffffffffffffffffffffffffffffffffff82169050919050565b600062000ccf8262000ca2565b9050919050565b62000ce18162000cc2565b82525050565b600081519050919050565b600082825260208201905092915050565b60005b8381101562000d2357808201518184015260208101905062000d06565b8381111562000d33576000848401525b50505050565b6000601f19601f8301169050919050565b600062000d578262000ce7565b62000d63818562000cf2565b935062000d7581856020860162000d03565b62000d808162000d39565b840191505092915050565b62000d968162000c35565b82525050565b60008115159050919050565b62000db38162000d9c565b82525050565b600060c08201905062000dd0600083018962000cd6565b62000ddf602083018862000cd6565b818103604083015262000df3818762000d4a565b905062000e04606083018662000d8b565b62000e13608083018562000da8565b62000e2260a083018462000d8b565b979650505050505050565b62000e388162000cc2565b82525050565b600082825260208201905092915050565b600062000e5c8262000ce7565b62000e68818562000e3e565b935062000e7a81856020860162000d03565b62000e858162000d39565b840191505092915050565b62000e9b8162000c35565b82525050565b62000eac8162000d9c565b82525050565b600060c08301600083015162000ecc600086018262000e2d565b50602083015162000ee1602086018262000e2d565b506040830151848203604086015262000efb828262000e4f565b915050606083015162000f12606086018262000e90565b50608083015162000f27608086018262000ea1565b5060a083015162000f3c60a086018262000e90565b508091505092915050565b6000602082019050818103600083015262000f63818462000eb2565b905092915050565b600060208201905062000f82600083018462000d8b565b92915050565b600060208201905062000f9f600083018462000cd6565b92915050565b600081519050919050565b600082825260208201905092915050565b6000819050602082019050919050565b600062000fdf838362000e2d565b60208301905092915050565b6000602082019050919050565b6000620010058262000fa5565b62001011818562000fb0565b93506200101e8362000fc1565b8060005b838110156200105557815162001039888262000fd1565b9750620010468362000feb565b92505060018101905062001022565b5085935050505092915050565b600060208201905081810360008301526200107e818462000ff8565b905092915050565b600080fd5b600080fd5b7f4e487b7100000000000000000000000000000000000000000000000000000000600052604160045260246000fd5b620010ca8262000d39565b810181811067ffffffffffffffff82111715620010ec57620010eb62001090565b5b80604052505050565b60006200110162000c21565b90506200110f8282620010bf565b919050565b600067ffffffffffffffff82111562001132576200113162001090565b5b6200113d8262000d39565b9050602081019050919050565b82818337600083830152505050565b6000620011706200116a8462001114565b620010f5565b9050828152602081018484840111156200118f576200118e6200108b565b5b6200119c8482856200114a565b509392505050565b600082601f830112620011bc57620011bb62001086565b5b8135620011ce84826020860162001159565b91505092915050565b600080600080600060a08688031215620011f657620011f562000c2b565b5b600086013567ffffffffffffffff81111562001217576200121662000c30565b5b6200122588828901620011a4565b9550506020620012388882890162000c59565b945050604086013567ffffffffffffffff8111156200125c576200125b62000c30565b5b6200126a88828901620011a4565b935050606086013567ffffffffffffffff8111156200128e576200128d62000c30565b5b6200129c88828901620011a4565b9250506080620012af8882890162000c59565b9150509295509295909350565b7f52657365727661206a612063616e63656c616461000000000000000000000000600082015250565b6000620012f460148362000cf2565b91506200130182620012bc565b602082019050919050565b600060208201905081810360008301526200132781620012e5565b9050919050565b7f4e616f206175746f72697a61646f000000000000000000000000000000000000600082015250565b600062001366600e8362000cf2565b915062001373826200132e565b602082019050919050565b60006020820190508181036000830152620013998162001357565b9050919050565b7f4e487b7100000000000000000000000000000000000000000000000000000000600052602260045260246000fd5b60006002820490506001821680620013e857607f821691505b602082108103620013fe57620013fd620013a0565b5b50919050565b7f56616c6f7220646520706167616d656e746f20696e636f727265746f00000000600082015250565b60006200143c601c8362000cf2565b9150620014498262001404565b602082019050919050565b600060208201905081810360008301526200146f816200142d565b9050919050565b600060c0820190506200148d600083018962000cd6565b8181036020830152620014a1818862000d4a565b9050620014b2604083018762000d8b565b8181036060830152620014c6818662000d4a565b90508181036080830152620014dc818562000d4a565b9050620014ed60a083018462000d8b565b979650505050505050565b7f4e487b7100000000000000000000000000000000000000000000000000000000600052601160045260246000fd5b6000620015348262000c35565b91507fffffffffffffffffffffffffffffffffffffffffffffffffffffffffffffffff8203620015695762001568620014f8565b5b600182019050919050565b60006080820190506200158b600083018762000cd6565b81810360208301526200159f818662000d4a565b9050620015b0604083018562000d8b565b620015bf606083018462000d8b565b9594505050505056fe60806040523480156200001157600080fd5b5060405162000f3438038062000f348339818101604052810190620000379190620003e4565b856000806101000a81548173ffffffffffffffffffffffffffffffffffffffff021916908373ffffffffffffffffffffffffffffffffffffffff16021790555084600190805190602001906200008f929190620000f7565b5083600381905550806002819055508260049080519060200190620000b6929190620000f7565b508160059080519060200190620000cf929190620000f7565b506000600660006101000a81548160ff02191690831515021790555050505050505062000541565b82805462000105906200050c565b90600052602060002090601f01602090048101928262000129576000855562000175565b82601f106200014457805160ff191683800117855562000175565b8280016001018555821562000175579182015b828111156200017457825182559160200191906001019062000157565b5b50905062000184919062000188565b5090565b5b80821115620001a357600081600090555060010162000189565b5090565b6000604051905090565b600080fd5b600080fd5b600073ffffffffffffffffffffffffffffffffffffffff82169050919050565b6000620001e882620001bb565b9050919050565b620001fa81620001db565b81146200020657600080fd5b50565b6000815190506200021a81620001ef565b92915050565b600080fd5b600080fd5b6000601f19601f8301169050919050565b7f4e487b7100000000000000000000000000000000000000000000000000000000600052604160045260246000fd5b62000275826200022a565b810181811067ffffffffffffffff821117156200029757620002966200023b565b5b80604052505050565b6000620002ac620001a7565b9050620002ba82826200026a565b919050565b600067ffffffffffffffff821115620002dd57620002dc6200023b565b5b620002e8826200022a565b9050602081019050919050565b60005b8381101562000315578082015181840152602081019050620002f8565b8381111562000325576000848401525b50505050565b6000620003426200033c84620002bf565b620002a0565b90508281526020810184848401111562000361576200036062000225565b5b6200036e848285620002f5565b509392505050565b600082601f8301126200038e576200038d62000220565b5b8151620003a08482602086016200032b565b91505092915050565b6000819050919050565b620003be81620003a9565b8114620003ca57600080fd5b50565b600081519050620003de81620003b3565b92915050565b60008060008060008060c08789031215620004045762000403620001b1565b5b60006200041489828a0162000209565b965050602087015167ffffffffffffffff811115620004385762000437620001b6565b5b6200044689828a0162000376565b95505060406200045989828a01620003cd565b945050606087015167ffffffffffffffff8111156200047d576200047c620001b6565b5b6200048b89828a0162000376565b935050608087015167ffffffffffffffff811115620004af57620004ae620001b6565b5b620004bd89828a0162000376565b92505060a0620004d089828a01620003cd565b9150509295509295509295565b7f4e487b7100000000000000000000000000000000000000000000000000000000600052602260045260246000fd5b600060028204905060018216806200052557607f821691505b6020821081036200053b576200053a620004dd565b5b50919050565b6109e380620005516000396000f3fe608060405234801561001057600080fd5b50600436106100885760003560e01c806395ee12211161005b57806395ee1221146101035780639a04f70414610121578063aa8c217c1461013f578063d23b96a11461015d57610088565b80630818a2d61461008d57806352f31426146100ab57806366481270146100c957806382394694146100e7575b600080fd5b61009561017b565b6040516100a29190610677565b60405180910390f35b6100b3610209565b6040516100c09190610677565b60405180910390f35b6100d1610297565b6040516100de9190610677565b60405180910390f35b61010160048036038101906100fc91906106fc565b610325565b005b61010b610591565b6040516101189190610744565b60405180910390f35b6101296105a4565b604051610136919061076e565b60405180910390f35b6101476105c8565b60405161015491906107a2565b60405180910390f35b6101656105ce565b60405161017291906107a2565b60405180910390f35b60018054610188906107ec565b80601f01602080910402602001604051908101604052809291908181526020018280546101b4906107ec565b80156102015780601f106101d657610100808354040283529160200191610201565b820191906000526020600020905b8154815290600101906020018083116101e457829003601f168201915b505050505081565b60048054610216906107ec565b80601f0160208091040260200160405190810160405280929190818152602001828054610242906107ec565b801561028f5780601f106102645761010080835404028352916020019161028f565b820191906000526020600020905b81548152906001019060200180831161027257829003601f168201915b505050505081565b600580546102a4906107ec565b80601f01602080910402602001604051908101604052809291908181526020018280546102d0906107ec565b801561031d5780601f106102f25761010080835404028352916020019161031d565b820191906000526020600020905b81548152906001019060200180831161030057829003601f168201915b505050505081565b60008054906101000a900473ffffffffffffffffffffffffffffffffffffffff1673ffffffffffffffffffffffffffffffffffffffff163373ffffffffffffffffffffffffffffffffffffffff16146103b3576040517f08c379a00000000000000000000000000000000000000000000000000000000081526004016103aa9061088f565b60405180910390fd5b600660009054906101000a900460ff1615610403576040517f08c379a00000000000000000000000000000000000000000000000000000000081526004016103fa906108fb565b60405180910390fd5b60008054906101000a900473ffffffffffffffffffffffffffffffffffffffff1673ffffffffffffffffffffffffffffffffffffffff168173ffffffffffffffffffffffffffffffffffffffff1614610491576040517f08c379a00000000000000000000000000000000000000000000000000000000081526004016104889061098d565b60405180910390fd5b6001600660006101000a81548160ff02191690831515021790555060006104b66105d4565b905060008054906101000a900473ffffffffffffffffffffffffffffffffffffffff1673ffffffffffffffffffffffffffffffffffffffff166108fc829081150290604051600060405180830381858888f1935050505015801561051e573d6000803e3d6000fd5b5060008054906101000a900473ffffffffffffffffffffffffffffffffffffffff1673ffffffffffffffffffffffffffffffffffffffff167f5cd299de5eeda67273101925bf237bc1f11d5a691d78d173827e51af1a0a720b8260405161058591906107a2565b60405180910390a25050565b600660009054906101000a900460ff1681565b60008054906101000a900473ffffffffffffffffffffffffffffffffffffffff1681565b60035481565b60025481565b6000600354905090565b600081519050919050565b600082825260208201905092915050565b60005b838110156106185780820151818401526020810190506105fd565b83811115610627576000848401525b50505050565b6000601f19601f8301169050919050565b6000610649826105de565b61065381856105e9565b93506106638185602086016105fa565b61066c8161062d565b840191505092915050565b60006020820190508181036000830152610691818461063e565b905092915050565b600080fd5b600073ffffffffffffffffffffffffffffffffffffffff82169050919050565b60006106c98261069e565b9050919050565b6106d9816106be565b81146106e457600080fd5b50565b6000813590506106f6816106d0565b92915050565b60006020828403121561071257610711610699565b5b6000610720848285016106e7565b91505092915050565b60008115159050919050565b61073e81610729565b82525050565b60006020820190506107596000830184610735565b92915050565b610768816106be565b82525050565b6000602082019050610783600083018461075f565b92915050565b6000819050919050565b61079c81610789565b82525050565b60006020820190506107b76000830184610793565b92915050565b7f4e487b7100000000000000000000000000000000000000000000000000000000600052602260045260246000fd5b6000600282049050600182168061080457607f821691505b602082108103610817576108166107bd565b5b50919050565b7f4572726f2c20736f20706f64652073657220666569746f2070656c6f20686f7360008201527f7065646500000000000000000000000000000000000000000000000000000000602082015250565b60006108796024836105e9565b91506108848261081d565b604082019050919050565b600060208201905081810360008301526108a88161086c565b9050919050565b7f52657365727661206a612063616e63656c616461000000000000000000000000600082015250565b60006108e56014836105e9565b91506108f0826108af565b602082019050919050565b60006020820190508181036000830152610914816108d8565b9050919050565b7f4170656e6173206f20686f737065646520706f64652063616e63656c6172206160008201527f2072657365727661000000000000000000000000000000000000000000000000602082015250565b60006109776028836105e9565b91506109828261091b565b604082019050919050565b600060208201905081810360008301526109a68161096a565b905091905056fea264697066735822122050cbb65c3a9f03a7da3d8cf6f83f0a7d490d4b70ab8950f84b2e3743ae66be8264736f6c634300080d0033a2646970667358221220309bd45d56a0170bbd30addd6a66ab0cec5cf0c1b4649a52475e9bb2cf8a193764736f6c634300080d0033",
  "immutableReferences": {},
  "source": "// SPDX-License-Identifier: MIT\npragma solidity ^0.8.0;\n\nimport \"./HotelBooking.sol\";\n\ncontract HotelBookingManager {\n    address public owner;\n    uint256 public bookingCount = 0;\n    address[] public bookingContracts;\n    //lista de endereos de contratos de reserva\n\n    struct BookingInfo {\n        address bookingContract;\n        address guest;\n        string hotel;\n        uint256 amount;\n        bool isActive;\n        uint256 roomNumber;\n    }\n\n    mapping(uint256 => BookingInfo) public bookings;\n\n    event BookingCreated(\n        uint256 indexed bookingId,\n        address bookingContract,\n        address indexed guest,\n        string hotel,\n        uint256 amount,\n        uint256 roomNumber\n    );\n    /*Notifica qualquer sistema externo que uma nova reserva foi feita, incluindo detalhes como o ID da reserva, o endereo do contrato\n    da reserva, o endereo do hspede, o nome do hotel e o valor pago. Sistemas que monitoram a blockchain podem capturar esse evento e\n    atualizar a interface do usurio ou realizar outras aes com base nas informaes fornecidas.*/\n    \n    //\"Indexed\" permite a busca e filtragem de eventos no log da blockchain pelo 'bookingId' e 'guest'\n\n    event BookingCancelled(\n        uint256 indexed bookingId,\n        address indexed guest\n    );\n\n    modifier onlyOwner() {\n        require(msg.sender == owner, \"Erro, disponivel apenas o criador do contrato\");\n        _;\n    }\n\n    constructor() {\n        owner = msg.sender;\n    }\n\n    function createBooking(string memory _hotel, uint256 _amount,string memory  _checkInDate, string memory _checkOutDate, uint256 _roomNumber) public payable {\n        // Verifica se o valor enviado na transao  igual ao valor esperado da reserva, caso no seja, a transao falha e exibe a mensagem\n        require(msg.value == _amount, \"Valor de pagamento incorreto\");\n\n        // Cria uma instncia de um novo contrato de reserva individual (HotelBooking)\n        HotelBooking newBooking = new HotelBooking(\n        msg.sender, //endereo do hspede\n        _hotel, //nome do hotel\n        _amount, //valor pago\n        _checkInDate,\n        _checkOutDate,\n        _roomNumber\n    );\n\n    // Incrementa o contador de reservas para gerar um novo ID de reserva\n    bookingCount++;\n\n    // Registra as informaes da nova reserva no mapeamento 'bookings' usando o novo ID de reserva como chave\n    bookings[bookingCount] = BookingInfo({\n        bookingContract: address(newBooking),\n        guest: msg.sender,\n        hotel: _hotel,\n        amount: _amount,\n        isActive: true,\n        roomNumber: _roomNumber\n    });\n\n    // Adiciona o endereo do novo contrato de reserva  lista de contratos de reserva\n    bookingContracts.push(address(newBooking));\n\n    // Emite o evento 'BookingCreated' para notificar sobre a nova reserva\n    emit BookingCreated(\n        bookingCount,\n        address(newBooking),\n        msg.sender,\n        _hotel,\n        _amount,\n        _roomNumber\n        );\n    }\n\n    function cancelBooking(uint256 _bookingId) public {\n        BookingInfo storage booking = bookings[_bookingId];\n        require(booking.isActive, \"Reserva ja cancelada\");\n        require(\n            msg.sender == booking.guest || msg.sender == owner,\n            \"Nao autorizado\"\n        );\n\n        HotelBooking(booking.bookingContract).cancelBooking(msg.sender);\n        booking.isActive = false;\n\n        emit BookingCancelled(_bookingId, msg.sender);\n    }\n\n    function getBooking(uint256 _bookingId)\n        public\n        view\n        returns (BookingInfo memory)\n    {\n        return bookings[_bookingId];\n    }\n\n    function getBookingContracts() public view returns (address[] memory) {\n        return bookingContracts;\n        //retorna os contratos de reserva da lista\n    }\n}\n",
  "sourcePath": "C:\\Users\\Usuario\\Documents\\GitHub\\cpm-22-bugs\\etheroom-web\\contracts\\HotelBookingManager.sol",
  "compiler": {
    "name": "solc",
    "version": "0.8.13+commit.abaa5c0e.Emscripten.clang"
  },
  "schemaVersion": "3.4.16",
  "updatedAt": "2024-07-12T19:02:43.793Z",
  "networkType": "ethereum",
  "devdoc": {
    "kind": "dev",
    "methods": {},
    "version": 1
  },
  "userdoc": {
    "kind": "user",
    "methods": {},
    "version": 1
  }
}